0C551216045277W0037            201407000000603760060376CA02110306  03076437   K184656C7156C04903208 
1C551216045277W0037            201407010100030000000000MOHAMAD YASSIN BIN JANTAN          C04903208 
1C551216045277W0037            201407060200005000000000MOHAMAD YASSIN BIN JANTAN          C04903208 
1C551216045277W0037            201407410100541670002709MOHAMAD YASSIN BIN JANTAN          C04903208 
0C570124065143W0037            201407000000035000003500CA02110163  52601433   K184656C7156C05110034 
1C570124065143W0037            201407010100030000000000SHEIKH MOHD HANAFI BIN SH KAMARUDINC05110034 
1C570124065143W0037            201407060200005000000000SHEIKH MOHD HANAFI BIN SH KAMARUDINC05110034 
0C570901086054W0037            201407000000162790016279CA02110154  06571798   K184656C7156C05247077 
1C570901086054W0037            201407010100030000000000EZIZAH BT HJ HASHIM                C05247077 
1C570901086054W0037            201407060200005000000000EZIZAH BT HJ HASHIM                C05247077 
1C570901086054W0037            201407410100111120001667EZIZAH BT HJ HASHIM                C05247077 
0C581227055515W0037            201407000000035000003500CA02110806  02942886   K184656C7156C05627504 
1C581227055515W0037            201407010100030000000000ANUAR B IDRIS                      C05627504 
1C581227055515W0037            201407060200005000000000ANUAR B IDRIS                      C05627504 
0C601209035284W0037            201407000000121670012167CA02110112  03547536   K184656C7156C06053680 
1C601209035284W0037            201407010100030000000000HASMAH BT HASSAN                   C06053680 	
1C601209035284W0037            201407060200005000000000HASMAH BT HASSAN                   C06053680 
1C601209035284W0037            201407420100083340000333HASMAH BT HASSAN                   C06053680 
0C620328105381W0037            201407000000618340061834CA02110189  06795686   K184656C7156C06410048 
1C620328105381W0037            201407010100030000000000ZAINAL ABIDIN BIN ABDUL RAHMAN     C06410048 
1C620328105381W0037            201407060200005000000000ZAINAL ABIDIN BIN ABDUL RAHMAN     C06410048 
1C620328105381W0037            201407460100416670016667ZAINAL ABIDIN BIN ABDUL RAHMAN     C06410048 
0C621025065305W0037            201407000000195710019571CA02110164  03060100   K184656C7156C06856149 
1C621025065305W0037            201407010100030000000000WAN MOHD RIDZUAN BIN WAN MAJID     C06856149 
1C621025065305W0037            201407060200005000000000WAN MOHD RIDZUAN BIN WAN MAJID     C06856149 
1C621025065305W0037            201407410100119050004166WAN MOHD RIDZUAN BIN WAN MAJID     C06856149 
0C631231065380W0037            201407000000093340009334CA02110199  08379414   K184656C7156C07190747 
1C631231065380W0037            201407010100030000000000NOORAZIZA BINTI SABARUDIN          C07190747 
1C631231065380W0037            201407060200005000000000NOORAZIZA BINTI SABARUDIN          C07190747 
1C631231065380W0037            201407410100041670001667NOORAZIZA BINTI SABARUDIN          C07190747 
0C690220065166W0037            201407000000085000008500CA02110154  09723081   K184656C7156CA1202866 
1C690220065166W0037            201407010100030000000000SURIATI BINTI ABDULLAH             CA1202866 
1C690220065166W0037            201407060200005000000000SURIATI BINTI ABDULLAH             CA1202866 
1C690220065166W0037            201407410100033330001667SURIATI BINTI ABDULLAH             CA1202866 
0C700101066461W0037            201407000000118330011833CA02111319  09657347   K184656C7156CA1413211 
1C700101066461W0037            201407010100030000000000AB MUHAIMIN BIN AB HAMID           CA1413211 
1C700101066461W0037            201407060200005000000000AB MUHAIMIN BIN AB HAMID           CA1413211 
1C700101066461W0037            201407410100066670001666AB MUHAIMIN BIN AB HAMID           CA1413211 
0C710303016242W0037            201407000000085000008500CA02110199  11080298   K184656C7156CA1745158 
1C710303016242W0037            201407010100030000000000ROS ANIZA BINTI SALIM              CA1745158 
1C710303016242W0037            201407060200005000000000ROS ANIZA BINTI SALIM              CA1745158 
1C710303016242W0037            201407410100033330001667ROS ANIZA BINTI SALIM              CA1745158 
0C710507115138W0037            201407000000128750012875CA02110199  09653973   K184656C7156CA1858536 
1C710507115138W0037            201407010100030000000000RAZIMAH BT MOHAMED @ WAHAB         CA1858536 
1C710507115138W0037            201407060200005000000000RAZIMAH BT MOHAMED @ WAHAB         CA1858536 
1C710507115138W0037            201407410100062500003125RAZIMAH BT MOHAMED @ WAHAB         CA1858536 
0C731111115070W0037            201407000000085000008500CA02110199  60004411   K184656C7156CA2618829 
1C731111115070W0037            201407010100030000000000MAHANI BINTI IBRAHIM               CA2618829 
1C731111115070W0037            201407060200005000000000MAHANI BINTI IBRAHIM               CA2618829 
1C731111115070W0037            201407410100033330001667MAHANI BINTI IBRAHIM               CA2618829 
0C740217065336W0037            201407000000035000003500CA02110176  09732991   K184656C7156CA2703692 
1C740217065336W0037            201407010100030000000000AZURA BINTI MD KASSIM              CA2703692 
1C740217065336W0037            201407060200005000000000AZURA BINTI MD KASSIM              CA2703692 
0C741217065242W0037            201407000000085000008500CA02110199  09747395   K184656C7156CA2894815 
1C741217065242W0037            201407010100030000000000NOR HIDAYAH BINTI YUSOF            CA2894815 
1C741217065242W0037            201407060200005000000000NOR HIDAYAH BINTI YUSOF            CA2894815 
1C741217065242W0037            201407410100033330001667NOR HIDAYAH BINTI YUSOF            CA2894815 
0C780215065996W0037            201407000000085000008500CA02110199  11573854   K184656C7156CA3925570 
1C780215065996W0037            201407010100030000000000NORMAZIDAH BINTI ISMAIL            CA3925570 
1C780215065996W0037            201407060200005000000000NORMAZIDAH BINTI ISMAIL            CA3925570 
1C780215065996W0037            201407410100033330001667NORMAZIDAH BINTI ISMAIL            CA3925570 
0C790528035607W0037            201407000000260000026000CA02111412  08836306   K184656C7156          
1C790528035607W0037            201407010100030000000000MAZLAN BIN MAJID                             
1C790528035607W0037            201407060200005000000000MAZLAN BIN MAJID                             
1C790528035607W0037            201407410100150000007500MAZLAN BIN MAJID                             
0C790612035247W0037            201407000000085000008500CA02110169  11525177   K184656C7156          
1C790612035247W0037            201407010100030000000000MOHD NOR AZLAN BIN GHAZALI @ RAZI            
1C790612035247W0037            201407060200005000000000MOHD NOR AZLAN BIN GHAZALI @ RAZI            
1C790612035247W0037            201407410100033330001667MOHD NOR AZLAN BIN GHAZALI @ RAZI            
0C791223115109W0037            201407000000085000008500CA02112178  20186482   K184656C7156          
1C791223115109W0037            201407010100030000000000MOHD ZULFAKAR ALI BIN MUDA                   
1C791223115109W0037            201407060200005000000000MOHD ZULFAKAR ALI BIN MUDA                   
1C791223115109W0037            201407410100033330001667MOHD ZULFAKAR ALI BIN MUDA                   
0C830814026182W0037            201407000000085000008500CA02111317  20282893   K184656C7156          
1C830814026182W0037            201407010100030000000000SYAKIRAH BINTI ABDUL GHANI                   
1C830814026182W0037            201407060200005000000000SYAKIRAH BINTI ABDUL GHANI                   
1C830814026182W0037            201407410100033330001667SYAKIRAH BINTI ABDUL GHANI                   
0C540807065161W0037-           201407000000035000003500CA02110923  03058138   K184656C7156C04647034 
1C540807065161W0037-           201407010100030000000000DAHARI BIN AHMAD                   C04647034 
1C540807065161W0037-           201407060200005000000000DAHARI BIN AHMAD                   C04647034 
0C560911115251W0037-           201407000000035000003500CA02110424  08040230   K184656C7156C05081617 
1C560911115251W0037-           201407010100030000000000A AZIZ BIN MOHAMED                 C05081617 
1C560911115251W0037-           201407060200005000000000A AZIZ BIN MOHAMED                 C05081617 
0C760928065218W003701442       201407000000085000008500CA02111317  20198212   K184656C7156CA3448546 
1C760928065218W003701442       201407010100030000000000NORAFIZA BINTI JUSOH               CA3448546 
1C760928065218W003701442       201407060200005000000000NORAFIZA BINTI JUSOH               CA3448546 
1C760928065218W003701442       201407410100033330001667NORAFIZA BINTI JUSOH               CA3448546 
