0C701222065072W0037            201407000000347500034750UPSI000001  K00742     K188880C7183CA1754072 
1C701222065072W0037            201407010100030000000000SHAMSIAH BT MOHD JAIS              CA1754072 
1C701222065072W0037            201407060200005000000000SHAMSIAH BT MOHD JAIS              CA1754072 
1C701222065072W0037            201407410100208340010416SHAMSIAH BT MOHD JAIS              CA1754072 
