0C850821085234W0037            201407000000000000003500KP02113150  20341661   K194205C7234          
1C850821085234W0037            201407010100030000000000NORANIDA BINTI MOHD NOR                      
1C850821085234W0037            201407060200005000000000NORANIDA BINTI MOHD NOR                      
0C850928015252W0037            201407000000000000002300KP02118003  20209321   K194205C7234          
1C850928015252W0037            201407010100030000000000SULASTRI BINTI SULAIMAN                      
1C850928015252W0037            201407060200005000000000SULASTRI BINTI SULAIMAN                      
