0C550328085949W0037            201408000001685000168500EA02112712  01952373   K217249C7482C05051972 
1C550328085949W0037            201408010100030000000000ARSHAD MOHAMAD                     C05051972 
1C550328085949W0037            201408060200005000000000ARSHAD MOHAMAD                     C05051972 
1C550328085949W0037            201408410101500000015000ARSHAD MOHAMAD                     C05051972 
0C551116085415W0037            201408000000910000091000EA02112701  05979935   K217249C7482C04924558 
1C551116085415W0037            201408010100030000000000KHALIL B M LODIN                   C04924558 
1C551116085415W0037            201408060200005000000000KHALIL B M LODIN                   C04924558 
1C551116085415W0037            201408410100833330004167KHALIL B M LODIN                   C04924558 
0C570104086254W0037            201408000001730830173083EA02112705  01952506   K217249C7482C05161531 
1C570104086254W0037            201408010100030000000000PUAN DALILAH BTE MOHD SALLEH       C05161531 
1C570104086254W0037            201408060200005000000000PUAN DALILAH BTE MOHD SALLEH       C05161531 
1C570104086254W0037            201408460101541660015417PUAN DALILAH BTE MOHD SALLEH       C05161531 
0C570425086255W0037            201408000001250000125000EA02111419  09570896   K217249C7482C05233488 
1C570425086255W0037            201408410101041670020833AHMAD TERIDI BIN SHAHUDDIN         C05233488 
0C570604086373W0037            201408000000035000003500EA02113126  06009955   K217249C7482C05233197 
1C570604086373W0037            201408010100030000000000MOHD TAJUDIN BIN JAMIL             C05233197 
1C570604086373W0037            201408060200005000000000MOHD TAJUDIN BIN JAMIL             C05233197 
0C580208085781W0037            201408000000035000003500EA02112277  02068930   K217249C7482C05327269 
1C580208085781W0037            201408010100030000000000MOHD TAJUDDIN B IDRIS              C05327269 
1C580208085781W0037            201408060200005000000000MOHD TAJUDDIN B IDRIS              C05327269 
0C600407085966W0037            201408000000035000003500EA02112611  02017143   K217249C7482C05850833 
1C600407085966W0037            201408010100030000000000MAIMUN BINTI YIT                   C05850833 
1C600407085966W0037            201408060200005000000000MAIMUN BINTI YIT                   C05850833 
0C600905085731W0037            201408000000035000003500EA02111509  03247749   K217249C7482C05970672 
1C600905085731W0037            201408010100030000000000MUHAMMAD NASARDIN BIN SAIDON       C05970672 
1C600905085731W0037            201408060200005000000000MUHAMMAD NASARDIN BIN SAIDON       C05970672 
0C620112085537W0037            201408000000035000003500EA02113166  02047488   K217249C7482C06346339 
1C620112085537W0037            201408010100030000000000AYUB BIN DON                       C06346339 
1C620112085537W0037            201408060200005000000000AYUB BIN DON                       C06346339 
0C621123085182W0037            201408000000035000003500EA02112444  02132850   K217249C7482C06866608 
1C621123085182W0037            201408010100030000000000SALMAH BT ZAKARIA                  C06866608 
1C621123085182W0037            201408060200005000000000SALMAH BT ZAKARIA                  C06866608 
0C630109085789W0037            201408000000035000003500EA02112039  02047611   K217249C7482C07074816 
1C630109085789W0037            201408010100030000000000MUHAMMAD SHAFIAI BIN SELAMAT       C07074816 
1C630109085789W0037            201408060200005000000000MUHAMMAD SHAFIAI BIN SELAMAT       C07074816 
0C630501115348W0037            201408000000035000003500EA02112501  03259926   K217249C7482C07033973 
1C630501115348W0037            201408010100030000000000ROSITA BINTI ISMAIL                C07033973 
1C630501115348W0037            201408060200005000000000ROSITA BINTI ISMAIL                C07033973 
0C630503075941W0037            201408000000035000003500EA02111012  03095577   K217249C7482C07045860 
1C630503075941W0037            201408010100030000000000YAHAYA BIN ABD HAMID               C07045860 
1C630503075941W0037            201408060200005000000000YAHAYA BIN ABD HAMID               C07045860 
0C630523025212W0037            201408000000035000003500EA02111007  08460842   K217249C7482C07113912 
1C630523025212W0037            201408010100030000000000MARIAM BINTI AWANG                 C07113912 
1C630523025212W0037            201408060200005000000000MARIAM BINTI AWANG                 C07113912 
0C630728086246W0037            201408000000222500022250EA02111111  07154214   K217249C7482C07146449 
1C630728086246W0037            201408010100030000000000LAILA BTE SERAOF                   C07146449 
1C630728086246W0037            201408060200005000000000LAILA BTE SERAOF                   C07146449 
1C630728086246W0037            201408410100125000006250LAILA BTE SERAOF                   C07146449 
0C640529085223W0037            201408000000035000003500EA02113136  09508870   K217249C7482CA0077991 
1C640529085223W0037            201408010100030000000000EN PRABAKARAN A/L SHANMUGAM ACHARY CA0077991 
1C640529085223W0037            201408060200005000000000EN PRABAKARAN A/L SHANMUGAM ACHARY CA0077991 
0C641118085397W0037            201408000000322510032251EA02111102  08319162   K217249C7482CA0008982 
1C641118085397W0037            201408010100030000000000AZMAN BIN SHAID                    CA0008982 
1C641118085397W0037            201408060200005000000000AZMAN BIN SHAID                    CA0008982 
1C641118085397W0037            201408410100191670009584AZMAN BIN SHAID                    CA0008982 
0C650919085359W0037            201408000000035000003500EA02112681  07175821   K217249C7482CA0276108 
1C650919085359W0037            201408010100030000000000MOHD PHUAT BIN MOHD SAID           CA0276108 
1C650919085359W0037            201408060200005000000000MOHD PHUAT BIN MOHD SAID           CA0276108 
0C660619125100W0037            201408000000347500034750EA02111809  05207907   K217249C7482CH0670199 
1C660619125100W0037            201408010100030000000000JAIME KANGOI @ HAFSIAH             CH0670199 
1C660619125100W0037            201408060200005000000000JAIME KANGOI @ HAFSIAH             CH0670199 
1C660619125100W0037            201408410100208330010417JAIME KANGOI @ HAFSIAH             CH0670199 
0C661224075238W0037            201408000000035000003500EA02111207  60024281   K217249C7482CA0609447 
1C661224075238W0037            201408010100030000000000SITALECHMI A/P SINGARAM            CA0609447 
1C661224075238W0037            201408060200005000000000SITALECHMI A/P SINGARAM            CA0609447 
0C670510015839W0037            201408000000035000003500EA02111601  12583878   K217249C7482CA0619592 
1C670510015839W0037            201408010100030000000000AZMAN BIN SIHAB                    CA0619592 
1C670510015839W0037            201408060200005000000000AZMAN BIN SIHAB                    CA0619592 
0C670604086435W0037            201408000000035000003500EA02112729  05981519   K217249C7482CA0738342 
1C670604086435W0037            201408010100030000000000ROSLAN BIN LEE                     CA0738342 
1C670604086435W0037            201408060200005000000000ROSLAN BIN LEE                     CA0738342 
0C680606085574W0037            201408000000035000003500EA02113166  14354138   K217249C7482CA1066992 
1C680606085574W0037            201408010100030000000000FADZILAH BT ISHAK                  CA1066992 
1C680606085574W0037            201408060200005000000000FADZILAH BT ISHAK                  CA1066992 
0C681118065122W0037            201408000000347500034750EA02112045  02952083   K217249C7482CA1140227 
1C681118065122W0037            201408010100030000000000HASNIZA BT MOHD UYOP               CA1140227 
1C681118065122W0037            201408060100005000000000HASNIZA BT MOHD UYOP               CA1140227 
1C681118065122W0037            201408460100208330010417HASNIZA BT MOHD UYOP               CA1140227 
0C690210085462W0037            201408000000035000003500EA02111209  09446998   K217249C7482CA1224518 
1C690210085462W0037            201408010100030000000000FAUZIAH BINTI HAJI JALI            CA1224518 
1C690210085462W0037            201408060200005000000000FAUZIAH BINTI HAJI JALI            CA1224518 
0C700401085728W0037            201408000000035000003500EA02113124  10825677   K217249C7482CA1558770 
1C700401085728W0037            201408010100030000000000SITI ZALEHA BINTI MOHD NOH         CA1558770 
1C700401085728W0037            201408060200005000000000SITI ZALEHA BINTI MOHD NOH         CA1558770 
0C700423085964W0037            201408000000035000003500EA02112625  09463746   K217249C7482CA1597515 
1C700423085964W0037            201408010100030000000000NORLELAWATI BT ABDULLAH            CA1597515 
1C700423085964W0037            201408060200005000000000NORLELAWATI BT ABDULLAH            CA1597515 
0C700612035624W0037            201408000000035000003500EA02112601  08662363   K217249C7482CA1659582 
1C700612035624W0037            201408010100030000000000NOOR HAMIZAH BT YAMIN              CA1659582 
1C700612035624W0037            201408060200005000000000NOOR HAMIZAH BT YAMIN              CA1659582 
0C710902065169W0037            201408000000121670012167EA02113129  09695842   K217249C7482CA1927850 
1C710902065169W0037            201408010100030000000000ROSDI BIN MAT DIAH                 CA1927850 
1C710902065169W0037            201408060200005000000000ROSDI BIN MAT DIAH                 CA1927850 
1C710902065169W0037            201408420100083330000334ROSDI BIN MAT DIAH                 CA1927850 
0C720209086243W0037            201408000000035000003500EA02112608  08411316   K217249C7482CA2098224 
1C720209086243W0037            201408010100030000000000MOHD HAIRUL ANUAR BIN HASHIM       CA2098224 
1C720209086243W0037            201408060200005000000000MOHD HAIRUL ANUAR BIN HASHIM       CA2098224 
0C721102085464W0037            201408000000035000003500EA02113108  12647020   K217249C7482CA2543382 
1C721102085464W0037            201408010100030000000000PARVATHI A/P VELLACHAMI            CA2543382 
1C721102085464W0037            201408060200005000000000PARVATHI A/P VELLACHAMI            CA2543382 
0C730103086287W0037            201408000000035000003500EA02112608  10512721   K217249C7482CA2365371 
1C730103086287W0037            201408010100030000000000ZAINAL ABIDIN BIN BAHARI           CA2365371 
1C730103086287W0037            201408060200005000000000ZAINAL ABIDIN BIN BAHARI           CA2365371 
0C730810086454W0037            201408000000118330011833EA02112867  20132157   K217249C7482          
1C730810086454W0037            201408010100030000000000SHARIFAH BINTI AHMAD                         
1C730810086454W0037            201408060200005000000000SHARIFAH BINTI AHMAD                         
1C730810086454W0037            201408410100066670001666SHARIFAH BINTI AHMAD                         
0C740918086260W0037            201408000000035000003500EA02112601  11456589   K217249C7482CA2884407 
1C740918086260W0037            201408010100030000000000ROHANI BINTI ABDUL RANI            CA2884407 
1C740918086260W0037            201408060200005000000000ROHANI BINTI ABDUL RANI            CA2884407 
0C741231085434W0037            201408000000121250012125EA02113058  08665622   K217249C7482CA2929702 
1C741231085434W0037            201408010100030000000000NOR ANIZA BINTI ABDUL MURAD        CA2929702 
1C741231085434W0037            201408060200005000000000NOR ANIZA BINTI ABDUL MURAD        CA2929702 
1C741231085434W0037            201408410100057500002875NOR ANIZA BINTI ABDUL MURAD        CA2929702 
0C750513086165W0037            201408000000121670012167EA02111005  12631024   K217249C7482CA3116659 
1C750513086165W0037            201408010100030000000000SHAHRIZAN BIN ABDUL WAHAB          CA3116659 
1C750513086165W0037            201408060200005000000000SHAHRIZAN BIN ABDUL WAHAB          CA3116659 
1C750513086165W0037            201408420100083330000334SHAHRIZAN BIN ABDUL WAHAB          CA3116659 
0C771117086668W0037            201408000000121590012159EA02113129  09185620   K217249C7482CA3833212 
1C771117086668W0037            201408010100030000000000SHAMSIAH BT MOHAMED                CA3833212 
1C771117086668W0037            201408060200005000000000SHAMSIAH BT MOHAMED                CA3833212 
1C771117086668W0037            201408420100083330000326SHAMSIAH BT MOHAMED                CA3833212 
0C780216085083W0037            201408000000035000003500EA02111316  60044567   K217249C7482CA3939188 
1C780216085083W0037            201408010100030000000000KAMARUDZAMAN BIN OTHMAN            CA3939188 
1C780216085083W0037            201408060200005000000000KAMARUDZAMAN BIN OTHMAN            CA3939188 
0C780725086586W0037            201408000000035000003500EA02112049  20169956   K217249C7482          
1C780725086586W0037            201408010100030000000000SYUHAILY BINTI SHARIFUDIN                    
1C780725086586W0037            201408060200005000000000SYUHAILY BINTI SHARIFUDIN                    
0C790913065407W0037            201408000000035000003500EA02112609  20338824   K217249C7482          
1C790913065407W0037            201408010100030000000000MOHD KAMAL BIN MUKHTAR                       
1C790913065407W0037            201408060200005000000000MOHD KAMAL BIN MUKHTAR                       
0C800908075818W0037            201408000000035000003500EA02111207  14363899   K217249C7482          
1C800908075818W0037            201408010100030000000000UMAIYAL A/P RAMASAMY                         
1C800908075818W0037            201408060200005000000000UMAIYAL A/P RAMASAMY                         
0C810429086455W0037            201408000000035000003500EA02112757  20057373   K217249C7482          
1C810429086455W0037            201408010100030000000000AHMAD NAZIR BIN YUSUF                        
1C810429086455W0037            201408060200005000000000AHMAD NAZIR BIN YUSUF                        
0C820415085215W0037            201408000000035000003500EA02112608  14730311   K217249C7482          
1C820415085215W0037            201408010100030000000000MOHAMMAD HANIS BIN BRAHIM                    
1C820415085215W0037            201408060200005000000000MOHAMMAD HANIS BIN BRAHIM                    
0C820612025940W0037            201408000000035000003500EA02112712  20236510   K217249C7482          
1C820612025940W0037            201408010100030000000000INTAN FAKINAH BINTI SAMSUDIN                 
1C820612025940W0037            201408060200005000000000INTAN FAKINAH BINTI SAMSUDIN                 
0C830622065187W0037            201408000000035000003500EA02113126  14611305   K217249C7482          
1C830622065187W0037            201408010100030000000000THIYAGU A/L KARUPAIAH                        
1C830622065187W0037            201408060200005000000000THIYAGU A/L KARUPAIAH                        
0C860327385564W0037            201408000000035000003500EA02111057  20345437   K217249C7482          
1C860327385564W0037            201408010100030000000000RAJES A/P SUBRAMANIAM                        
1C860327385564W0037            201408060200005000000000RAJES A/P SUBRAMANIAM                        
0C860627385478W0037            201408000000035000003500EA02112686  20378363   K217249C7482          
1C860627385478W0037            201408010100030000000000SRITHA A/P K. SITHAMBARAM                    
1C860627385478W0037            201408060200005000000000SRITHA A/P K. SITHAMBARAM                    
0C590512086016W0037-           201408000000035000003500EA02112739  05979174   K217249C7482C05899805 
1C590512086016W0037-           201408010100030000000000KAMARIAH BINTI JABOR               C05899805 
1C590512086016W0037-           201408060200005000000000KAMARIAH BINTI JABOR               C05899805 
0C590826065103W0037-           201408000000035000003500EA02111709  07153075   K217249C7482C05770638 
1C590826065103W0037-           201408010100030000000000RAMLI BIN AWANG MAT TAM            C05770638 
1C590826065103W0037-           201408060200005000000000RAMLI BIN AWANG MAT TAM            C05770638 
0C601230085171W003700842       201408000000035000003500EA02111029  02712610   K217249C7482C06105441 
1C601230085171W003700842       201408010100030000000000ABDUL RAHMAN BIN ABDUL MAJID KHAN  C06105441 
1C601230085171W003700842       201408060200005000000000ABDUL RAHMAN BIN ABDUL MAJID KHAN  C06105441 
