0C540929035390W0037            201408000000035000003500DA02110508  03548245   K216446C7481C05200820 
1C540929035390W0037            201408010100030000000000ZAHARAH BINTI ABDULLAH KUTTY       C05200820 
1C540929035390W0037            201408060200005000000000ZAHARAH BINTI ABDULLAH KUTTY       C05200820 
0C580131035005W0037            201408000000285000028500DA02110047  03523867   K216446C7481C05288346 
1C580131035005W0037            201408010100030000000000AB RASAB BIN MAMAT                 C05288346 
1C580131035005W0037            201408060200005000000000AB RASAB BIN MAMAT                 C05288346 
1C580131035005W0037            201408410100208330004167AB RASAB BIN MAMAT                 C05288346 
0C580810035779W0037            201408000000285000028500DA02110248  60002775   K216446C7481C05426755 
1C580810035779W0037            201408010100030000000000ZAKARIA BIN YAACOB                 C05426755 
1C580810035779W0037            201408060200005000000000ZAKARIA BIN YAACOB                 C05426755 
1C580810035779W0037            201408410100208330004167ZAKARIA BIN YAACOB                 C05426755 
0C580815035516W0037            201408000000285000028500DA02110290  60002719   K216446C7481C05726203 
1C580815035516W0037            201408010100030000000000NOR HAYATI BINTI JUSOH @ YUSOFF    C05726203 
1C580815035516W0037            201408060200005000000000NOR HAYATI BINTI JUSOH @ YUSOFF    C05726203 
1C580815035516W0037            201408410100208330004167NOR HAYATI BINTI JUSOH @ YUSOFF    C05726203 
0C590629035271W0037            201408000000035000003500DA02110103  01688589   K216446C7481C05669805 
1C590629035271W0037            201408010100030000000000ABDULLAH BIN IBRAHIM               C05669805 
1C590629035271W0037            201408060200005000000000ABDULLAH BIN IBRAHIM               C05669805 
0C640815035622W0037            201408000000035000003500DA02110376  03480902   K216446C7481C07412057 
1C640815035622W0037            201408010100030000000000SITI NOORAIHA @ MUZAINI BT MOHAMED C07412057 
1C640815035622W0037            201408060200005000000000SITI NOORAIHA @ MUZAINI BT MOHAMED C07412057 
0C670213035358W0037            201408000000035000003500DA02110452  02920478   K216446C7481CA0675538 
1C670213035358W0037            201408010100030000000000TUAN ZAILANI BT TUAN AB. RAHMAN    CA0675538 
1C670213035358W0037            201408060200005000000000TUAN ZAILANI BT TUAN AB. RAHMAN    CA0675538 
0C670417035026W0037            201408000000035000003500DA02110527  03574902   K216446C7481CA0675377 
1C670417035026W0037            201408010100030000000000NORHASNI BT ISMAIL                 CA0675377 
1C670417035026W0037            201408060200005000000000NORHASNI BT ISMAIL                 CA0675377 
0C680102037894W0037            201408000000118330011833DA02110241  03580339   K216446C7481CA0864365 
1C680102037894W0037            201408010100030000000000NIK FATIMAH BT NIK MUSTAPHA        CA0864365 
1C680102037894W0037            201408060200005000000000NIK FATIMAH BT NIK MUSTAPHA        CA0864365 
1C680102037894W0037            201408410100066670001666NIK FATIMAH BT NIK MUSTAPHA        CA0864365 
0C680301035111W0037            201408000000285000028500DA02110265  06202691   K216446C7481CA0889801 
1C680301035111W0037            201408010100030000000000MOHD GHAZALI BIN GHANI             CA0889801 
1C680301035111W0037            201408060200005000000000MOHD GHAZALI BIN GHANI             CA0889801 
1C680301035111W0037            201408410100166660008334MOHD GHAZALI BIN GHANI             CA0889801 
0C690520035161W0037            201408000000035000003500DA02110047  09809591   K216446C7481CA1290474 
1C690520035161W0037            201408010100030000000000RAHIMI BIN MOHAMED                 CA1290474 
1C690520035161W0037            201408060200005000000000RAHIMI BIN MOHAMED                 CA1290474 
0C710301035036W0037            201408000000035000003500DA02110376  09870734   K216446C7481CA1841942 
1C710301035036W0037            201408010100030000000000SANIAH BINTI MAT GHANI             CA1841942 
1C710301035036W0037            201408060200005000000000SANIAH BINTI MAT GHANI             CA1841942 
0C720805035311W0037            201408000000347500034750DA02110397  11448388   K216446C7481CA2272013 
1C720805035311W0037            201408010100030000000000MOHD RUSLI BIN MOHD NOR            CA2272013 
1C720805035311W0037            201408060200005000000000MOHD RUSLI BIN MOHD NOR            CA2272013 
1C720805035311W0037            201408410100208330010417MOHD RUSLI BIN MOHD NOR            CA2272013 
0C730129035074W0037            201408000000118330011833DA02110214  11205333   K216446C7481CA2406875 
1C730129035074W0037            201408010100030000000000ROSMALIZA BT ZAKARIA               CA2406875 
1C730129035074W0037            201408060200005000000000ROSMALIZA BT ZAKARIA               CA2406875 
1C730129035074W0037            201408410100066670001666ROSMALIZA BT ZAKARIA               CA2406875 
0C730307035289W0037            201408000000005000000500DA02110376  08549115   K216446C7481CA2408343 
1C730307035289W0037            201408060200005000000000CHE ABDULLAH BIN AB GHANI          CA2408343 
0C751006035704W0037            201408000000118330011833DA02110241  09813817   K216446C7481CA3171347 
1C751006035704W0037            201408010100030000000000ROHANA BINTI MOHAMED               CA3171347 
1C751006035704W0037            201408060200005000000000ROHANA BINTI MOHAMED               CA3171347 
1C751006035704W0037            201408410100066670001666ROHANA BINTI MOHAMED               CA3171347 
0C770210715110W0037            201408000000035000003500DA02110275  20080174   K216446C7481CA3817312 
1C770210715110W0037            201408010100030000000000RAHIMAH BINTI MOKHTAR              CA3817312 
1C770210715110W0037            201408060200005000000000RAHIMAH BINTI MOKHTAR              CA3817312 
0C770816036024W0037            201408000000035000003500DA02110273  20153823   K216446C7481CA3810290 
1C770816036024W0037            201408010100030000000000ZALEHAH BINTI MOHAMED              CA3810290 
1C770816036024W0037            201408060200005000000000ZALEHAH BINTI MOHAMED              CA3810290 
0C820808105694W0037            201408000000118330011833DA02110241  20203464   K216446C7481          
1C820808105694W0037            201408010100030000000000WAN MAISARAH BT WAN YACOB                    
1C820808105694W0037            201408016000005000000000WAN MAISARAH BT WAN YACOB                    
1C820808105694W0037            201408410100066670001666WAN MAISARAH BT WAN YACOB                    
0C850909036138W0037            201408000000165000016500DA02110416  20421638   K216446C7481          
1C850909036138W0037            201408010100030000000000AZMA BINTI AZIZ                              
1C850909036138W0037            201408040100100000000000AZMA BINTI AZIZ                              
1C850909036138W0037            201408060200005000000000AZMA BINTI AZIZ                              
1C850909036138W0037            201408080100030000000000AZMA BINTI AZIZ                              
0C640101066400W003700217       201408000000035000003500DA02110047  04065918   K216446C7481C07257555 
1C640101066400W003700217       201408010100030000000000NORIZAN BINTI MOHAMED              C07257555 
1C640101066400W003700217       201408060200005000000000NORIZAN BINTI MOHAMED              C07257555 
0C611009035174W003701445       201408000000099290009929DA02110614  03510229   K216446C7481C06324771 
1C611009035174W003701445       201408010100030000000000WAN AISHAH BT WAN IBRAHIM          C06324771 
1C611009035174W003701445       201408060200005000000000WAN AISHAH BT WAN IBRAHIM          C06324771 
1C611009035174W003701445       201408410100047620001667WAN AISHAH BT WAN IBRAHIM          C06324771 
