0C540910015082W0037            201408000000035000003500KP02117703  08300782   K220119C7494C08138928 
1C540910015082W0037            201408010100030000000000SENG HOON KIEW                     C08138928 
1C540910015082W0037            201408060200005000000000SENG HOON KIEW                     C08138928 
0C540928055269W0037            201408000000005000000500KP02111023  02256683   K220119C7494C04668616 
1C540928055269W0037            201408060200005000000000RAGUPATHY RAJAH A/L S.POOPALA RAJAHC04668616 
0C550104105664W0037            201408000000951670095167KP02112741  08321812   K220119C7494C04771315 
1C550104105664W0037            201408010100030000000000FAUSIAH BTE MOKHTAR                C04771315 
1C550104105664W0037            201408060200005000000000FAUSIAH BTE MOKHTAR                C04771315 
1C550104105664W0037            201408410100833330008334FAUSIAH BTE MOKHTAR                C04771315 
0C550731025372W0037            201408000000035000003500KP02111015  08001265   K220119C7494C04821870 
1C550731025372W0037            201408010100030000000000NOOR A' INI BINTI HJ YAACOB        C04821870 
1C550731025372W0037            201408060200005000000000NOOR A' INI BINTI HJ YAACOB        C04821870 
0C551206045185W0037            201408000000035000003500KP02111020  02376812   K220119C7494C04903109 
1C551206045185W0037            201408010100030000000000AWAB BIN SAID                      C04903109 
1C551206045185W0037            201408060200005000000000AWAB BIN SAID                      C04903109 
0C560116086068W0037            201408000000993450099345KP02113000  04959540   K220119C7494C04907729 
1C560116086068W0037            201408010100030000000000ISMAIL MAZUIN BT MOHAMMAD DAUD     C04907729 
1C560116086068W0037            201408060200005000000000ISMAIL MAZUIN BT MOHAMMAD DAUD     C04907729 
1C560116086068W0037            201408410100833330012512ISMAIL MAZUIN BT MOHAMMAD DAUD     C04907729 
0C560410016263W0037            201408000000035000003500KP02111022  05793047   K220119C7494C04956223 
1C560410016263W0037            201408010100030000000000HAMDAN BIN MISRAM                  C04956223 
1C560410016263W0037            201408060200005000000000HAMDAN BIN MISRAM                  C04956223 
0C570207045404W0037            201408000001285000128500KP02117507  08358574   K220119C7494C05123796 
1C570207045404W0037            201408010100030000000000EE WAN CHIAN                       C05123796 
1C570207045404W0037            201408060200005000000000EE WAN CHIAN                       C05123796 
1C570207045404W0037            201408410101041670020833EE WAN CHIAN                       C05123796 
0C570516055008W0037            201408000000035000003500KP02115703  08048233   K220119C7494C05168645 
1C570516055008W0037            201408010100030000000000MAIMUN BTE AHMAD                   C05168645 
1C570516055008W0037            201408060200005000000000MAIMUN BTE AHMAD                   C05168645 
0C580118086158W0037            201408000000035000003500KP02111016  03942661   K220119C7494C05485147 
1C580118086158W0037            201408010100030000000000ASIAH BINTI RAMLI                  C05485147 
1C580118086158W0037            201408060200005000000000ASIAH BINTI RAMLI                  C05485147 
0C580122085588W0037            201408000000535000053500KP02113040  08119927   K220119C7494C05328631 
1C580122085588W0037            201408010100030000000000NOR ASHIKIN BT MOHD DAHAN          C05328631 
1C580122085588W0037            201408060200005000000000NOR ASHIKIN BT MOHD DAHAN          C05328631 
1C580122085588W0037            201408410100416660008334NOR ASHIKIN BT MOHD DAHAN          C05328631 
0C580601016467W0037            201408000000833340083334KP02117731  05692918   K220119C7494C05373059 
1C580601016467W0037            201408410100666670016667MOHAN A/L NANU KPS 580602015677    C05373059 
0C580715045071W0037            201408000000897500089750KP02113087  08206971   K220119C7494C05441314 
1C580715045071W0037            201408010100030000000000LAM KAM POY                        C05441314 
1C580715045071W0037            201408060200005000000000LAM KAM POY                        C05441314 
1C580715045071W0037            201408410100750000011250LAM KAM POY                        C05441314 
0C580923075267W0037            201408000000035000003500KP02113000  08037582   K220119C7494C05497305 
1C580923075267W0037            201408010100030000000000MOHMAD SHOFI BIN OSMAN             C05497305 
1C580923075267W0037            201408060200005000000000MOHMAD SHOFI BIN OSMAN             C05497305 
0C581012105730W0037            201408000000035000003500KP02113744  08185449   K220119C7494C05488993 
1C581012105730W0037            201408010100030000000000ROHAINI BT IBRAHIM                 C05488993 
1C581012105730W0037            201408060200005000000000ROHAINI BT IBRAHIM                 C05488993 
0C581013025804W0037            201408000000035000003500KP02115032  08296659   K220119C7494C05478550 
1C581013025804W0037            201408010100030000000000LIM SIEW BIAN                      C05478550 
1C581013025804W0037            201408060200005000000000LIM SIEW BIAN                      C05478550 
0C590801106685W0037            201408000000379170037917KP02112710  08228678   K220119C7494C05747915 
1C590801106685W0037            201408410100291670008750AZAMI BIN BAHAR                    C05747915 
0C591015035239W0037            201408000000035000003500KP02117729  08428260   K220119C7494C05764106 
1C591015035239W0037            201408010100030000000000SHAMSUDDIN BIN JUSOH               C05764106 
1C591015035239W0037            201408060200005000000000SHAMSUDDIN BIN JUSOH               C05764106 
0C600213115186W0037            201408000000035000003500KP02118000  08279598   K220119C7494C05808375 
1C600213115186W0037            201408010100030000000000NORIAH BT HAMZAH                   C05808375 
1C600213115186W0037            201408060200005000000000NORIAH BT HAMZAH                   C05808375 
0C600316085995W0037            201408000000035000003500KP02111016  08032138   K220119C7494C05850545 
1C600316085995W0037            201408010100030000000000SHAMSUDDIN BIN HASSAN              C05850545 
1C600316085995W0037            201408060200005000000000SHAMSUDDIN BIN HASSAN              C05850545 
0C600429075718W0037            201408000000035000003500KP02113108  03307758   K220119C7494C05907596 
1C600429075718W0037            201408010100030000000000HUSNI BINTI ABDUL HADI             C05907596 
1C600429075718W0037            201408060200005000000000HUSNI BINTI ABDUL HADI             C05907596 
0C610104055419W0037            201408000000576670057667KP02111008  08011397   K220119C7494C06085038 
1C610104055419W0037            201408010100030000000000AIDIE BIN JANTAN                   C06085038 
1C610104055419W0037            201408060200005000000000AIDIE BIN JANTAN                   C06085038 
1C610104055419W0037            201408410100416670012500AIDIE BIN JANTAN                   C06085038 
0C610708065036W0037            201408000000236390023639KP02115037  08225674   K220119C7494C06250602 
1C610708065036W0037            201408010100030000000000MIZAN BINTI BAKAR                  C06250602 
1C610708065036W0037            201408060200005000000000MIZAN BINTI BAKAR                  C06250602 
1C610708065036W0037            201408410100138890006250MIZAN BINTI BAKAR                  C06250602 
0C620303106062W0037            201408000000758790075879KP02115704  60025483   K220119C7494C06090178 
1C620303106062W0037            201408010100030000000000KHATIJAH BT ABDUL RASHID           C06090178 
1C620303106062W0037            201408060200005000000000KHATIJAH BT ABDUL RASHID           C06090178 
1C620303106062W0037            201408410100050000000250KHATIJAH BT ABDUL RASHID           C06090178 
1C620303106062W0037            201408460100462960020833KHATIJAH BT ABDUL RASHID           C06090178 
0C620620035413W0037            201408000000035000003500KP02111016  08385874   K220119C7494C06851472 
1C620620035413W0037            201408010100030000000000MOHD AZEMI BIN MOHD                C06851472 
1C620620035413W0037            201408060200005000000000MOHD AZEMI BIN MOHD                C06851472 
0C630314075424W0037            201408000000035000003500KP02113746  08327736   K220119C7494C06955372 
1C630314075424W0037            201408010100030000000000HALIJAH BINTI ISMAIL               C06955372 
1C630314075424W0037            201408060200005000000000HALIJAH BINTI ISMAIL               C06955372 
0C630508085700W0037            201408000000035000003500KP02117042  08361677   K220119C7494C07046231 
1C630508085700W0037            201408010100030000000000ROSLINA BTE HAJI HASHIM            C07046231 
1C630508085700W0037            201408060200005000000000ROSLINA BTE HAJI HASHIM            C07046231 
0C630606045198W0037            201408000000035000003500KP02117738  06789150   K220119C7494C07179426 
1C630606045198W0037            201408010100030000000000SITI FARIDAH BINTI RAJA MOHAMED    C07179426 
1C630606045198W0037            201408060200005000000000SITI FARIDAH BINTI RAJA MOHAMED    C07179426 
0C630901085926W0037            201408000000035000003500KP02113110  03067949   K220119C7494C07109774 
1C630901085926W0037            201408010100030000000000HUMAIDAH BTE MOHAMAD ARSHAD        C07109774 
1C630901085926W0037            201408060200005000000000HUMAIDAH BTE MOHAMAD ARSHAD        C07109774 
0C631101085084W0037            201408000000088710008871KP02115021  08142812   K220119C7494C07193030 
1C631101085084W0037            201408010100030000000000NOR AIDA BINTI MUSTAFFA            C07193030 
1C631101085084W0037            201408060200005000000000NOR AIDA BINTI MUSTAFFA            C07193030 
1C631101085084W0037            201408410100037040001667NOR AIDA BINTI MUSTAFFA            C07193030 
0C640130045860W0037            201408000000285000028500KP02116705  02993772   K220119C7494C07176994 
1C640130045860W0037            201408010100030000000000AZIZAH BTE HASSAN                  C07176994 
1C640130045860W0037            201408060200005000000000AZIZAH BTE HASSAN                  C07176994 
1C640130045860W0037            201408410100166670008333AZIZAH BTE HASSAN                  C07176994 
0C640405108446W0037            201408000000292140029214KP02113040  08120305   K220119C7494          
1C640405108446W0037            201408010100030000000000CIK HANISAH BT MD SIDEK(KPS:6404061          
1C640405108446W0037            201408060200005000000000CIK HANISAH BT MD SIDEK(KPS:6404061          
1C640405108446W0037            201408410100190480006666CIK HANISAH BT MD SIDEK(KPS:6404061          
0C640814115014W0037            201408000000165000016500KP02117742  09107129   K220119C7494C07425645 
1C640814115014W0037            201408010100030000000000RUHANI BINTI SAID                  C07425645 
1C640814115014W0037            201408040100100000000000RUHANI BINTI SAID                  C07425645 
1C640814115014W0037            201408060200005000000000RUHANI BINTI SAID                  C07425645 
1C640814115014W0037            201408080100030000000000RUHANI BINTI SAID                  C07425645 
0C640914075726W0037            201408000000035000003500KP02113110  01747278   K220119C7494C07477846 
1C640914075726W0037            201408010100030000000000NORAINI BT FATHIL                  C07477846 
1C640914075726W0037            201408060200005000000000NORAINI BT FATHIL                  C07477846 
0C641026105661W0037            201408000000572040057204KP02112719  08468605   K220119C7494C07448273 
1C641026105661W0037            201408010100030000000000GOS HAMBALI BIN HJ ISMAIL @ AB RAHIC07448273 
1C641026105661W0037            201408060200005000000000GOS HAMBALI BIN HJ ISMAIL @ AB RAHIC07448273 
1C641026105661W0037            201408460100370370016667GOS HAMBALI BIN HJ ISMAIL @ AB RAHIC07448273 
0C650416125574W0037            201408000000618340061834KP02115049  08477317   K220119C7494CH0627457 
1C650416125574W0037            201408010100030000000000ZAHARAH BT ABDULLAH @ JAHARAH BT SUCH0627457 
1C650416125574W0037            201408060200005000000000ZAHARAH BT ABDULLAH @ JAHARAH BT SUCH0627457 
1C650416125574W0037            201408460100416670016667ZAHARAH BT ABDULLAH @ JAHARAH BT SUCH0627457 
0C651010025009W0037            201408000000335000033500KP02113791  03293792   K220119C7494CA0191379 
1C651010025009W0037            201408010100030000000000BADRUL HISHAM BIN BAHARI           CA0191379 
1C651010025009W0037            201408060200005000000000BADRUL HISHAM BIN BAHARI           CA0191379 
1C651010025009W0037            201408410100200000010000BADRUL HISHAM BIN BAHARI           CA0191379 
0C660425095046W0037            201408000000035000003500KP02112008  05579958   K220119C7494CA0425408 
1C660425095046W0037            201408010100030000000000SALIZA BT KAMALUDIN                CA0425408 
1C660425095046W0037            201408060200005000000000SALIZA BT KAMALUDIN                CA0425408 
0C661105105027W0037            201408000000035000003500KP02111037  06163752   K220119C7494CA0536729 
1C661105105027W0037            201408010100030000000000SHAMSURI BIN JAMIL                 CA0536729 
1C661105105027W0037            201408060200005000000000SHAMSURI BIN JAMIL                 CA0536729 
0C670306105554W0037            201408000000035000003500KP02112727  09510405   K220119C7494CA0646295 
1C670306105554W0037            201408010100030000000000RAFIDAH BTE SULAIMAN               CA0646295 
1C670306105554W0037            201408060200005000000000RAFIDAH BTE SULAIMAN               CA0646295 
0C680322106118W0037            201408000000035000003500KP02111015  08366494   K220119C7494CA0942670 
1C680322106118W0037            201408010100030000000000JURAIDAH BT JALALUDDIN             CA0942670 
1C680322106118W0037            201408060200005000000000JURAIDAH BT JALALUDDIN             CA0942670 
0C680706106854W0037            201408000000035000003500KP02117738  08344186   K220119C7494CA1106695 
1C680706106854W0037            201408010100030000000000ISNATUL ABZA BTE ISHAK             CA1106695 
1C680706106854W0037            201408060200005000000000ISNATUL ABZA BTE ISHAK             CA1106695 
0C680808035268W0037            201408000000035000003500KP02113009  20029015   K220119C7494CA1071747 
1C680808035268W0037            201408010100030000000000SABARIAH BINTI LATIFF              CA1071747 
1C680808035268W0037            201408060200005000000000SABARIAH BINTI LATIFF              CA1071747 
0C680930035624W0037            201408000000035000003500KP02113110  03556966   K220119C7494CA1040490 
1C680930035624W0037            201408010100030000000000JASNIZA BINTI MAT @  MOHAMED       CA1040490 
1C680930035624W0037            201408060200005000000000JASNIZA BINTI MAT @  MOHAMED       CA1040490 
0C690523045242W0037            201408000000035000003500KP02113121  06580369   K220119C7494CA1293390 
1C690523045242W0037            201408010100030000000000JASIMAH BINTI JUMAAT               CA1293390 
1C690523045242W0037            201408060200005000000000JASIMAH BINTI JUMAAT               CA1293390 
0C700729105702W0037            201408000000035000003500KP02118005  08426751   K220119C7494CA1471050 
1C700729105702W0037            201408010100030000000000SH ZUKHAIREEN SHAHABUDIN BT SY ZULFCA1471050 
1C700729105702W0037            201408060200005000000000SH ZUKHAIREEN SHAHABUDIN BT SY ZULFCA1471050 
0C701025065321W0037            201408000000035000003500KP02117062  09656398   K220119C7494CA1716402 
1C701025065321W0037            201408010100030000000000MOHANARAJAH A/L RAMAIAH            CA1716402 
1C701025065321W0037            201408060200005000000000MOHANARAJAH A/L RAMAIAH            CA1716402 
0C710728085032W0037            201408000000385000038500KP02114178  20436252   K220119C7494CA1964162 
1C710728085032W0037            201408010100030000000000NURSALINA BINTI ABDUL MUTALLIB     CA1964162 
1C710728085032W0037            201408060200005000000000NURSALINA BINTI ABDUL MUTALLIB     CA1964162 
1C710728085032W0037            201408410100233340011666NURSALINA BINTI ABDUL MUTALLIB     CA1964162 
0C710815085516W0037            201408000000222500022250KP02113761  09326513   K220119C7494CA1942058 
1C710815085516W0037            201408010100030000000000ZAKIAH BINTI YAACOB                CA1942058 
1C710815085516W0037            201408060200005000000000ZAKIAH BINTI YAACOB                CA1942058 
1C710815085516W0037            201408410100125000006250ZAKIAH BINTI YAACOB                CA1942058 
0C711220045317W0037            201408000000385010038501KP02113110  08436958   K220119C7494CA2014336 
1C711220045317W0037            201408010100030000000000AHMAD NASARUDDIN BIN SALAM         CA2014336 
1C711220045317W0037            201408060200005000000000AHMAD NASARUDDIN BIN SALAM         CA2014336 
1C711220045317W0037            201408410100233340011667AHMAD NASARUDDIN BIN SALAM         CA2014336 
0C730904065128W0037            201408000000243330024333KP02113098  06152250   K220119C7494CA2462849 
1C730904065128W0037            201408010100030000000000SHARIFAH NOR FAIZA BT SYED MAHMUD  CA2462849 
1C730904065128W0037            201408060200005000000000SHARIFAH NOR FAIZA BT SYED MAHMUD  CA2462849 
1C730904065128W0037            201408410100166660004167SHARIFAH NOR FAIZA BT SYED MAHMUD  CA2462849 
0C740202025390W0037            201408000000235000023500KP02113110  09582016   K220119C7494CA2748961 
1C740202025390W0037            201408010100030000000000NOOR ASYIKIN BINTI NAN             CA2748961 
1C740202025390W0037            201408060200005000000000NOOR ASYIKIN BINTI NAN             CA2748961 
1C740202025390W0037            201408410100133330006667NOOR ASYIKIN BINTI NAN             CA2748961 
0C740417125612W0037            201408000000083330008333KP02113040  10857951   K220119C7494CH0871268 
1C740417125612W0037            201408410100066660001667ARIJAH BINTI SOCTLE                CH0871268 
0C750913135122W0037            201408000000035000003500KP02113110  20269319   K220119C7494CK0458477 
1C750913135122W0037            201408010100030000000000THERESA ANAK JUSTINE BUENG         CK0458477 
1C750913135122W0037            201408060200005000000000THERESA ANAK JUSTINE BUENG         CK0458477 
0C760103115620W0037            201408000000035000003500KP02113110  20269314   K220119C7494CA3280355 
1C760103115620W0037            201408010100030000000000SHAZLINA BINTI SHAMSUDIN           CA3280355 
1C760103115620W0037            201408060200005000000000SHAZLINA BINTI SHAMSUDIN           CA3280355 
0C760218065192W0037            201408000000035000003500KP02113110  20269309   K220119C7494CA3229420 
1C760218065192W0037            201408010100030000000000NORAZLIN BT SAHARUDIN              CA3229420 
1C760218065192W0037            201408060200005000000000NORAZLIN BT SAHARUDIN              CA3229420 
0C770116035792W0037            201408000000035000003500KP02113110  20149819   K220119C7494          
1C770116035792W0037            201408010100030000000000OMEEHAZRINA BINTI OMAR                       
1C770116035792W0037            201408060200005000000000OMEEHAZRINA BINTI OMAR                       
0C771012115506W0037            201408000000035000003500KP02113110  20110439   K220119C7494CA3871248 
1C771012115506W0037            201408010100030000000000RAHIMAH BINTI SULONG               CA3871248 
1C771012115506W0037            201408060200005000000000RAHIMAH BINTI SULONG               CA3871248 
0C780119115404W0037            201408000000035000003500KP02113110  20269298   K220119C7494          
1C780119115404W0037            201408010100030000000000JASMALIA SHAFINI BINTI CHE KU JALIL          
1C780119115404W0037            201408060200005000000000JASMALIA SHAFINI BINTI CHE KU JALIL          
0C780323075294W0037            201408000000243340024334KP02113040  20014227   K220119C7494          
1C780323075294W0037            201408010100030000000000SITI NORKHAMSIAH BT MHD BAKHIR               
1C780323075294W0037            201408060200005000000000SITI NORKHAMSIAH BT MHD BAKHIR               
1C780323075294W0037            201408410100166670004167SITI NORKHAMSIAH BT MHD BAKHIR               
0C780629105206W0037            201408000000660000066000KP02112111  20210067   K220119C7494          
1C780629105206W0037            201408010100030000000000SITI NUR AISYAH BINTI MUSTAPHA               
1C780629105206W0037            201408060200005000000000SITI NUR AISYAH BINTI MUSTAPHA               
1C780629105206W0037            201408460100416660020834SITI NUR AISYAH BINTI MUSTAPHA               
0C781209025116W0037            201408000000160000016000KP02112048  20113028   K220119C7494          
1C781209025116W0037            201408010100030000000000WAN NOOR HIDAYATI BINTI WAN HASANI           
1C781209025116W0037            201408060200005000000000WAN NOOR HIDAYATI BINTI WAN HASANI           
1C781209025116W0037            201408410100083330004167WAN NOOR HIDAYATI BINTI WAN HASANI           
0C781230075126W0037            201408000000035000003500KP02113110  20269316   K220119C7494          
1C781230075126W0037            201408010100030000000000SOHAINI BINTI REJAB                          
1C781230075126W0037            201408060200005000000000SOHAINI BINTI REJAB                          
0C790309035180W0037            201408000000472510047251KP02113110  09966466   K220119C7494          
1C790309035180W0037            201408010100030000000000RITA WIZURA BTE CHE OMAR                     
1C790309035180W0037            201408060200005000000000RITA WIZURA BTE CHE OMAR                     
1C790309035180W0037            201408460100291670014584RITA WIZURA BTE CHE OMAR                     
0C790829075020W0037            201408000000035000003500KP02113018  20197988   K220119C7494          
1C790829075020W0037            201408010100030000000000AZLINA BT ABD HAMID                          
1C790829075020W0037            201408060200005000000000AZLINA BT ABD HAMID                          
0C801217085413W0037            201408000000035000003500KP02113110  20269300   K220119C7494          
1C801217085413W0037            201408010100030000000000MOHD AZLI SHAHRIL BIN MOHD SUPIAN            
1C801217085413W0037            201408060200005000000000MOHD AZLI SHAHRIL BIN MOHD SUPIAN            
0C810130015679W0037            201408000000035000003500KP02113110  20103672   K220119C7494          
1C810130015679W0037            201408010100030000000000MOHD HAIRUL NIZAM BIN MD SAH                 
1C810130015679W0037            201408060200005000000000MOHD HAIRUL NIZAM BIN MD SAH                 
0C810216145431W0037            201408000000215560021556KP02113040  08842742   K220119C7494          
1C810216145431W0037            201408010100030000000000RIDHAUDDIN BIN HASBULLAH                     
1C810216145431W0037            201408060200005000000000RIDHAUDDIN BIN HASBULLAH                     
1C810216145431W0037            201408410100138890004167RIDHAUDDIN BIN HASBULLAH                     
0C810520035296W0037            201408000000035000003500KP02113110  20269305   K220119C7494          
1C810520035296W0037            201408010100030000000000NAZIHAH BINTI YUSUF                          
1C810520035296W0037            201408060200005000000000NAZIHAH BINTI YUSUF                          
0C811203025056W0037            201408000000397500039750KP02113089  20192910   K220119C7494          
1C811203025056W0037            201408010100030000000000NOOR ARISZATON BINTI ISHAK                   
1C811203025056W0037            201408060200005000000000NOOR ARISZATON BINTI ISHAK                   
1C811203025056W0037            201408410100241670012083NOOR ARISZATON BINTI ISHAK                   
0C821214035486W0037            201408000000185000018500KP02112718  20133504   K220119C7494          
1C821214035486W0037            201408010100030000000000SEILY ASWANIE BINTI OTHMAN                   
1C821214035486W0037            201408060200005000000000SEILY ASWANIE BINTI OTHMAN                   
1C821214035486W0037            201408410100100000005000SEILY ASWANIE BINTI OTHMAN                   
0C830523035548W0037            201408000000035000003500KP02113110  20242362   K220119C7494          
1C830523035548W0037            201408010100030000000000ROZILAWATI BINTI SAAD                        
1C830523035548W0037            201408060200005000000000ROZILAWATI BINTI SAAD                        
0C830831145992W0037            201408000000035000003500KP02115705  20096667   K220119C7494          
1C830831145992W0037            201408010100030000000000VASANTHI A/P PERMAL                          
1C830831145992W0037            201408060200005000000000VASANTHI A/P PERMAL                          
0C840408035269W0037            201408000000035000003500KP02113110  20269297   K220119C7494          
1C840408035269W0037            201408010100030000000000ABDUL HISHAM BIN ABDULLAH                    
1C840408035269W0037            201408060200005000000000ABDUL HISHAM BIN ABDULLAH                    
0C840505115527W0037            201408000000035000003500KP02113773  20206840   K220119C7494          
1C840505115527W0037            201408010100030000000000MOHAMMAD RAQI BIN MOHAMMAD SHAPIEN           
1C840505115527W0037            201408060200005000000000MOHAMMAD RAQI BIN MOHAMMAD SHAPIEN           
0C850821085234W0037            201408000000035000003500KP02113150  20341661   K220119C7494          
1C850821085234W0037            201408010100030000000000NORANIDA BINTI MOHD NOR                      
1C850821085234W0037            201408060200005000000000NORANIDA BINTI MOHD NOR                      
0C860407385310W0037            201408000000035000003500KP02112721  20332230   K220119C7494          
1C860407385310W0037            201408010100030000000000MOGANA DEVI A/P RAMACHANDRAN                 
1C860407385310W0037            201408060200005000000000MOGANA DEVI A/P RAMACHANDRAN                 
0C600322715156W0037-           201408000000035000003500KP02113713  08129496   K220119C7494C05822905 
1C600322715156W0037-           201408010100030000000000NORMAH BINTI OTHMAN                C05822905 
1C600322715156W0037-           201408060200005000000000NORMAH BINTI OTHMAN                C05822905 
0C610926086396W0037-           201408000000706300070630KP02117720  08175135   K220119C7494C06319656 
1C610926086396W0037-           201408010100030000000000NOOR HASIMAH BT ABU BAKAR          C06319656 
1C610926086396W0037-           201408060200005000000000NOOR HASIMAH BT ABU BAKAR          C06319656 
1C610926086396W0037-           201408460100462960020834NOOR HASIMAH BT ABU BAKAR          C06319656 
0C720601055046W0037-           201408000000035000003500KP02111030  08523003   K220119C7494CA2222571 
1C720601055046W0037-           201408010100030000000000NORHAYATI BTE  MAHADI              CA2222571 
1C720601055046W0037-           201408060200005000000000NORHAYATI BTE  MAHADI              CA2222571 
0C730218045004W0037-           201408000000035000003500KP02118000  11440492   K220119C7494CA2397786 
1C730218045004W0037-           201408010100030000000000HAZNITA BINTI HUSIN                CA2397786 
1C730218045004W0037-           201408060200005000000000HAZNITA BINTI HUSIN                CA2397786 
0C741001035693W0037-           201408000000035000003500KP02113110  20269317   K220119C7494CA2783845 
1C741001035693W0037-           201408010100030000000000SUHAIMI BIN MD RAHIM               CA2783845 
1C741001035693W0037-           201408060200005000000000SUHAIMI BIN MD RAHIM               CA2783845 
0C750215065083W0037-           201408000000035000003500KP02113110  08592156   K220119C7494CA3029191 
1C750215065083W0037-           201408010100030000000000ROSLI BIN JUHARI @ ZAHARI          CA3029191 
1C750215065083W0037-           201408060200005000000000ROSLI BIN JUHARI @ ZAHARI          CA3029191 
0C750327026521W0037-           201408000000035000003500KP02113110  20012831   K220119C7494CA3082359 
1C750327026521W0037-           201408010100030000000000AHMAD SHAUKI BIN SEPIAN            CA3082359 
1C750327026521W0037-           201408060200005000000000AHMAD SHAUKI BIN SEPIAN            CA3082359 
0C760925145677W0037-           201408000000035000003500KP02113110  20217161   K220119C7494CA3526630 
1C760925145677W0037-           201408010100030000000000MOHAMAD RASHID BIN OTHMAN          CA3526630 
1C760925145677W0037-           201408060200005000000000MOHAMAD RASHID BIN OTHMAN          CA3526630 
0C780827145604W0037-           201408000000035000003500KP02113110  08625428   K220119C7494          
1C780827145604W0037-           201408010100030000000000NORAINI BINTI MISNAN                         
1C780827145604W0037-           201408060200005000000000NORAINI BINTI MISNAN                         
0C790715035290W0037-           201408000000035000003500KP02113110  20029463   K220119C7494          
1C790715035290W0037-           201408010100030000000000CHE HASMAMIZAH BINTI CHE HASSAN              
1C790715035290W0037-           201408060200005000000000CHE HASMAMIZAH BINTI CHE HASSAN              
0C791030075366W0037-           201408000000035000003500KP02113110  08773699   K220119C7494          
1C791030075366W0037-           201408010100030000000000AFIZAH BINTI ABU BAKAR                       
1C791030075366W0037-           201408060200005000000000AFIZAH BINTI ABU BAKAR                       
0C810617035399W0037-           201408000000035000003500KP02113110  20121052   K220119C7494          
1C810617035399W0037-           201408010100030000000000MOHD KAMARUDDIN BIN MOHD MAKHTAR             
1C810617035399W0037-           201408060200005000000000MOHD KAMARUDDIN BIN MOHD MAKHTAR             
0C840427075530W0037-           201408000000035000003500KP02113110  20193871   K220119C7494          
1C840427075530W0037-           201408010100030000000000NURHAFIZZA BINTI GHAZALI                     
1C840427075530W0037-           201408060200005000000000NURHAFIZZA BINTI GHAZALI                     
0C860713265042W0037-           201408000000035000003500KP02113110  20261658   K220119C7494          
1C860713265042W0037-           201408010100030000000000NOORHIDAYAH BINTI ABD AZIZ                   
1C860713265042W0037-           201408060200005000000000NOORHIDAYAH BINTI ABD AZIZ                   
0C871212045109W0037-           201408000000035000003500KP02118007  20346511   K220119C7494          
1C871212045109W0037-           201408010100030000000000MD JAIS BIN ISMAIL                           
1C871212045109W0037-           201408060200005000000000MD JAIS BIN ISMAIL                           
0C640207106482W003700559       201408000000145000014500KP02111037  09090739   K220119C7494C07310987 
1C640207106482W003700559       201408010100030000000000NORAIZAN BINTI HJ NOOR             C07310987 
1C640207106482W003700559       201408040100100000000000NORAIZAN BINTI HJ NOOR             C07310987 
1C640207106482W003700559       201408060200005000000000NORAIZAN BINTI HJ NOOR             C07310987 
1C640207106482W003700559       201408080100010000000000NORAIZAN BINTI HJ NOOR             C07310987 
0C590920105730W003700727       201408000002660000266000KP02113146  08206823   K220119C7494C05760488 
1C590920105730W003700727       201408010100030000000000NOR AISHAH BTI ASADUR RAHMAN       C05760488 
1C590920105730W003700727       201408060200005000000000NOR AISHAH BTI ASADUR RAHMAN       C05760488 
1C590920105730W003700727       201408410102500000012500NOR AISHAH BTI ASADUR RAHMAN       C05760488 
0C741006085972W003701271       201408000000535010053501KP02113110  20012846   K220119C7494CA2848702 
1C741006085972W003701271       201408010100030000000000HASNIZA BINTI HASMAWI              CA2848702 
1C741006085972W003701271       201408060200005000000000HASNIZA BINTI HASMAWI              CA2848702 
1C741006085972W003701271       201408460100333340016667HASNIZA BINTI HASMAWI              CA2848702 
