0C581210125433W0037            2014080000001850000185000822110082  04822318   K218793C7491CH0168992 
1C581210125433W0037            201408010100030000000000SALAMUN BIN ALI                    CH0168992 
1C581210125433W0037            201408060200005000000000SALAMUN BIN ALI                    CH0168992 
1C581210125433W0037            201408410100125000002500SALAMUN BIN ALI                    CH0168992 
0C640313125353W0037            2014080000003303800330380822110084  60048423   K218793C7491CH0683461 
1C640313125353W0037            201408010100030000000000ABDUL HAMID BIN RAHIM              CH0683461 
1C640313125353W0037            201408060200005000000000ABDUL HAMID BIN RAHIM              CH0683461 
1C640313125353W0037            201408410100203710009167ABDUL HAMID BIN RAHIM              CH0683461 
0C671001125321W0037            2014080000000350000035000822110200  60046773   K218793C7491CH0720272 
1C671001125321W0037            201408010100030000000000ROSLAN BIN DIMING                  CH0720272 
1C671001125321W0037            201408060100005000000000ROSLAN BIN DIMING                  CH0720272 
0C880906086604W0037            2014080000005975000597500822110194  20449048   K218793C7491          
1C880906086604W0037            201408010100030000000000NOOR FARHANA BINTI ABD RAHMAN                
1C880906086604W0037            201408060200005000000000NOOR FARHANA BINTI ABD RAHMAN                
1C880906086604W0037            201408460100375000018750NOOR FARHANA BINTI ABD RAHMAN                
