0C550212115077W0037            201408000000035000003500TA02110670  03293800   K222807C7501C04716920 
1C550212115077W0037            201408010100030000000000ABDUL JALIL BIN ALI                C04716920 
1C550212115077W0037            201408060200005000000000ABDUL JALIL BIN ALI                C04716920 
0C550516016115W0037            201408000000035000003500TA02110614  03273760   K222807C7501C04854502 
1C550516016115W0037            201408010100030000000000SABTU BIN AHMAD                    C04854502 
1C550516016115W0037            201408060100005000000000SABTU BIN AHMAD                    C04854502 
0C590516115478W0037            201408000000118330011833TA02110675  03230257   K222807C7501C05640802 
1C590516115478W0037            201408010100030000000000CIK FARIDAH BT CHE HASHIM          C05640802 
1C590516115478W0037            201408060200005000000000CIK FARIDAH BT CHE HASHIM          C05640802 
1C590516115478W0037            201408410100066670001666CIK FARIDAH BT CHE HASHIM          C05640802 
0C621206115148W0037            201408000000035000003500TA02110201  03271830   K222807C7501C06876226 
1C621206115148W0037            201408010100030000000000NOREHAN BT SULONG                  C06876226 
1C621206115148W0037            201408060200005000000000NOREHAN BT SULONG                  C06876226 
0C660106036460W0037            201408000000165000016500TA02110336  08434250   K222807C7501CA0325394 
1C660106036460W0037            201408010100030000000000ROHANA BINTI MAT ALI               CA0325394 
1C660106036460W0037            201408040100100000000000ROHANA BINTI MAT ALI               CA0325394 
1C660106036460W0037            201408060200005000000000ROHANA BINTI MAT ALI               CA0325394 
1C660106036460W0037            201408080100030000000000ROHANA BINTI MAT ALI               CA0325394 
0C670107115020W0037            201408000000165000016500TA02110670  09780255   K222807C7501CA0527557 
1C670107115020W0037            201408010100030000000000WAN ZAINUN BINTI WAN JUNAIDI       CA0527557 
1C670107115020W0037            201408040100100000000000WAN ZAINUN BINTI WAN JUNAIDI       CA0527557 
1C670107115020W0037            201408060200005000000000WAN ZAINUN BINTI WAN JUNAIDI       CA0527557 
1C670107115020W0037            201408080100030000000000WAN ZAINUN BINTI WAN JUNAIDI       CA0527557 
0C691013035604W0037            201408000000165000016500TA02110670  11107778   K222807C7501CA1396056 
1C691013035604W0037            201408010100030000000000ZAMZURAINU BT AZHARI               CA1396056 
1C691013035604W0037            201408040100100000000000ZAMZURAINU BT AZHARI               CA1396056 
1C691013035604W0037            201408060200005000000000ZAMZURAINU BT AZHARI               CA1396056 
1C691013035604W0037            201408080100030000000000ZAMZURAINU BT AZHARI               CA1396056 
0C700507115622W0037            201408000000085000008500TA02110660  11151354   K222807C7501CA1526996 
1C700507115622W0037            201408010100030000000000ZARINA BINTI A.BAKAR               CA1526996 
1C700507115622W0037            201408060200005000000000ZARINA BINTI A.BAKAR               CA1526996 
1C700507115622W0037            201408410100033330001667ZARINA BINTI A.BAKAR               CA1526996 
0C730415086569W0037            201408000000118330011833TA02110609  11123973   K222807C7501CA2354597 
1C730415086569W0037            201408010100030000000000SYED MOHD AL-AMIN BIN TUAN SHARIF  CA2354597 
1C730415086569W0037            201408060200005000000000SYED MOHD AL-AMIN BIN TUAN SHARIF  CA2354597 
1C730415086569W0037            201408410100066670001666SYED MOHD AL-AMIN BIN TUAN SHARIF  CA2354597 
0C740627115092W0037            201408000000165000016500TA02110670  14913198   K222807C7501CA2881602 
1C740627115092W0037            201408010100030000000000ZAINON BINTI HAMAT                 CA2881602 
1C740627115092W0037            201408040100100000000000ZAINON BINTI HAMAT                 CA2881602 
1C740627115092W0037            201408060200005000000000ZAINON BINTI HAMAT                 CA2881602 
1C740627115092W0037            201408080100030000000000ZAINON BINTI HAMAT                 CA2881602 
0C750707115278W0037            201408000000165000016500TA02110670  08723868   K222807C7501CA3101845 
1C750707115278W0037            201408010100030000000000NOOR ASIDAH BINTI HUSSIN           CA3101845 
1C750707115278W0037            201408040100100000000000NOOR ASIDAH BINTI HUSSIN           CA3101845 
1C750707115278W0037            201408060200005000000000NOOR ASIDAH BINTI HUSSIN           CA3101845 
1C750707115278W0037            201408080100030000000000NOOR ASIDAH BINTI HUSSIN           CA3101845 
0C760104115788W0037            201408000000165000016500TA02110670  11211877   K222807C7501CA3280290 
1C760104115788W0037            201408010100030000000000MASNALIZA BINTI RAMLI              CA3280290 
1C760104115788W0037            201408040100100000000000MASNALIZA BINTI RAMLI              CA3280290 
1C760104115788W0037            201408060200005000000000MASNALIZA BINTI RAMLI              CA3280290 
1C760104115788W0037            201408080100030000000000MASNALIZA BINTI RAMLI              CA3280290 
0C770409035008W0037            201408000000085000008500TA02110908  09986167   K222807C7501CA3608015 
1C770409035008W0037            201408010100030000000000NOORMA BT NOR                      CA3608015 
1C770409035008W0037            201408060200005000000000NOORMA BT NOR                      CA3608015 
1C770409035008W0037            201408410100033330001667NOORMA BT NOR                      CA3608015 
0C770505115518W0037            201408000000165000016500TA02110670  10904449   K222807C7501CA3717035 
1C770505115518W0037            201408010100030000000000ROSNITA BINTI MANSOR               CA3717035 
1C770505115518W0037            201408040100100000000000ROSNITA BINTI MANSOR               CA3717035 
1C770505115518W0037            201408060200005000000000ROSNITA BINTI MANSOR               CA3717035 
1C770505115518W0037            201408080100030000000000ROSNITA BINTI MANSOR               CA3717035 
0C780921035516W0037            201408000000165000016500TA02110670  20193138   K222807C7501          
1C780921035516W0037            201408010100030000000000RUSLINA BT RAMLI                             
1C780921035516W0037            201408040100100000000000RUSLINA BT RAMLI                             
1C780921035516W0037            201408060200005000000000RUSLINA BT RAMLI                             
1C780921035516W0037            201408080100030000000000RUSLINA BT RAMLI                             
0C801126035373W0037            201408000000165000016500TA02110670  20132688   K222807C7501          
1C801126035373W0037            201408010100030000000000ZULKARNAIN BIN DIN                           
1C801126035373W0037            201408040100100000000000ZULKARNAIN BIN DIN                           
1C801126035373W0037            201408060200005000000000ZULKARNAIN BIN DIN                           
1C801126035373W0037            201408080100030000000000ZULKARNAIN BIN DIN                           
0C810913115190W0037            201408000000165000016500TA02110670  11699758   K222807C7501          
1C810913115190W0037            201408010100030000000000SHARIFAH AYUNI BINTI SYED MUSTAFFA           
1C810913115190W0037            201408040100100000000000SHARIFAH AYUNI BINTI SYED MUSTAFFA           
1C810913115190W0037            201408060200005000000000SHARIFAH AYUNI BINTI SYED MUSTAFFA           
1C810913115190W0037            201408080100030000000000SHARIFAH AYUNI BINTI SYED MUSTAFFA           
0C820526115050W0037            201408000000165000016500TA02110670  20127983   K222807C7501          
1C820526115050W0037            201408010100030000000000SITI NASRAH BINTI DAUD                       
1C820526115050W0037            201408040100100000000000SITI NASRAH BINTI DAUD                       
1C820526115050W0037            201408060200005000000000SITI NASRAH BINTI DAUD                       
1C820526115050W0037            201408080100030000000000SITI NASRAH BINTI DAUD                       
0C820822035354W0037            201408000000165000016500TA02110336  20068633   K222807C7501          
1C820822035354W0037            201408010100030000000000HASNIZAN BINTI MAT YASIM                     
1C820822035354W0037            201408040100100000000000HASNIZAN BINTI MAT YASIM                     
1C820822035354W0037            201408060200005000000000HASNIZAN BINTI MAT YASIM                     
1C820822035354W0037            201408080100030000000000HASNIZAN BINTI MAT YASIM                     
0C830328115876W0037            201408000000165000016500TA02110670  20360395   K222807C7501          
1C830328115876W0037            201408010100030000000000AINI YUSNITA BINTI NAWI                      
1C830328115876W0037            201408040100100000000000AINI YUSNITA BINTI NAWI                      
1C830328115876W0037            201408060200005000000000AINI YUSNITA BINTI NAWI                      
1C830328115876W0037            201408080100030000000000AINI YUSNITA BINTI NAWI                      
0C840419115352W0037            201408000000085000008500TA02110664  11248168   K222807C7501          
1C840419115352W0037            201408010100030000000000ZAKIAH BINTI ABU BAKAR                       
1C840419115352W0037            201408060200005000000000ZAKIAH BINTI ABU BAKAR                       
1C840419115352W0037            201408410100033330001667ZAKIAH BINTI ABU BAKAR                       
0C861003465474W0037            201408000000165000016500TA02110336  20328928   K222807C7501          
1C861003465474W0037            201408010100030000000000DHARLIANA AKMA BINTI DOLLAH                  
1C861003465474W0037            201408040100100000000000DHARLIANA AKMA BINTI DOLLAH                  
1C861003465474W0037            201408060200005000000000DHARLIANA AKMA BINTI DOLLAH                  
1C861003465474W0037            201408080100030000000000DHARLIANA AKMA BINTI DOLLAH                  
