0C541022106263W0037            201408000000035000003500BA02110410  08136582   K225170C7509C04702722 
1C541022106263W0037            201408010100030000000000OMAR BIN ABAS                      C04702722 
1C541022106263W0037            201408060200005000000000OMAR BIN ABAS                      C04702722 
0C541201045304W0037            201408000002326670232667BA02110461  08050338   K225170C7509C04713533 
1C541201045304W0037            201408010100030000000000JAMILAH BINTI ALI                  C04713533 
1C541201045304W0037            201408060200005000000000JAMILAH BINTI ALI                  C04713533 
1C541201045304W0037            201408410102083340020833JAMILAH BINTI ALI                  C04713533 
0C590217085993W0037            201408000000035000003500BA02110157  05422472   K225170C7509C05614558 
1C590217085993W0037            201408010100030000000000BAKRI BIN DARUS                    C05614558 
1C590217085993W0037            201408060200005000000000BAKRI BIN DARUS                    C05614558 
0C600717115171W0037            201408000000035000003500BA02110571  60008098   K225170C7509C05979440 
1C600717115171W0037            201408010100030000000000ZULKIFLI BIN ISMAIL                C05979440 
1C600717115171W0037            201408060200005000000000ZULKIFLI BIN ISMAIL                C05979440 
0C600814065356W0037            201408000000035000003500BA02110123  05386156   K225170C7509C05963898 
1C600814065356W0037            201408010100030000000000PN ZALIHA BT AHMAD                 C05963898 
1C600814065356W0037            201408060200005000000000PN ZALIHA BT AHMAD                 C05963898 
0C601108035293W0037            201408000000035000003500BA02110461  08005746   K225170C7509C06051537 
1C601108035293W0037            201408010100030000000000MOHSSIN BIN SHEKH MOHAMED          C06051537 
1C601108035293W0037            201408060200005000000000MOHSSIN BIN SHEKH MOHAMED          C06051537 
0C671115105572W0037            201408000000035000003500BA02110123  09062712   K225170C7509CA0860966 
1C671115105572W0037            201408010100030000000000NOOR LIZAH BINTI OSMAN             CA0860966 
1C671115105572W0037            201408060200005000000000NOOR LIZAH BINTI OSMAN             CA0860966 
0C680404086464W0037            201408000000035000003500BA02110608  08428062   K225170C7509CA0952938 
1C680404086464W0037            201408010100030000000000SALEHAH BT MOHD KHALI              CA0952938 
1C680404086464W0037            201408060200005000000000SALEHAH BT MOHD KHALI              CA0952938 
0C690503015476W0037            201408000000035000003500BA02110206  06110548   K225170C7509CA1382628 
1C690503015476W0037            201408010100030000000000RAJALETCHUMI A/P VENGATTA RAMAN    CA1382628 
1C690503015476W0037            201408060200005000000000RAJALETCHUMI A/P VENGATTA RAMAN    CA1382628 
0C780301065722W0037            201408000000035000003500BA02110603  20037060   K225170C7509          
1C780301065722W0037            201408010100030000000000RIZWA BINTI MOHAMED SHAHIRI                  
1C780301065722W0037            201408060200005000000000RIZWA BINTI MOHAMED SHAHIRI                  
0C780320035828W0037            201408000000035000003500BA02110123  60033811   K225170C7509CA3973620 
1C780320035828W0037            201408010100030000000000NOOR AZLILYAYATI BINTI MAT ZIN     CA3973620 
1C780320035828W0037            201408060200005000000000NOOR AZLILYAYATI BINTI MAT ZIN     CA3973620 
0C800727086550W0037            201408000000691250069125BA02110461  15247810   K225170C7509          
1C800727086550W0037            201408010100030000000000NOR AZIAN BINTI AHMAD SUBKI                  
1C800727086550W0037            201408060200005000000000NOR AZIAN BINTI AHMAD SUBKI                  
1C800727086550W0037            201408460100468750018750NOR AZIAN BINTI AHMAD SUBKI                  
0C830118085058W0037            201408000000035000003500BA02110125  20224048   K225170C7509          
1C830118085058W0037            201408010100030000000000ZULIANA BINTI ZOLKAFLI                       
1C830118085058W0037            201408060200005000000000ZULIANA BINTI ZOLKAFLI                       
0C840503085010W0037            201408000000035000003500BA02110279  20130042   K225170C7509          
1C840503085010W0037            201408010100030000000000RAJA NURUL EMILEEN BINTI R ZAINAL            
1C840503085010W0037            201408060200005000000000RAJA NURUL EMILEEN BINTI R ZAINAL            
0C850114105398W0037            201408000000035000003500BA02110123  20205057   K225170C7509          
1C850114105398W0037            201408010100030000000000SITI NORAINON BINTI JAMALUDIN                
1C850114105398W0037            201408060200005000000000SITI NORAINON BINTI JAMALUDIN                
0C850816105122W0037            201408000000035000003500BA02110308  20263804   K225170C7509          
1C850816105122W0037            201408010100030000000000NOORSYAHADA BINTI SURIF                      
1C850816105122W0037            201408060200005000000000NOORSYAHADA BINTI SURIF                      
0C600711045395W003700410       201408000000121670012167BA02110158  05418744   K225170C7509C06045821 
1C600711045395W003700410       201408010100030000000000ABDULLAH B BUTUN                   C06045821 
1C600711045395W003700410       201408060200005000000000ABDULLAH B BUTUN                   C06045821 
1C600711045395W003700410       201408420100083330000334ABDULLAH B BUTUN                   C06045821 
0C610525106413W003700672       201408000000035000003500BA02110332  09001850   K225170C7509C06238548 
1C610525106413W003700672       201408010100030000000000E`AJIS BIN HJ JAAFAR               C06238548 
1C610525106413W003700672       201408060200005000000000E`AJIS BIN HJ JAAFAR               C06238548 
0C720129105707W0037039         201408000000035000003500BA02110569  05431572   K225170C7509CA2104610 
1C720129105707W0037039         201408010100030000000000SUHAIMI BIN SABRAN                 CA2104610 
1C720129105707W0037039         201408060200005000000000SUHAIMI BIN SABRAN                 CA2104610 
