0C541009025143W0037            201408000000035000003500KA02110839  03059912   K224399C7508C04689943 
1C541009025143W0037            201408010100030000000000MARDZUKI B DARUS                   C04689943 
1C541009025143W0037            201408060200005000000000MARDZUKI B DARUS                   C04689943 
0C560929025393W0037            201408000000910000091000KA02110502  01445014   K224399C7508C05058626 
1C560929025393W0037            201408010100030000000000MD RADZI BIN MD ISA                C05058626 
1C560929025393W0037            201408060200005000000000MD RADZI BIN MD ISA                C05058626 
1C560929025393W0037            201408410100833330004167MD RADZI BIN MD ISA                C05058626 
0C570914025605W0037            201408000000035000003500KA02110668  01403302   K224399C7508C05274032 
1C570914025605W0037            201408010100030000000000RODZLI BIN HASHIM                  C05274032 
1C570914025605W0037            201408060200005000000000RODZLI BIN HASHIM                  C05274032 
0C590108025203W0037            201408000000035000003500KA02110612  05536396   K224399C7508C05557446 
1C590108025203W0037            201408010100030000000000MUHAMAD NOH BIN HJ OSMAN           C05557446 
1C590108025203W0037            201408060200005000000000MUHAMAD NOH BIN HJ OSMAN           C05557446 
0C590624095013W0037            201408000000035000003500KA02110184  03246501   K224399C7508C05748125 
1C590624095013W0037            201408010100030000000000AZIZAN BIN NAN                     C05748125 
1C590624095013W0037            201408060200005000000000AZIZAN BIN NAN                     C05748125 
0C590720025322W0037            201408000000035000003500KA02110668  01463736   K224399C7508C05721051 
1C590720025322W0037            201408010100030000000000NOORLIZA BTE MOHD SALLEH           C05721051 
1C590720025322W0037            201408060200005000000000NOORLIZA BTE MOHD SALLEH           C05721051 
0C600219025085W0037            201408000000035000003500KA02110730  05551452   K224399C7508C05928651 
1C600219025085W0037            201408010100030000000000MOHD DZAHER BIN SAAD               C05928651 
1C600219025085W0037            201408060200005000000000MOHD DZAHER BIN SAAD               C05928651 
0C620108025662W0037            201408000000517150051715KA02110056  03008208   K224399C7508C06385710 
1C620108025662W0037            201408010100030000000000LATIFAH BT MOHAMAD                 C06385710 
1C620108025662W0037            201408060200005000000000LATIFAH BT MOHAMAD                 C06385710 
1C620108025662W0037            201408410100357150012500LATIFAH BT MOHAMAD                 C06385710 
0C630420115020W0037            201408000000035000003500KA02110668  03598695   K224399C7508C07065400 
1C630420115020W0037            201408010100030000000000ASIAH BT ABDULLAH                  C07065400 
1C630420115020W0037            201408060200005000000000ASIAH BT ABDULLAH                  C07065400 
0C631231085656W0037            201408000000035000003500KA02110413  09529157   K224399C7508C07184656 
1C631231085656W0037            201408010100030000000000RAMLAH BT ABDULLAH THANI           C07184656 
1C631231085656W0037            201408060200005000000000RAMLAH BT ABDULLAH THANI           C07184656 
0C641203025946W0037            201408000000236390023639KA02110397  05500467   K224399C7508C07484535 
1C641203025946W0037            201408010100030000000000ROGAYAH BINTI HAMID                C07484535 
1C641203025946W0037            201408060200005000000000ROGAYAH BINTI HAMID                C07484535 
1C641203025946W0037            201408410100138890006250ROGAYAH BINTI HAMID                C07484535 
0C651012025344W0037            201408000000160000016000KA02110056  05613799   K224399C7508CA0227726 
1C651012025344W0037            201408010100030000000000NOR HIMAH BT MOHAMADAN             CA0227726 
1C651012025344W0037            201408060200005000000000NOR HIMAH BT MOHAMADAN             CA0227726 
1C651012025344W0037            201408410100100000002500NOR HIMAH BT MOHAMADAN             CA0227726 
0C660128025236W0037            201408000000535000053500KA02110413  60009214   K224399C7508          
1C660128025236W0037            201408010100030000000000WAN AISAH  BINTI WAN OTHMAN                  
1C660128025236W0037            201408060200005000000000WAN AISAH  BINTI WAN OTHMAN                  
1C660128025236W0037            201408460100333340016666WAN AISAH  BINTI WAN OTHMAN                  
0C660801075015W0037            201408000000035000003500KA02110083  52625309   K224399C7508CA0464742 
1C660801075015W0037            201408010100030000000000AZMI BIN ABDUL AZID                CA0464742 
1C660801075015W0037            201408060200005000000000AZMI BIN ABDUL AZID                CA0464742 
0C660926075027W0037            201408000000035000003500KA02110730  60012855   K224399C7508CA0510564 
1C660926075027W0037            201408010100030000000000MUHAMMAD TAMIZI BIN AWANG          CA0510564 
1C660926075027W0037            201408060200005000000000MUHAMMAD TAMIZI BIN AWANG          CA0510564 
0C661110025240W0037            201408000000035000003500KA02110038  02941979   K224399C7508CA0631628 
1C661110025240W0037            201408010100030000000000NORZILA BINTI HANAFI               CA0631628 
1C661110025240W0037            201408060200005000000000NORZILA BINTI HANAFI               CA0631628 
0C670126025784W0037            201408000000035000003500KA02110038  06707814   K224399C7508CA0870058 
1C670126025784W0037            201408010100030000000000ROSNAH BINTI JAAFAR                CA0870058 
1C670126025784W0037            201408060200005000000000ROSNAH BINTI JAAFAR                CA0870058 
0C670405025138W0037            201408000000035000003500KA02110413  05543483   K224399C7508CA0659433 
1C670405025138W0037            201408010100030000000000NOR ASHAH BT HJ MOHD SAID          CA0659433 
1C670405025138W0037            201408060200005000000000NOR ASHAH BT HJ MOHD SAID          CA0659433 
0C670605025183W0037            201408000000035000003500KA02110922  05462510   K224399C7508CA0741056 
1C670605025183W0037            201408010100030000000000IBRAHIM BIN ABDULLAH               CA0741056 
1C670605025183W0037            201408060200005000000000IBRAHIM BIN ABDULLAH               CA0741056 
0C671025025106W0037            201408000000410000041000KA02110413  60011319   K224399C7508CA0854379 
1C671025025106W0037            201408010100030000000000NORLIDA BINTI JAAFAR               CA0854379 
1C671025025106W0037            201408060200005000000000NORLIDA BINTI JAAFAR               CA0854379 
1C671025025106W0037            201408410100250000012500NORLIDA BINTI JAAFAR               CA0854379 
0C671202025220W0037            201408000000035000003500KA02110752  08388563   K224399C7508CA0870839 
1C671202025220W0037            201408010100030000000000SAKINAH BT HAMID                   CA0870839 
1C671202025220W0037            201408060200005000000000SAKINAH BT HAMID                   CA0870839 
0C700310025674W0037            201408000000035000003500KA02110755  60008932   K224399C7508CA1463787 
1C700310025674W0037            201408010100030000000000NOR HANANI BINTI SAAID             CA1463787 
1C700310025674W0037            201408060200005000000000NOR HANANI BINTI SAAID             CA1463787 
0C700327035326W0037            201408000000035000003500KA02110413  11027133   K224399C7508CA1494350 
1C700327035326W0037            201408010100030000000000ARINA BINTI ZAKARIA                CA1494350 
1C700327035326W0037            201408060200005000000000ARINA BINTI ZAKARIA                CA1494350 
0C710725025720W0037            201408000000165000016500KA02110757  06084248   K224399C7508CA1881956 
1C710725025720W0037            201408010100030000000000SARINAH BINTI ABDUL AZIZ           CA1881956 
1C710725025720W0037            201408040100100000000000SARINAH BINTI ABDUL AZIZ           CA1881956 
1C710725025720W0037            201408060200005000000000SARINAH BINTI ABDUL AZIZ           CA1881956 
1C710725025720W0037            201408080100030000000000SARINAH BINTI ABDUL AZIZ           CA1881956 
0C720420025032W0037            201408000000660000066000KA02110745  01276252   K224399C7508CA2243239 
1C720420025032W0037            201408010100030000000000ROSHIDA BINTI CHE YA               CA2243239 
1C720420025032W0037            201408060200005000000000ROSHIDA BINTI CHE YA               CA2243239 
1C720420025032W0037            201408460100416660020834ROSHIDA BINTI CHE YA               CA2243239 
0C720628025808W0037            201408000000222500022250KA02110531  06724439   K224399C7508CA2207137 
1C720628025808W0037            201408010100030000000000NORHAYATI BINTI MUSTAFA            CA2207137 
1C720628025808W0037            201408060200005000000000NORHAYATI BINTI MUSTAFA            CA2207137 
1C720628025808W0037            201408410100125000006250NORHAYATI BINTI MUSTAFA            CA2207137 
0C721230086357W0037            201408000000035000003500KA02110832  08483299   K224399C7508CA2298273 
1C721230086357W0037            201408010100030000000000IBRAHIM B MOHAMED NAYAN            CA2298273 
1C721230086357W0037            201408060200005000000000IBRAHIM B MOHAMED NAYAN            CA2298273 
0C730118025305W0037            201408000000035000003500KA02110832  12595237   K224399C7508CA2228192 
1C730118025305W0037            201408010100030000000000ARIF FADZILAH BIN ALI              CA2228192 
1C730118025305W0037            201408060200005000000000ARIF FADZILAH BIN ALI              CA2228192 
0C730227115182W0037            201408000000035000003500KA02110053  11132263   K224399C7508CA2354081 
1C730227115182W0037            201408010100030000000000ZANARIAH BINTI ABU BAKAR           CA2354081 
1C730227115182W0037            201408060200005000000000ZANARIAH BINTI ABU BAKAR           CA2354081 
0C750408025432W0037            201408000000035000003500KA02110048  12595344   K224399C7508CA3016523 
1C750408025432W0037            201408010100030000000000ZARAIDA BINTI ZAINON               CA3016523 
1C750408025432W0037            201408060200005000000000ZARAIDA BINTI ZAINON               CA3016523 
0C751114026135W0037            201408000000035000003500KA02110730  60014111   K224399C7508CA3138447 
1C751114026135W0037            201408010100030000000000KHOR CHERN YEE                     CA3138447 
1C751114026135W0037            201408060200005000000000KHOR CHERN YEE                     CA3138447 
0C760523026325W0037            201408000000035000003500KA02110730  60013421   K224399C7508CA3362650 
1C760523026325W0037            201408010100030000000000MAT YUSOFF BIN SAAD                CA3362650 
1C760523026325W0037            201408060200005000000000MAT YUSOFF BIN SAAD                CA3362650 
0C761227025488W0037            201408000000035000003500KA02110413  20074691   K224399C7508CA3550605 
1C761227025488W0037            201408010100030000000000ROSITA BINTI ARIFIN                CA3550605 
1C761227025488W0037            201408060200005000000000ROSITA BINTI ARIFIN                CA3550605 
0C770303025493W0037            201408000000035000003500KA02110756  20075346   K224399C7508CA3634391 
1C770303025493W0037            201408010100030000000000SYAHRUL RIZAN BIN SALIM            CA3634391 
1C770303025493W0037            201408060200005000000000SYAHRUL RIZAN BIN SALIM            CA3634391 
0C770908086926W0037            201408000000035000003500KA02110755  09886219   K224399C7508CA3762342 
1C770908086926W0037            201408010100030000000000NOR SUHAILA BINTI RIDZUAN          CA3762342 
1C770908086926W0037            201408060200005000000000NOR SUHAILA BINTI RIDZUAN          CA3762342 
0C790619086098W0037            201408000000285000028500KA02110922  20240483   K224399C7508          
1C790619086098W0037            201408010100030000000000SHAHERAWATI BINTI ABDUL KARIM                
1C790619086098W0037            201408060200005000000000SHAHERAWATI BINTI ABDUL KARIM                
1C790619086098W0037            201408410100166660008334SHAHERAWATI BINTI ABDUL KARIM                
0C790620025671W0037            201408000000035000003500KA02110489  08849200   K224399C7508          
1C790620025671W0037            201408010100030000000000MUHAMMAD AFIFI BIN ABDULLAH                  
1C790620025671W0037            201408060200005000000000MUHAMMAD AFIFI BIN ABDULLAH                  
0C791011025216W0037            201408000000285000028500KA02110757  20034423   K224399C7508          
1C791011025216W0037            201408010100030000000000NOOR SITI FATIMAH BT MOHAMAD                 
1C791011025216W0037            201408060200005000000000NOOR SITI FATIMAH BT MOHAMAD                 
1C791011025216W0037            201408410100166670008333NOOR SITI FATIMAH BT MOHAMAD                 
0C800127025068W0037            201408000000035000003500KA02110839  11705944   K224399C7508          
1C800127025068W0037            201408010100030000000000NURHANA BINTI SULAIMAN                       
1C800127025068W0037            201408060200005000000000NURHANA BINTI SULAIMAN                       
0C800516095166W0037            201408000000035000003500KA02110500  20279704   K224399C7508          
1C800516095166W0037            201408010100030000000000ZULIATY BINTI ISMAIL                         
1C800516095166W0037            201408060200005000000000ZULIATY BINTI ISMAIL                         
0C800610135048W0037            201408000000035000003500KA02110755  20280184   K224399C7508          
1C800610135048W0037            201408010100030000000000RUZIYANI BINTI RIDZUAN                       
1C800610135048W0037            201408060200005000000000RUZIYANI BINTI RIDZUAN                       
0C800815025280W0037            201408000000222500022250KA02110180  08684128   K224399C7508          
1C800815025280W0037            201408010100030000000000ROSMINA BINTI SHAARI                         
1C800815025280W0037            201408060200005000000000ROSMINA BINTI SHAARI                         
1C800815025280W0037            201408410100125000006250ROSMINA BINTI SHAARI                         
0C810419015864W0037            201408000000035000003500KA02110730  20324924   K224399C7508          
1C810419015864W0037            201408010100030000000000NOORAZAH BINTI SADLI                         
1C810419015864W0037            201408060200005000000000NOORAZAH BINTI SADLI                         
0C810519025218W0037            201408000000035000003500KA02110755  20280183   K224399C7508          
1C810519025218W0037            201408010100030000000000NORLIZA BINTI MD ISA                         
1C810519025218W0037            201408060200005000000000NORLIZA BINTI MD ISA                         
0C810925026064W0037            201408000000035000003500KA02110396  20015344   K224399C7508          
1C810925026064W0037            201408010100030000000000AMALUL IZZAH BINTI HASSAN                    
1C810925026064W0037            201408060200005000000000AMALUL IZZAH BINTI HASSAN                    
0C811126025588W0037            201408000000035000003500KA02110846  20010642   K224399C7508          
1C811126025588W0037            201408010100030000000000HUSNA BINTI ABD RAHMAN                       
1C811126025588W0037            201408060200005000000000HUSNA BINTI ABD RAHMAN                       
0C821002025286W0037            201408000000660000066000KA02110038  20104973   K224399C7508          
1C821002025286W0037            201408010100030000000000ROZITA BINTI ZAKARIA                         
1C821002025286W0037            201408060200005000000000ROZITA BINTI ZAKARIA                         
1C821002025286W0037            201408460100416660020834ROZITA BINTI ZAKARIA                         
0C830202025744W0037            201408000000035000003500KA02110730  20056855   K224399C7508          
1C830202025744W0037            201408010100030000000000NOR FAIZA LAILY BINTI ISMAIL                 
1C830202025744W0037            201408060200005000000000NOR FAIZA LAILY BINTI ISMAIL                 
0C830618025721W0037            201408000000035000003500KA02110730  20172795   K224399C7508          
1C830618025721W0037            201408010100030000000000MOHAMAD ANWAR BIN SAAD                       
1C830618025721W0037            201408060200005000000000MOHAMAD ANWAR BIN SAAD                       
0C830802025182W0037            201408000000035000003500KA02110489  20008613   K224399C7508          
1C830802025182W0037            201408010100030000000000NOR AZRINI BINTI GHAZALI                     
1C830802025182W0037            201408060200005000000000NOR AZRINI BINTI GHAZALI                     
0C830925025094W0037            201408000000035000003500KA02110038  20226523   K224399C7508          
1C830925025094W0037            201408010100030000000000NORMILA BINTI BAHARI                         
1C830925025094W0037            201408060200005000000000NORMILA BINTI BAHARI                         
0C840319085344W0037            201408000000035000003500KA02110499  20144178   K224399C7508          
1C840319085344W0037            201408010100030000000000SITI ITTAKILLAH BINTI SABARI                 
1C840319085344W0037            201408060200005000000000SITI ITTAKILLAH BINTI SABARI                 
0C850325075467W0037            201408000000035000003500KA02110496  20419012   K224399C7508          
1C850325075467W0037            201408010100030000000000ADNAN BIN RAZAK                              
1C850325075467W0037            201408060200005000000000ADNAN BIN RAZAK                              
0C850624115780W0037            201408000000035000003500KA02110730  20329496   K224399C7508          
1C850624115780W0037            201408010100030000000000ROSMALINA BINTI YUSOF                        
1C850624115780W0037            201408060200005000000000ROSMALINA BINTI YUSOF                        
0C851115015938W0037            201408000000035000003500KA02110056  20265364   K224399C7508          
1C851115015938W0037            201408010100030000000000NURUL AIENI BINTI MD TAIB                    
1C851115015938W0037            201408060200005000000000NURUL AIENI BINTI MD TAIB                    
0C851123025968W0037            201408000000035000003500KA02110923  20051001   K224399C7508          
1C851123025968W0037            201408010100030000000000NORAZURAWATI BINTI MD REJAB                  
1C851123025968W0037            201408060200005000000000NORAZURAWATI BINTI MD REJAB                  
0C851205115350W0037            201408000000035000003500KA02110498  20244351   K224399C7508          
1C851205115350W0037            201408010100030000000000NURUL AUFA BINTI MOHD YUSOFF                 
1C851205115350W0037            201408060200005000000000NURUL AUFA BINTI MOHD YUSOFF                 
0C851231095082W0037            201408000000035000003500KA02110832  20197573   K224399C7508          
1C851231095082W0037            201408010100030000000000FATHIYAH BINTI JUSOH                         
1C851231095082W0037            201408060200005000000000FATHIYAH BINTI JUSOH                         
0C860201145004W0037            201408000000035000003500KA02110035  20272100   K224399C7508          
1C860201145004W0037            201408010100030000000000SITI NORITA BINTI HJ ZULKEPLI HEW            
1C860201145004W0037            201408060200005000000000SITI NORITA BINTI HJ ZULKEPLI HEW            
0C860308265858W0037            201408000000035000003500KA02110923  20260979   K224399C7508          
1C860308265858W0037            201408010100030000000000WAN NAELIAH BINTI WAN SULAIMAN               
1C860308265858W0037            201408060200005000000000WAN NAELIAH BINTI WAN SULAIMAN               
0C860520595221W0037            201408000000035000003500KA02110730  20268461   K224399C7508          
1C860520595221W0037            201408010100030000000000MOHD ROSMADI BIN AHMAD                       
1C860520595221W0037            201408060200005000000000MOHD ROSMADI BIN AHMAD                       
0C870221095074W0037            201408000000035000003500KA02110730  20329491   K224399C7508          
1C870221095074W0037            201408010100030000000000NORHARZANA BINTI HARUN                       
1C870221095074W0037            201408060200005000000000NORHARZANA BINTI HARUN                       
0C870829355129W0037            201408000000035000003500KA02110730  20329495   K224399C7508          
1C870829355129W0037            201408010100030000000000RUZAINI BIN YUSOP                            
1C870829355129W0037            201408060200005000000000RUZAINI BIN YUSOP                            
0C880308025318W0037            201408000000035000003500KA02110084  20402095   K224399C7508          
1C880308025318W0037            201408010100030000000000SITI NOOR NAJWA BT HUSSAIN                   
1C880308025318W0037            201408060200005000000000SITI NOOR NAJWA BT HUSSAIN                   
0C880728095136W0037            201408000000035000003500KA02110040  20402150   K224399C7508          
1C880728095136W0037            201408010100030000000000MARIAH BINTI MUBIN                           
1C880728095136W0037            201408060200005000000000MARIAH BINTI MUBIN                           
0C550316025199W003792827       201408000000035000003500KA02110879  01405067   K224399C7508C04913270 
1C550316025199W003792827       201408010100030000000000SAMSUDDIN BIN DERAOH               C04913270 
1C550316025199W003792827       201408060200005000000000SAMSUDDIN BIN DERAOH               C04913270 
