0C581112125421W0037            2014080000003350000335000802110361  04825444   K223407C7502CH0473717 
1C581112125421W0037            201408010100030000000000YUSOF BIN ABAS @ ABBAS             CH0473717 
1C581112125421W0037            201408060200005000000000YUSOF BIN ABAS @ ABBAS             CH0473717 
1C581112125421W0037            201408410100250000005000YUSOF BIN ABAS @ ABBAS             CH0473717 
0C611115125675W0037            2014080000000050000005000802110810  52596377   K223407C7502CH0606136 
1C611115125675W0037            201408060200005000000000ALI HASSAN BIN ISMAIL              CH0606136 
0C650927125189W0037            2014080000001225000122500802110008  52583060   K223407C7502          
1C650927125189W0037            201408010100030000000000AWANG AIM BIN KASSIM                         
1C650927125189W0037            201408060200005000000000AWANG AIM BIN KASSIM                         
1C650927125189W0037            201408410100058330002917AWANG AIM BIN KASSIM                         
0C651006125154W0037            2014080000001650000165000802110620  60032064   K223407C7502CH0646738 
1C651006125154W0037            201408010100030000000000ASNAH BTE ARIFFIN                  CH0646738 
1C651006125154W0037            201408040100100000000000ASNAH BTE ARIFFIN                  CH0646738 
1C651006125154W0037            201408060200005000000000ASNAH BTE ARIFFIN                  CH0646738 
1C651006125154W0037            201408080100030000000000ASNAH BTE ARIFFIN                  CH0646738 
0C660621125345W0037            2014080000001650000165000802110779  10598670   K223407C7502CH0661564 
1C660621125345W0037            201408010100030000000000ALIXUS BIN MADUSIN @ ALEXIUS       CH0661564 
1C660621125345W0037            201408040100100000000000ALIXUS BIN MADUSIN @ ALEXIUS       CH0661564 
1C660621125345W0037            201408060200005000000000ALIXUS BIN MADUSIN @ ALEXIUS       CH0661564 
1C660621125345W0037            201408080100030000000000ALIXUS BIN MADUSIN @ ALEXIUS       CH0661564 
0C670309125446W0037            2014080000001650000165000802110779  52655074   K223407C7502CH0742861 
1C670309125446W0037            201408010100030000000000FATIMAH @ NORSIDAH BINTI MAARIPAT  CH0742861 
1C670309125446W0037            201408040100100000000000FATIMAH @ NORSIDAH BINTI MAARIPAT  CH0742861 
1C670309125446W0037            201408060200005000000000FATIMAH @ NORSIDAH BINTI MAARIPAT  CH0742861 
1C670309125446W0037            201408080100030000000000FATIMAH @ NORSIDAH BINTI MAARIPAT  CH0742861 
0C670501125542W0037            2014080000001650000165000802110779  52597987   K223407C7502CH0690397 
1C670501125542W0037            201408010100030000000000SARIMA BT JOLUMAN                  CH0690397 
1C670501125542W0037            201408040100100000000000SARIMA BT JOLUMAN                  CH0690397 
1C670501125542W0037            201408060200005000000000SARIMA BT JOLUMAN                  CH0690397 
1C670501125542W0037            201408080100030000000000SARIMA BT JOLUMAN                  CH0690397 
0C671021125310W0037            2014080000001650000165000802110779  10747970   K223407C7502CH0701594 
1C671021125310W0037            201408010100030000000000LILY BINTI BOGU                    CH0701594 
1C671021125310W0037            201408040100100000000000LILY BINTI BOGU                    CH0701594 
1C671021125310W0037            201408060200005000000000LILY BINTI BOGU                    CH0701594 
1C671021125310W0037            201408080100030000000000LILY BINTI BOGU                    CH0701594 
0C671021125476W0037            2014080000001650000165000802111112  52593713   K223407C7502CH0738633 
1C671021125476W0037            201408010100030000000000BARIZAH BINTI MOHD KAHAR           CH0738633 
1C671021125476W0037            201408040100100000000000BARIZAH BINTI MOHD KAHAR           CH0738633 
1C671021125476W0037            201408060200005000000000BARIZAH BINTI MOHD KAHAR           CH0738633 
1C671021125476W0037            201408080100030000000000BARIZAH BINTI MOHD KAHAR           CH0738633 
0C671128125097W0037            2014080000001650000165000802110779  52656791   K223407C7502CH0734509 
1C671128125097W0037            201408010100030000000000REHININ BIN AMIN                   CH0734509 
1C671128125097W0037            201408040100100000000000REHININ BIN AMIN                   CH0734509 
1C671128125097W0037            201408060200005000000000REHININ BIN AMIN                   CH0734509 
1C671128125097W0037            201408080100030000000000REHININ BIN AMIN                   CH0734509 
0C680721125551W0037            2014080000001650000165000802110779  10511004   K223407C7502CH0720590 
1C680721125551W0037            201408010100030000000000JASLI BIN MIAN                     CH0720590 
1C680721125551W0037            201408040100100000000000JASLI BIN MIAN                     CH0720590 
1C680721125551W0037            201408060200005000000000JASLI BIN MIAN                     CH0720590 
1C680721125551W0037            201408080100030000000000JASLI BIN MIAN                     CH0720590 
0C690707125618W0037            2014080000001650000165000802110779  52660017   K223407C7502CH0721820 
1C690707125618W0037            201408010100030000000000JUPINAH BINTI SALIUN               CH0721820 
1C690707125618W0037            201408040100100000000000JUPINAH BINTI SALIUN               CH0721820 
1C690707125618W0037            201408060200005000000000JUPINAH BINTI SALIUN               CH0721820 
1C690707125618W0037            201408080100030000000000JUPINAH BINTI SALIUN               CH0721820 
0C691007125320W0037            2014080000000650000065000802110620  05209929   K223407C7502CH0738626 
1C691007125320W0037            201408010100030000000000SURAYAH BINTI SABRI                CH0738626 
1C691007125320W0037            201408060200005000000000SURAYAH BINTI SABRI                CH0738626 
1C691007125320W0037            201408080100030000000000SURAYAH BINTI SABRI                CH0738626 
0C720617125344W0037            2014080000001650000165000802110779  10786606   K223407C7502CH0803402 
1C720617125344W0037            201408010100030000000000JURAINIH @ NORAINI UNSANG          CH0803402 
1C720617125344W0037            201408040100100000000000JURAINIH @ NORAINI UNSANG          CH0803402 
1C720617125344W0037            201408060200005000000000JURAINIH @ NORAINI UNSANG          CH0803402 
1C720617125344W0037            201408080100030000000000JURAINIH @ NORAINI UNSANG          CH0803402 
0C740111125089W0037            2014080000001650000165000802110620  10553212   K223407C7502CH0862313 
1C740111125089W0037            201408010100030000000000JAMILI BIN NAPI                    CH0862313 
1C740111125089W0037            201408040100100000000000JAMILI BIN NAPI                    CH0862313 
1C740111125089W0037            201408060200005000000000JAMILI BIN NAPI                    CH0862313 
1C740111125089W0037            201408080100030000000000JAMILI BIN NAPI                    CH0862313 
0C750505125320W0037            2014080000001650000165000802110779  10945574   K223407C7502CH0906661 
1C750505125320W0037            201408010100030000000000HAILYEN BINTI SOMPOT               CH0906661 
1C750505125320W0037            201408040200100000000000HAILYEN BINTI SOMPOT               CH0906661 
1C750505125320W0037            201408060200005000000000HAILYEN BINTI SOMPOT               CH0906661 
1C750505125320W0037            201408080100030000000000HAILYEN BINTI SOMPOT               CH0906661 
0C780709125354W0037            2014080000001650000165000802111112  10876571   K223407C7502          
1C780709125354W0037            201408010100030000000000ASTIZAH BINTI TAHIR                          
1C780709125354W0037            201408040100100000000000ASTIZAH BINTI TAHIR                          
1C780709125354W0037            201408060200005000000000ASTIZAH BINTI TAHIR                          
1C780709125354W0037            201408080100030000000000ASTIZAH BINTI TAHIR                          
0C810703125163W0037            2014080000001650000165000802110779  11044393   K223407C7502          
1C810703125163W0037            201408010100030000000000SAMSIRAN @ RONI BIN SOPAIN                   
1C810703125163W0037            201408040100100000000000SAMSIRAN @ RONI BIN SOPAIN                   
1C810703125163W0037            201408060200005000000000SAMSIRAN @ RONI BIN SOPAIN                   
1C810703125163W0037            201408080100030000000000SAMSIRAN @ RONI BIN SOPAIN                   
0C841102025572W0037            2014080000001650000165000802110779  20213282   K223407C7502          
1C841102025572W0037            201408010100030000000000HAFIZAH BINTI ABDUL WAHAB                    
1C841102025572W0037            201408040100100000000000HAFIZAH BINTI ABDUL WAHAB                    
1C841102025572W0037            201408060200005000000000HAFIZAH BINTI ABDUL WAHAB                    
1C841102025572W0037            201408080100030000000000HAFIZAH BINTI ABDUL WAHAB                    
0C850731035460W0037            2014080000001650000165000802110779  20340507   K223407C7502          
1C850731035460W0037            201408010100030000000000SITI HAJAR SUHANA BINTI ISMAIL               
1C850731035460W0037            201408040100100000000000SITI HAJAR SUHANA BINTI ISMAIL               
1C850731035460W0037            201408060200005000000000SITI HAJAR SUHANA BINTI ISMAIL               
1C850731035460W0037            201408080100030000000000SITI HAJAR SUHANA BINTI ISMAIL               
0C860928465770W0037            2014080000001650000165000802110779  20328119   K223407C7502          
1C860928465770W0037            201408010100030000000000WAN NURUL IZZAH BINTI WAN RAMDZAN            
1C860928465770W0037            201408040100100000000000WAN NURUL IZZAH BINTI WAN RAMDZAN            
1C860928465770W0037            201408060200005000000000WAN NURUL IZZAH BINTI WAN RAMDZAN            
1C860928465770W0037            201408080100030000000000WAN NURUL IZZAH BINTI WAN RAMDZAN            
0C680826125478W003701565       2014080000002225000222500802110361  20228108   K223407C7502CH0709230 
1C680826125478W003701565       201408010100030000000000ASMAH BINTI SULAIMAN               CH0709230 
1C680826125478W003701565       201408060200005000000000ASMAH BINTI SULAIMAN               CH0709230 
1C680826125478W003701565       201408410100125000006250ASMAH BINTI SULAIMAN               CH0709230 
0C711219125010W003701566       2014080000001225000122500802110361  20021381   K223407C7502CH0782741 
1C711219125010W003701566       201408010100030000000000ROSEYATI BINTI SUMIRAN             CH0782741 
1C711219125010W003701566       201408060200005000000000ROSEYATI BINTI SUMIRAN             CH0782741 
1C711219125010W003701566       201408410100058330002917ROSEYATI BINTI SUMIRAN             CH0782741 
0C590330125483W003701657       2014080000001650000165000802110779  52546539   K223407C7502CH0609579 
1C590330125483W003701657       201408010100030000000000MUHAMAT BIN MAIL @ MUHAMAD         CH0609579 
1C590330125483W003701657       201408040100100000000000MUHAMAT BIN MAIL @ MUHAMAD         CH0609579 
1C590330125483W003701657       201408060200005000000000MUHAMAT BIN MAIL @ MUHAMAD         CH0609579 
1C590330125483W003701657       201408080100030000000000MUHAMAT BIN MAIL @ MUHAMAD         CH0609579 
0C590301126057W003701658       2014080000001650000165000802110779  04881439   K223407C7502CH0465970 
1C590301126057W003701658       201408010100030000000000MOIN B AHMAD                       CH0465970 
1C590301126057W003701658       201408040100100000000000MOIN B AHMAD                       CH0465970 
1C590301126057W003701658       201408060200005000000000MOIN B AHMAD                       CH0465970 
1C590301126057W003701658       201408080100030000000000MOIN B AHMAD                       CH0465970 
