0C541231136215W0037            2014080000000350000035000902110348  04200226   K226488C7514CK399325  
1C541231136215W0037            201408010100030000000000BONG JIT FATT                      CK399325  
1C541231136215W0037            201408060200005000000000BONG JIT FATT                      CK399325  
0C571123135335W0037            2014080000000350000035000902110623  04957015   K226488C7514CK688403  
1C571123135335W0037            201408010100030000000000SAJALI BIN OJEK                    CK688403  
1C571123135335W0037            201408060200005000000000SAJALI BIN OJEK                    CK688403  
0C580220135761W0037            2014080000000350000035000902110559  60029164   K226488C7514CK453902  
1C580220135761W0037            201408010100030000000000MOHAMAD MORTADZA BIN MATRANG       CK453902  
1C580220135761W0037            201408060200005000000000MOHAMAD MORTADZA BIN MATRANG       CK453902  
0C600103135602W0037            2014080000000350000035000902110559  06120729   K226488C7514CK0732732 
1C600103135602W0037            201408010100030000000000SENIAH BT HJ NAHAR                 CK0732732 
1C600103135602W0037            201408060200005000000000SENIAH BT HJ NAHAR                 CK0732732 
0C660103135690W0037            2014080000000350000035000902110295  05459177   K226488C7514CK0096102 
1C660103135690W0037            201408010100030000000000NONA BTE SERI                      CK0096102 
1C660103135690W0037            201408060200005000000000NONA BTE SERI                      CK0096102 
0C660720135186W0037            2014080000006600000660000902110628  54503637   K226488C7514CK0101499 
1C660720135186W0037            201408010100030000000000RABANIM BINTI MATAIM               CK0101499 
1C660720135186W0037            201408060200005000000000RABANIM BINTI MATAIM               CK0101499 
1C660720135186W0037            201408460100416670020833RABANIM BINTI MATAIM               CK0101499 
0C670507035863W0037            2014080000000350000035000902110559  12526315   K226488C7514CA0719260 
1C670507035863W0037            201408010100030000000000EH FAT A/L E SAU                   CA0719260 
1C670507035863W0037            201408060200005000000000EH FAT A/L E SAU                   CA0719260 
0C700108135730W0037            2014080000000350000035000902110302  05080700   K226488C7514CK0235896 
1C700108135730W0037            201408010100030000000000PHANG WEI HON @ NURUL IZZAH ABDULLACK0235896 
1C700108135730W0037            201408060200005000000000PHANG WEI HON @ NURUL IZZAH ABDULLACK0235896 
0C710402135423W0037            2014080000000350000035000902110559  60030283   K226488C7514CK0288663 
1C710402135423W0037            201408010100030000000000ABDUL RAHMAN BIN GHAZALI           CK0288663 
1C710402135423W0037            201408060200005000000000ABDUL RAHMAN BIN GHAZALI           CK0288663 
0C750408135658W0037            2014080000000350000035000902110597  12564126   K226488C7514CK0455672 
1C750408135658W0037            201408010100030000000000ZERINA BINTI JERIN                 CK0455672 
1C750408135658W0037            201408060200005000000000ZERINA BINTI JERIN                 CK0455672 
0C750821135555W0037            2014080000000350000035000902110596  12565537   K226488C7514CK0451776 
1C750821135555W0037            201408010100030000000000ZUHARDI BIN SEKAWI                 CK0451776 
1C750821135555W0037            201408060200005000000000ZUHARDI BIN SEKAWI                 CK0451776 
0C830225025368W0037            2014080000000350000035000902110610  20167197   K226488C7514          
1C830225025368W0037            201408010100030000000000ZUHAIRAH BINTI ZAINOL ABIDIN                 
1C830225025368W0037            201408060200005000000000ZUHAIRAH BINTI ZAINOL ABIDIN                 
0C840105135844W0037            2014080000000350000035000902110628  20187086   K226488C7514          
1C840105135844W0037            201408010100030000000000SITI HAWA BINTI MARSIDI                      
1C840105135844W0037            201408060200005000000000SITI HAWA BINTI MARSIDI                      
0C610826135242W0037-           2014080000000350000035000902110216  05090584   K226488C7514CK758592  
1C610826135242W0037-           201408010100030000000000SITI BTE HJ ABDILLAH               CK758592  
1C610826135242W0037-           201408060200005000000000SITI BTE HJ ABDILLAH               CK758592  
