0C680518125396W0037            201408000000347500034750JPM1110712  60032174   K225949C7513CH0001022 
1C680518125396W0037            201408010100030000000000AIDA ANGELUS                       CH0001022 
1C680518125396W0037            201408060200005000000000AIDA ANGELUS                       CH0001022 
1C680518125396W0037            201408410100208330010417AIDA ANGELUS                       CH0001022 
