0C570530026027W0037            201408000000035000003500PA02110409  08034027   K227156C7515C05169638 
1C570530026027W0037            201408010100030000000000MAHAMAD ALI ABD RAHMAN             C05169638 
1C570530026027W0037            201408060200005000000000MAHAMAD ALI ABD RAHMAN             C05169638 
0C570705025895W0037            201408000000035000003500PA02110467  01745025   K227156C7515C05254223 
1C570705025895W0037            201408010100030000000000SUNDAR MURTI A/L THANNIMALAI       C05254223 
1C570705025895W0037            201408060200005000000000SUNDAR MURTI A/L THANNIMALAI       C05254223 
0C590827075012W0037            201408000000035000003500PA02110279  06625990   K227156C7515C05695072 
1C590827075012W0037            201408010100030000000000LYELEE OOI BINTI ABDULLAH          C05695072 
1C590827075012W0037            201408060200005000000000LYELEE OOI BINTI ABDULLAH          C05695072 
0C720228025569W0037            201408000000285000028500PA02110463  10932630   K227156C7515CA2107275 
1C720228025569W0037            201408010100030000000000SHUKRAN BAKI BIN ISMAIL            CA2107275 
1C720228025569W0037            201408060200005000000000SHUKRAN BAKI BIN ISMAIL            CA2107275 
1C720228025569W0037            201408410100166660008334SHUKRAN BAKI BIN ISMAIL            CA2107275 
0C740218035251W0037            201408000000118330011833PA02110483  01282318   K227156C7515CA2607000 
1C740218035251W0037            201408010100030000000000HAIRULIZWAN BIN SHAHIDAN           CA2607000 
1C740218035251W0037            201408060200005000000000HAIRULIZWAN BIN SHAHIDAN           CA2607000 
1C740218035251W0037            201408410100066670001666HAIRULIZWAN BIN SHAHIDAN           CA2607000 
0C771001076302W0037            201408000000035000003500PA02110205  11958089   K227156C7515CA3703730 
1C771001076302W0037            201408010100030000000000NAZAHIYAH BINTI MUSTAFA            CA3703730 
1C771001076302W0037            201408060200005000000000NAZAHIYAH BINTI MUSTAFA            CA3703730 
0C821127075586W0037            201408000000118330011833PA02110482  20060238   K227156C7515          
1C821127075586W0037            201408010100030000000000SALWANIS BINTI HURZAID                       
1C821127075586W0037            201408060200005000000000SALWANIS BINTI HURZAID                       
1C821127075586W0037            201408410100066670001666SALWANIS BINTI HURZAID                       
0C620706075192W003700603       201408000000035000003500PA02110304  06642664   K227156C7515C06782739 
1C620706075192W003700603       201408010100030000000000SA'ADIAH BT OMAR                   C06782739 
1C620706075192W003700603       201408060200005000000000SA'ADIAH BT OMAR                   C06782739 
0C600916085235W003701655       201408000000165000016500PA02110458  01405638   K227156C7515C06011731 
1C600916085235W003701655       201408010100030000000000JAMALUDIN BIN AHMAD                C06011731 
1C600916085235W003701655       201408040100100000000000JAMALUDIN BIN AHMAD                C06011731 
1C600916085235W003701655       201408060200005000000000JAMALUDIN BIN AHMAD                C06011731 
1C600916085235W003701655       201408080100030000000000JAMALUDIN BIN AHMAD                C06011731 
