0C550320085661W0037            201408000001410000141000NA02110704  02238681   K234477C7570C04764135 
1C550320085661W0037            201408010100030000000000A RADZI BIN WAHAB                  C04764135 
1C550320085661W0037            201408060200005000000000A RADZI BIN WAHAB                  C04764135 
1C550320085661W0037            201408410101250000012500A RADZI BIN WAHAB                  C04764135 
0C550808015456W0037            201408000001180830118083NA02110491  01410885   K234477C7570C04830721 
1C550808015456W0037            201408010100030000000000NORMAH BTE MD TAHIR                C04830721 
1C550808015456W0037            201408060200005000000000NORMAH BTE MD TAHIR                C04830721 
1C550808015456W0037            201408410101041670010416NORMAH BTE MD TAHIR                C04830721 
0C560502055171W0037            201408000001597220159722NA02110371  05607346   K234477C7570C08218015 
1C560502055171W0037            201408460101388890020833EN KRISHNAMOORTHY A/L MARIMUTHU    C08218015 
0C570110105896W0037            201408000000035000003500NA02110216  02248326   K234477C7570C05094356 
1C570110105896W0037            201408010100030000000000ASIAH BT HASSAN KPL C05094356      C05094356 
1C570110105896W0037            201408060200005000000000ASIAH BT HASSAN KPL C05094356      C05094356 
0C570905085542W0037            201408000001410000141000NA02110434  03198793   K234477C7570C05212472 
1C570905085542W0037            201408010100030000000000NOOR AISHAH BINTI ABD LATIF        C05212472 
1C570905085542W0037            201408060200005000000000NOOR AISHAH BINTI ABD LATIF        C05212472 
1C570905085542W0037            201408410101250000012500NOOR AISHAH BINTI ABD LATIF        C05212472 
0C590210055361W0037            201408000000035000003500NA02110423  12624847   K234477C7570C05548410 
1C590210055361W0037            201408010100030000000000S SEKAR A/L SELLTUGHAM             C05548410 
1C590210055361W0037            201408060200005000000000S SEKAR A/L SELLTUGHAM             C05548410 
0C590808106151W0037            201408000001236360123636NA02110276  02261287   K234477C7570C05691695 
1C590808106151W0037            201408010100030000000000JALAL BIN TAIB                     C05691695 
1C590808106151W0037            201408060200005000000000JALAL BIN TAIB                     C05691695 
1C590808106151W0037            201408420100156570000313JALAL BIN TAIB                     C05691695 
1C590808106151W0037            201408460100833330020833JALAL BIN TAIB                     C05691695 
0C591031055272W0037            201408000000191670019167NA02110137  09217456   K234477C7570C05767564 
1C591031055272W0037            201408410100166670002500LAM SIEW YING                      C05767564 
0C600903065315W0037            201408000000035000003500NA02110442  05635453   K234477C7570C06854236 
1C600903065315W0037            201408010100030000000000SHAHARUDIN B ABIDIN                C06854236 
1C600903065315W0037            201408060200005000000000SHAHARUDIN B ABIDIN                C06854236 
0C601231055484W0037            201408000000165000016500NA02110340  05627682   K234477C7570C06085442 
1C601231055484W0037            201408010100030000000000JAYA CHANTRA A/L MUTHIAH           C06085442 
1C601231055484W0037            201408040100100000000000JAYA CHANTRA A/L MUTHIAH           C06085442 
1C601231055484W0037            201408060200005000000000JAYA CHANTRA A/L MUTHIAH           C06085442 
1C601231055484W0037            201408080100030000000000JAYA CHANTRA A/L MUTHIAH           C06085442 
0C610521016007W0037            201408000000035000003500NA02110101  09225830   K234477C7570C06160530 
1C610521016007W0037            201408010100030000000000M SASASEY A/L MANIGAM              C06160530 
1C610521016007W0037            201408060200005000000000M SASASEY A/L MANIGAM              C06160530 
0C631220055144W0037            201408000000035000003500NA02110135  05610795   K234477C7570C07207026 
1C631220055144W0037            201408010100030000000000MYSIAH BT IDRIS                    C07207026 
1C631220055144W0037            201408060200005000000000MYSIAH BT IDRIS                    C07207026 
0C640618045231W0037            201408000000145000014500NA02110360  05644851   K234477C7570C07351657 
1C640618045231W0037            201408010100030000000000RAVENTHIRAN A/L VEERAYA            C07351657 
1C640618045231W0037            201408040100100000000000RAVENTHIRAN A/L VEERAYA            C07351657 
1C640618045231W0037            201408060200005000000000RAVENTHIRAN A/L VEERAYA            C07351657 
1C640618045231W0037            201408080100010000000000RAVENTHIRAN A/L VEERAYA            C07351657 
0C650319045150W0037            201408000000035000003500NA02110164  07154040   K234477C7570CA0129270 
1C650319045150W0037            201408010100030000000000MASSITAH BINTI MD DAUD             CA0129270 
1C650319045150W0037            201408060200005000000000MASSITAH BINTI MD DAUD             CA0129270 
0C651003055672W0037            201408000000035000003500NA02110277  09245770   K234477C7570CA0209997 
1C651003055672W0037            201408010100030000000000RADIAH BT JALI                     CA0209997 
1C651003055672W0037            201408060200005000000000RADIAH BT JALI                     CA0209997 
0C660328055173W0037            201408000000035000003500NA02110079  05692215   K234477C7570CA0366512 
1C660328055173W0037            201408010100030000000000ROSLAN BIN MOHAMMAD                CA0366512 
1C660328055173W0037            201408060200005000000000ROSLAN BIN MOHAMMAD                CA0366512 
0C660710015244W0037            201408000000165000016500NA02110351  08732646   K234477C7570CA0407777 
1C660710015244W0037            201408010100030000000000PATHAMAVATHY A/P RAMASAMY          CA0407777 
1C660710015244W0037            201408040100100000000000PATHAMAVATHY A/P RAMASAMY          CA0407777 
1C660710015244W0037            201408060200005000000000PATHAMAVATHY A/P RAMASAMY          CA0407777 
1C660710015244W0037            201408080100030000000000PATHAMAVATHY A/P RAMASAMY          CA0407777 
0C681228085597W0037            201408000000035000003500NA02110467  07152226   K234477C7570CA1183589 
1C681228085597W0037            201408010100030000000000G RAVI A/L GOVINDASAMY             CA1183589 
1C681228085597W0037            201408060200005000000000G RAVI A/L GOVINDASAMY             CA1183589 
0C690127045531W0037            201408000000035000003500NA02110106  09242967   K234477C7570CA1173327 
1C690127045531W0037            201408010100030000000000MAZLAN B ABU HASSAN                CA1173327 
1C690127045531W0037            201408060200005000000000MAZLAN B ABU HASSAN                CA1173327 
0C710616055170W0037            201408000000145000014500NA02110351  09802620   K234477C7570CA1936516 
1C710616055170W0037            201408010100030000000000MALLIKA A/P APPOOKUTTY             CA1936516 
1C710616055170W0037            201408040100100000000000MALLIKA A/P APPOOKUTTY             CA1936516 
1C710616055170W0037            201408060200005000000000MALLIKA A/P APPOOKUTTY             CA1936516 
1C710616055170W0037            201408080100010000000000MALLIKA A/P APPOOKUTTY             CA1936516 
0C720729065438W0037            201408000000035000003500NA02110074  09736398   K234477C7570CA2275170 
1C720729065438W0037            201408010100030000000000EZAWATI BT ABDUL WASIF             CA2275170 
1C720729065438W0037            201408060200005000000000EZAWATI BT ABDUL WASIF             CA2275170 
0C730307055140W0037            201408000000097500009750NA02110457  09290966   K234477C7570CA2344817 
1C730307055140W0037            201408010100030000000000NUR FAIRUDZAINI BINTI ZAINAL ABIDINCA2344817 
1C730307055140W0037            201408060200005000000000NUR FAIRUDZAINI BINTI ZAINAL ABIDINCA2344817 
1C730307055140W0037            201408410100041670002083NUR FAIRUDZAINI BINTI ZAINAL ABIDINCA2344817 
0C780924026180W0037            201408000000035000003500NA02110136  20012845   K234477C7570          
1C780924026180W0037            201408010100030000000000ABIDAH BINTI ABDUL RAHMAN                    
1C780924026180W0037            201408060200005000000000ABIDAH BINTI ABDUL RAHMAN                    
0C850329035737W0037            201408000000035000003500NA02110098  20334632   K234477C7570          
1C850329035737W0037            201408010100030000000000MUHAMAD SYARIF BIN SAKANI                    
1C850329035737W0037            201408060200005000000000MUHAMAD SYARIF BIN SAKANI                    
0C860303235588W0037            201408000000035000003500NA02110079  20308614   K234477C7570          
1C860303235588W0037            201408010100030000000000NURULUDA BINTI LEYWAT                        
1C860303235588W0037            201408060200005000000000NURULUDA BINTI LEYWAT                        
0C880620055116W0037            201408000000035000003500NA02110362  20229916   K234477C7570          
1C880620055116W0037            201408010100030000000000TAMIL SELVI A/P GANASAN                      
1C880620055116W0037            201408060200005000000000TAMIL SELVI A/P GANASAN                      
0C590328115024W003700468       201408000000145000014500NA02110499  05655634   K234477C7570C05641569 
1C590328115024W003700468       201408010100030000000000HENG JEE SOON                      C05641569 
1C590328115024W003700468       201408040100100000000000HENG JEE SOON                      C05641569 
1C590328115024W003700468       201408060200005000000000HENG JEE SOON                      C05641569 
1C590328115024W003700468       201408080100010000000000HENG JEE SOON                      C05641569 
0C580115055567W003700561       201408000000165000016500NA02110069  05610779   K234477C7570C05338961 
1C580115055567W003700561       201408010100030000000000NORHAMDI BIN KAMARUDIN             C05338961 
1C580115055567W003700561       201408040100100000000000NORHAMDI BIN KAMARUDIN             C05338961 
1C580115055567W003700561       201408060200005000000000NORHAMDI BIN KAMARUDIN             C05338961 
1C580115055567W003700561       201408080100030000000000NORHAMDI BIN KAMARUDIN             C05338961 
0C560918035342W003700595       201408000000145000014500NA02110256  08120313   K234477C7570C05045661 
1C560918035342W003700595       201408010100030000000000ROSLINA BINTI ABDUL RAHIM          C05045661 
1C560918035342W003700595       201408040100100000000000ROSLINA BINTI ABDUL RAHIM          C05045661 
1C560918035342W003700595       201408060200005000000000ROSLINA BINTI ABDUL RAHIM          C05045661 
1C560918035342W003700595       201408080100010000000000ROSLINA BINTI ABDUL RAHIM          C05045661 
0C590912055286W003700648       201408000000135000013500NA02110489  02242816   K234477C7570C05936123 
1C590912055286W003700648       201408010100030000000000THANALETCHMEE A/P NEELAKANDAN      C05936123 
1C590912055286W003700648       201408040100100000000000THANALETCHMEE A/P NEELAKANDAN      C05936123 
1C590912055286W003700648       201408060200005000000000THANALETCHMEE A/P NEELAKANDAN      C05936123 
0C661007055716W003701222       201408000000243330024333NA02110457  08487175   K234477C7570CA0538630 
1C661007055716W003701222       201408010100030000000000NOOR HAZIMAH BT HAMZAH             CA0538630 
1C661007055716W003701222       201408060200005000000000NOOR HAZIMAH BT HAMZAH             CA0538630 
1C661007055716W003701222       201408410100166670004166NOOR HAZIMAH BT HAMZAH             CA0538630 
0C611102026002W003701447       201408000000118340011834NA02110200  05497581   K234477C7570C06351882 
1C611102026002W003701447       201408010100030000000000ZAILAN BINTI ABDUL RASHID          C06351882 
1C611102026002W003701447       201408060200005000000000ZAILAN BINTI ABDUL RASHID          C06351882 
1C611102026002W003701447       201408410100066670001667ZAILAN BINTI ABDUL RASHID          C06351882 
0C640207055638W003785513       201408000000035000003500NA02110052  02915304   K234477C7570C07293342 
1C640207055638W003785513       201408010100030000000000ZARINA BTE BIDIN                   C07293342 
1C640207055638W003785513       201408060200005000000000ZARINA BTE BIDIN                   C07293342 
