0C660821105058W0037            2014080000001650000165000932110230  06183115   K236303C7579CA0465528 
1C660821105058W0037            201408010100030000000000SITI AKMALIAH BINTI MD AMIN        CA0465528 
1C660821105058W0037            201408040100100000000000SITI AKMALIAH BINTI MD AMIN        CA0465528 
1C660821105058W0037            201408060200005000000000SITI AKMALIAH BINTI MD AMIN        CA0465528 
1C660821105058W0037            201408080100030000000000SITI AKMALIAH BINTI MD AMIN        CA0465528 
0C700420125414W0037            2014080000001650000165000932110292  52685790   K236303C7579CH0739227 
1C700420125414W0037            201408010100030000000000JUSTINAH BTE SUKIR                 CH0739227 
1C700420125414W0037            201408040100100000000000JUSTINAH BTE SUKIR                 CH0739227 
1C700420125414W0037            201408060200005000000000JUSTINAH BTE SUKIR                 CH0739227 
1C700420125414W0037            201408080100030000000000JUSTINAH BTE SUKIR                 CH0739227 
0C740429135690W0037            2014080000001650000165000932110292  06273635   K236303C7579CK0440179 
1C740429135690W0037            201408010100030000000000DOREEN UNYA                        CK0440179 
1C740429135690W0037            201408040100100000000000DOREEN UNYA                        CK0440179 
1C740429135690W0037            201408060200005000000000DOREEN UNYA                        CK0440179 
1C740429135690W0037            201408080200030000000000DOREEN UNYA                        CK0440179 
0C770523135600W0037            2014080000001650000165000932110292  20395194   K236303C7579CK0497173 
1C770523135600W0037            201408010100030000000000DORIA ANAK NYOKIN                  CK0497173 
1C770523135600W0037            201408040100100000000000DORIA ANAK NYOKIN                  CK0497173 
1C770523135600W0037            201408060200005000000000DORIA ANAK NYOKIN                  CK0497173 
1C770523135600W0037            201408080100030000000000DORIA ANAK NYOKIN                  CK0497173 
0C840228115392W0037            2014080000001650000165000932110292  20186291   K236303C7579          
1C840228115392W0037            201408010100030000000000ZAILINA BINTI MUJI                           
1C840228115392W0037            201408040100100000000000ZAILINA BINTI MUJI                           
1C840228115392W0037            201408060200005000000000ZAILINA BINTI MUJI                           
1C840228115392W0037            201408080100030000000000ZAILINA BINTI MUJI                           
0C840321135814W0037            2014080000001650000165000932110293  20191069   K236303C7579          
1C840321135814W0037            201408010100030000000000ROZA BINTI SAKUAN                            
1C840321135814W0037            201408040100100000000000ROZA BINTI SAKUAN                            
1C840321135814W0037            201408060200005000000000ROZA BINTI SAKUAN                            
1C840321135814W0037            201408080100030000000000ROZA BINTI SAKUAN                            
0C851003136356W0037            2014080000001650000165000932110292  20387679   K236303C7579          
1C851003136356W0037            201408010100030000000000ELIZABETH LINDA ANAK UGAP                    
1C851003136356W0037            201408040100100000000000ELIZABETH LINDA ANAK UGAP                    
1C851003136356W0037            201408060200005000000000ELIZABETH LINDA ANAK UGAP                    
1C851003136356W0037            201408080100030000000000ELIZABETH LINDA ANAK UGAP                    
0C860319465476W0037            2014080000001650000165000932110133  20347872   K236303C7579          
1C860319465476W0037            201408010100030000000000SITI AISAH BINTI MOHD RAZMI                  
1C860319465476W0037            201408040100100000000000SITI AISAH BINTI MOHD RAZMI                  
1C860319465476W0037            201408060200005000000000SITI AISAH BINTI MOHD RAZMI                  
1C860319465476W0037            201408080100030000000000SITI AISAH BINTI MOHD RAZMI                  
0C860702025086W0037            2014080000001650000165000932110133  20347875   K236303C7579          
1C860702025086W0037            201408010100030000000000SITI FATIMAH BINTI MOHD ZAHID                
1C860702025086W0037            201408040100100000000000SITI FATIMAH BINTI MOHD ZAHID                
1C860702025086W0037            201408060200005000000000SITI FATIMAH BINTI MOHD ZAHID                
1C860702025086W0037            201408080100030000000000SITI FATIMAH BINTI MOHD ZAHID                
0C860902295662W0037            2014080000001650000165000932110133  20444463   K236303C7579          
1C860902295662W0037            201408010100030000000000AMIRAH AMINAH BINTI ZULKIFELI                
1C860902295662W0037            201408040100100000000000AMIRAH AMINAH BINTI ZULKIFELI                
1C860902295662W0037            201408060200005000000000AMIRAH AMINAH BINTI ZULKIFELI                
1C860902295662W0037            201408080100030000000000AMIRAH AMINAH BINTI ZULKIFELI                
0C870723355382W0037            2014080000001650000165000932110292  20259131   K236303C7579          
1C870723355382W0037            201408010100030000000000NORLY EMILIA BINTI RAMLY                     
1C870723355382W0037            201408040100100000000000NORLY EMILIA BINTI RAMLY                     
1C870723355382W0037            201408060200005000000000NORLY EMILIA BINTI RAMLY                     
1C870723355382W0037            201408080100030000000000NORLY EMILIA BINTI RAMLY                     
0C871018405043W0037            2014080000001650000165000932110292  20394445   K236303C7579          
1C871018405043W0037            201408010100030000000000AHMAD IQBAR BIN OMAR                         
1C871018405043W0037            201408040100100000000000AHMAD IQBAR BIN OMAR                         
1C871018405043W0037            201408060200005000000000AHMAD IQBAR BIN OMAR                         
1C871018405043W0037            201408080100030000000000AHMAD IQBAR BIN OMAR                         
0C871224035207W0037            2014080000001650000165000932110133  20347874   K236303C7579          
1C871224035207W0037            201408010100030000000000MOHD NAZMI BIN RAHIMI                        
1C871224035207W0037            201408040100100000000000MOHD NAZMI BIN RAHIMI                        
1C871224035207W0037            201408060200005000000000MOHD NAZMI BIN RAHIMI                        
1C871224035207W0037            201408080100030000000000MOHD NAZMI BIN RAHIMI                        
0C880130525728W0037            2014080000001650000165000932110293  20438251   K236303C7579          
1C880130525728W0037            201408010100030000000000NUR HIDAYU BINTI YUSOP                       
1C880130525728W0037            201408040100100000000000NUR HIDAYU BINTI YUSOP                       
1C880130525728W0037            201408060200005000000000NUR HIDAYU BINTI YUSOP                       
1C880130525728W0037            201408080100030000000000NUR HIDAYU BINTI YUSOP                       
0C890422136264W0037            2014080000001650000165000932110293  20438244   K236303C7579          
1C890422136264W0037            201408010100030000000000SITI SUFINAH BINTI MOHAMAD AZMANY            
1C890422136264W0037            201408040100100000000000SITI SUFINAH BINTI MOHAMAD AZMANY            
1C890422136264W0037            201408060200005000000000SITI SUFINAH BINTI MOHAMAD AZMANY            
1C890422136264W0037            201408080100030000000000SITI SUFINAH BINTI MOHAMAD AZMANY            
0C890426036148W0037            2014080000001650000165000932110133  20444431   K236303C7579          
1C890426036148W0037            201408010100030000000000NOR AZWANI BINTI MOHAMMED                    
1C890426036148W0037            201408040100100000000000NOR AZWANI BINTI MOHAMMED                    
1C890426036148W0037            201408060200005000000000NOR AZWANI BINTI MOHAMMED                    
1C890426036148W0037            201408080100030000000000NOR AZWANI BINTI MOHAMMED                    
0C870515526570W003701623       2014080000001650000165000932110038  20315461   K236303C7579          
1C870515526570W003701623       201408010100030000000000RADHIAH BINTI BUJANG                         
1C870515526570W003701623       201408040100100000000000RADHIAH BINTI BUJANG                         
1C870515526570W003701623       201408060200005000000000RADHIAH BINTI BUJANG                         
1C870515526570W003701623       201408080100030000000000RADHIAH BINTI BUJANG                         
0C860919295124W003701624       2014080000001650000165000932110038  20454420   K236303C7579          
1C860919295124W003701624       201408010100030000000000NOR AZUANENY BINTI IBRAHIM                   
1C860919295124W003701624       201408040100100000000000NOR AZUANENY BINTI IBRAHIM                   
1C860919295124W003701624       201408060200005000000000NOR AZUANENY BINTI IBRAHIM                   
1C860919295124W003701624       201408080100030000000000NOR AZUANENY BINTI IBRAHIM                   
0C830421135855W003701625       2014080000001650000165000932110032  20197076   K236303C7579          
1C830421135855W003701625       201408010100030000000000MOHAMMAD KHAZSRUL HAZSMIE                    
1C830421135855W003701625       201408040100100000000000MOHAMMAD KHAZSRUL HAZSMIE                    
1C830421135855W003701625       201408060200005000000000MOHAMMAD KHAZSRUL HAZSMIE                    
1C830421135855W003701625       201408080100030000000000MOHAMMAD KHAZSRUL HAZSMIE                    
0C850212075161W003701626       2014080000001650000165000932110299  20246777   K236303C7579          
1C850212075161W003701626       201408010100030000000000MOHD IDZIADY BIN IDRIS                       
1C850212075161W003701626       201408040100100000000000MOHD IDZIADY BIN IDRIS                       
1C850212075161W003701626       201408060200005000000000MOHD IDZIADY BIN IDRIS                       
1C850212075161W003701626       201408080100030000000000MOHD IDZIADY BIN IDRIS                       
0C821125135522W003701627       2014080000001650000165000932110299  20324559   K236303C7579          
1C821125135522W003701627       201408010100030000000000MELANIE ANAK NOIN                            
1C821125135522W003701627       201408040100100000000000MELANIE ANAK NOIN                            
1C821125135522W003701627       201408060200005000000000MELANIE ANAK NOIN                            
1C821125135522W003701627       201408080100030000000000MELANIE ANAK NOIN                            
0C880310025018W003701628       2014080000001650000165000932110299  20444492   K236303C7579          
1C880310025018W003701628       201408010100030000000000SITI ZUBAIDAH BINTI AHMAD                    
1C880310025018W003701628       201408040100100000000000SITI ZUBAIDAH BINTI AHMAD                    
1C880310025018W003701628       201408060200005000000000SITI ZUBAIDAH BINTI AHMAD                    
1C880310025018W003701628       201408080100030000000000SITI ZUBAIDAH BINTI AHMAD                    
0C810919085164W003701629       2014080000001650000165000932110038  20076058   K236303C7579          
1C810919085164W003701629       201408010100030000000000SITI MAHANIM BINTI AHMAD                     
1C810919085164W003701629       201408040100100000000000SITI MAHANIM BINTI AHMAD                     
1C810919085164W003701629       201408060200005000000000SITI MAHANIM BINTI AHMAD                     
1C810919085164W003701629       201408080100030000000000SITI MAHANIM BINTI AHMAD                     
0C860727525618W003701630       2014080000001650000165000932110238  20375813   K236303C7579          
1C860727525618W003701630       201408010100030000000000SITI HADIJAH BINTI BAKAR                     
1C860727525618W003701630       201408040100100000000000SITI HADIJAH BINTI BAKAR                     
1C860727525618W003701630       201408060200005000000000SITI HADIJAH BINTI BAKAR                     
1C860727525618W003701630       201408080100030000000000SITI HADIJAH BINTI BAKAR                     
0C780809135533W003701631       2014080000001650000165000932110032  12709390   K236303C7579          
1C780809135533W003701631       201408010100030000000000KAMEL BIN POZAN                              
1C780809135533W003701631       201408040100100000000000KAMEL BIN POZAN                              
1C780809135533W003701631       201408060200005000000000KAMEL BIN POZAN                              
1C780809135533W003701631       201408080100030000000000KAMEL BIN POZAN                              
0C820816135236W003701632       2014080000001650000165000932110038  05493382   K236303C7579          
1C820816135236W003701632       201408010100030000000000SAMANIAH BINTI GARIP                         
1C820816135236W003701632       201408040100100000000000SAMANIAH BINTI GARIP                         
1C820816135236W003701632       201408060200005000000000SAMANIAH BINTI GARIP                         
1C820816135236W003701632       201408080100030000000000SAMANIAH BINTI GARIP                         
0C710401136192W003701633       2014080000001650000165000932110104  06201677   K236303C7579CK299140  
1C710401136192W003701633       201408010100030000000000UDING ANYIE                        CK299140  
1C710401136192W003701633       201408040100100000000000UDING ANYIE                        CK299140  
1C710401136192W003701633       201408060200005000000000UDING ANYIE                        CK299140  
1C710401136192W003701633       201408080100030000000000UDING ANYIE                        CK299140  
0C800522135603W003701634       2014080000001650000165000932110104  12710406   K236303C7579          
1C800522135603W003701634       201408010100030000000000PETER JAU NGAU                               
1C800522135603W003701634       201408040100100000000000PETER JAU NGAU                               
1C800522135603W003701634       201408060200005000000000PETER JAU NGAU                               
1C800522135603W003701634       201408080100030000000000PETER JAU NGAU                               
0C630320135585W003701635       2014080000001650000165000932110032  06185730   K236303C7579CK796788  
1C630320135585W003701635       201408010100030000000000SUHAIMI BIN SALLEH                 CK796788  
1C630320135585W003701635       201408040100100000000000SUHAIMI BIN SALLEH                 CK796788  
1C630320135585W003701635       201408060200005000000000SUHAIMI BIN SALLEH                 CK796788  
1C630320135585W003701635       201408080100030000000000SUHAIMI BIN SALLEH                 CK796788  
0C890705035922W003701636       2014080000001650000165000932110299  20444483   K236303C7579          
1C890705035922W003701636       201408010100030000000000NUR LIYANA BT MOHD RAMLI                     
1C890705035922W003701636       201408040100100000000000NUR LIYANA BT MOHD RAMLI                     
1C890705035922W003701636       201408060200005000000000NUR LIYANA BT MOHD RAMLI                     
1C890705035922W003701636       201408080100030000000000NUR LIYANA BT MOHD RAMLI                     
0C830629035896W003701637       2014080000001650000165000932110299  20444485   K236303C7579          
1C830629035896W003701637       201408010100030000000000ROBIATUADAWIAH BINTI AB HALIM                
1C830629035896W003701637       201408040100100000000000ROBIATUADAWIAH BINTI AB HALIM                
1C830629035896W003701637       201408060200005000000000ROBIATUADAWIAH BINTI AB HALIM                
1C830629035896W003701637       201408080100030000000000ROBIATUADAWIAH BINTI AB HALIM                
0C660407025159W003701638       2014080000001650000165000932110230  60050023   K236303C7579CA0392379 
1C660407025159W003701638       201408010100030000000000MOHAMAD SHARIFF BIN MAT SAAD       CA0392379 
1C660407025159W003701638       201408040100100000000000MOHAMAD SHARIFF BIN MAT SAAD       CA0392379 
1C660407025159W003701638       201408060200005000000000MOHAMAD SHARIFF BIN MAT SAAD       CA0392379 
1C660407025159W003701638       201408080100030000000000MOHAMAD SHARIFF BIN MAT SAAD       CA0392379 
0C711118135180W003701639       2014080000001650000165000932110036  06209811   K236303C7579          
1C711118135180W003701639       201408010100030000000000NAPSIAH BT HJ JUMAT                          
1C711118135180W003701639       201408040100100000000000NAPSIAH BT HJ JUMAT                          
1C711118135180W003701639       201408060200005000000000NAPSIAH BT HJ JUMAT                          
1C711118135180W003701639       201408080100030000000000NAPSIAH BT HJ JUMAT                          
0C880817115506W003701640       2014080000001650000165000932110238  20443281   K236303C7579          
1C880817115506W003701640       201408010100030000000000NUR FATIN AISYAH BTE ABDULLAH                
1C880817115506W003701640       201408040100100000000000NUR FATIN AISYAH BTE ABDULLAH                
1C880817115506W003701640       201408060200005000000000NUR FATIN AISYAH BTE ABDULLAH                
1C880817115506W003701640       201408080100030000000000NUR FATIN AISYAH BTE ABDULLAH                
0C700615135014W003701641       2014080000001650000165000932110238  06185011   K236303C7579CK0257164 
1C700615135014W003701641       201408010100030000000000JELINA @ ZARINA BINTI ABDUL TALIP  CK0257164 
1C700615135014W003701641       201408040100100000000000JELINA @ ZARINA BINTI ABDUL TALIP  CK0257164 
1C700615135014W003701641       201408060200005000000000JELINA @ ZARINA BINTI ABDUL TALIP  CK0257164 
1C700615135014W003701641       201408080100030000000000JELINA @ ZARINA BINTI ABDUL TALIP  CK0257164 
0C750502135902W003701642       2014080000001650000165000932110038  10844413   K236303C7579CK0394233 
1C750502135902W003701642       201408010100030000000000ELIZABETH BINTI LAI                CK0394233 
1C750502135902W003701642       201408040100100000000000ELIZABETH BINTI LAI                CK0394233 
1C750502135902W003701642       201408060200005000000000ELIZABETH BINTI LAI                CK0394233 
1C750502135902W003701642       201408080100030000000000ELIZABETH BINTI LAI                CK0394233 
0C740910135080W003701643       2014080000001650000165000932110230  12703369   K236303C7579CK0390344 
1C740910135080W003701643       201408010100030000000000SURIHATI BINTI SUKIAN              CK0390344 
1C740910135080W003701643       201408040100100000000000SURIHATI BINTI SUKIAN              CK0390344 
1C740910135080W003701643       201408060200005000000000SURIHATI BINTI SUKIAN              CK0390344 
1C740910135080W003701643       201408080100030000000000SURIHATI BINTI SUKIAN              CK0390344 
0C741102135482W003701644       2014080000001650000165000932110230  60055857   K236303C7579CK0392619 
1C741102135482W003701644       201408010100030000000000BIVIANA BT MOHAMAD ALI             CK0392619 
1C741102135482W003701644       201408040100100000000000BIVIANA BT MOHAMAD ALI             CK0392619 
1C741102135482W003701644       201408060200005000000000BIVIANA BT MOHAMAD ALI             CK0392619 
1C741102135482W003701644       201408080100030000000000BIVIANA BT MOHAMAD ALI             CK0392619 
