0C880614295260W0037            2014080000000350000035000832113013  20445180   K236924C7583          
1C880614295260W0037            201408010100030000000000YUSNI ANIS BINTI YUSUF                       
1C880614295260W0037            201408060200005000000000YUSNI ANIS BINTI YUSUF                       
