0C580727135277W0037            2014080000000350000035000952110196  04276416   K236581C7580CK695005  
1C580727135277W0037            201408010100030000000000TENG MUI NIEH                      CK695005  
1C580727135277W0037            201408060200005000000000TENG MUI NIEH                      CK695005  
0C640418135216W0037            2014080000000350000035000952110196  05452404   K236581C7580CK0015837 
1C640418135216W0037            201408010100030000000000UNG SII MEE                        CK0015837 
1C640418135216W0037            201408060200005000000000UNG SII MEE                        CK0015837 
0C650103045143W0037            2014080000000350000035000952110003  60053595   K236581C7580CA0034184 
1C650103045143W0037            201408010100030000000000ABU BAKAR BIN KADIM                CA0034184 
1C650103045143W0037            201408060200005000000000ABU BAKAR BIN KADIM                CA0034184 
0C650729135490W0037            2014080000001215900121590952110208  60053582   K236581C7580CK0128051 
1C650729135490W0037            201408010100030000000000DAYANG KU SITI FARIDAH BT AWG KU MACK0128051 
1C650729135490W0037            201408060200005000000000DAYANG KU SITI FARIDAH BT AWG KU MACK0128051 
1C650729135490W0037            201408420100083330000326DAYANG KU SITI FARIDAH BT AWG KU MACK0128051 
0C690622055032W0037            2014080000000350000035000952110007  60053221   K236581C7580CA1326596 
1C690622055032W0037            201408010100030000000000ZAHARIAH BT ZAINAL                 CA1326596 
1C690622055032W0037            201408060200005000000000ZAHARIAH BT ZAINAL                 CA1326596 
0C800623135231W0037            2014080000000350000035000952110196  20184777   K236581C7580          
1C800623135231W0037            201408010100030000000000HII TIUNG CHIEW                              
1C800623135231W0037            201408060200005000000000HII TIUNG CHIEW                              
0C820509135594W0037            2014080000000350000035000952110196  20023939   K236581C7580          
1C820509135594W0037            201408010100030000000000ONG CHIEW TING                               
1C820509135594W0037            201408060200005000000000ONG CHIEW TING                               
