0C850928015252W0037            201408000000000000003300KP02118003  20209321   K238994C7609          
1C850928015252W0037            201408010100030000000000SULASTRI BINTI SULAIMAN                      
1C850928015252W0037            201408060200005000000000SULASTRI BINTI SULAIMAN                      
