0C550302055397W0037            201501000000035000003500MA02110403  02347888   K483663C9616C04866191 
1C550302055397W0037            201501010100030000000000MOHD HUSIN BIN ABD RAHMAN          C04866191 
1C550302055397W0037            201501060200005000000000MOHD HUSIN BIN ABD RAHMAN          C04866191 
0C561009045142W0037            201501000000035000003500MA02110403  09600560   K483663C9616C05078755 
1C561009045142W0037            201501010100030000000000RUHANI BTE ISMAIL                  C05078755 
1C561009045142W0037            201501060200005000000000RUHANI BTE ISMAIL                  C05078755 
0C571227055217W0037            201501000000035000003500MA02110403  02360055   K483663C9616C05318747 
1C571227055217W0037            201501010100030000000000SHARIF BIN EBOK                    C05318747 
1C571227055217W0037            201501060200005000000000SHARIF BIN EBOK                    C05318747 
0C580701045353W0037            201501000000035000003500MA02110377  04285938   K483663C9616C05441645 
1C580701045353W0037            201501010100030000000000ISMAIL BIN MENHAD                  C05441645 
1C580701045353W0037            201501060200005000000000ISMAIL BIN MENHAD                  C05441645 
0C590303045453W0037            201501000000035000003500MA02110105  02631703   K483663C9616C05545094 
1C590303045453W0037            201501010100030000000000UMAR BIN MOHD YUSOF                C05545094 
1C590303045453W0037            201501060200005000000000UMAR BIN MOHD YUSOF                C05545094 
0C590414045392W0037            201501000000035000003500MA02110205  02359172   K483663C9616C05623638 
1C590414045392W0037            201501010100030000000000RASIDAH BINTI MD DAWI              C05623638 
1C590414045392W0037            201501060200005000000000RASIDAH BINTI MD DAWI              C05623638 
0C591224105168W0037            201501000000035000003500MA02110403  02683811   K483663C9616C05795587 
1C591224105168W0037            201501010100030000000000KAMSIAH BT SIDIN                   C05795587 
1C591224105168W0037            201501060200005000000000KAMSIAH BT SIDIN                   C05795587 
0C600311045185W0037            201501000000005000000500MA02110157  02633014   K483663C9616C05798382 
1C600311045185W0037            201501060200005000000000EN KOH KIAN CHOON                  C05798382 
0C600315035451W0037            201501000000035000003500MA02110053  02379642   K483663C9616C05846342 
1C600315035451W0037            201501010100030000000000CHAN AH JUN                        C05846342 
1C600315035451W0037            201501060200005000000000CHAN AH JUN                        C05846342 
0C600904045316W0037            201501000000035000003500MA02110257  05427851   K483663C9616C06045242 
1C600904045316W0037            201501010100030000000000MARIAM BTE KASIM                   C06045242 
1C600904045316W0037            201501060200005000000000MARIAM BTE KASIM                   C06045242 
0C620410015254W0037            201501000001076670107667MA02110365  02443828   K483663C9616C06755157 
1C620410015254W0037            201501010100030000000000NOR RAZILA WATI BT ABDUL RAZAK     C06755157 
1C620410015254W0037            201501060200005000000000NOR RAZILA WATI BT ABDUL RAZAK     C06755157 
1C620410015254W0037            201501460100833330020834NOR RAZILA WATI BT ABDUL RAZAK     C06755157 
0C630512045453W0037            201501000000035000003500MA02110105  04301495   K483663C9616C06996098 
1C630512045453W0037            201501010100030000000000SAMSULAIMAN BIN ABD RAHMAN         C06996098 
1C630512045453W0037            201501060200005000000000SAMSULAIMAN BIN ABD RAHMAN         C06996098 
0C630630045462W0037            201501000000035000003500MA02110152  02930659   K483663C9616C07085919 
1C630630045462W0037            201501010100030000000000SUHANA BINTI HUSAIN                C07085919 
1C630630045462W0037            201501060200005000000000SUHANA BINTI HUSAIN                C07085919 
0C630814115293W0037            201501000000035000003500MA02110105  08046898   K483663C9616C07129811 
1C630814115293W0037            201501010100030000000000HASAN BIN MOHD NOR                 C07129811 
1C630814115293W0037            201501060200005000000000HASAN BIN MOHD NOR                 C07129811 
0C631007107136W0037            201501000000035000003500MA02110020  05045406   K483663C9616C07173207 
1C631007107136W0037            201501010100030000000000NORAINI BTE NASIR                  C07173207 
1C631007107136W0037            201501060200005000000000NORAINI BTE NASIR                  C07173207 
0C631105045637W0037            201501000000035000003500MA02110372  02742617   K483663C9616C07174016 
1C631105045637W0037            201501010100030000000000ABD RAZAK BIN RASHIDIN             C07174016 
1C631105045637W0037            201501060200005000000000ABD RAZAK BIN RASHIDIN             C07174016 
0C631211086141W0037            201501000000319690031969MA02110252  05449764   K483663C9616C07172060 
1C631211086141W0037            201501010100030000000000GENTIS POUL S/O GNANAPRAKASAM      C07172060 
1C631211086141W0037            201501060200005000000000GENTIS POUL S/O GNANAPRAKASAM      C07172060 
1C631211086141W0037            201501410100185190009950GENTIS POUL S/O GNANAPRAKASAM      C07172060 
0C640131086293W0037            201501000000035000003500MA02110321  05967104   K483663C9616C07233887 
1C640131086293W0037            201501010100030000000000SUHAIMI BIN IBRAHIM                C07233887 
1C640131086293W0037            201501060200005000000000SUHAIMI BIN IBRAHIM                C07233887 
0C640828045037W0037            201501000000035000003500MA02110040  05975107   K483663C9616C07348414 
1C640828045037W0037            201501010100030000000000S ARULDAS A/L SELVESTIAN           C07348414 
1C640828045037W0037            201501060200005000000000S ARULDAS A/L SELVESTIAN           C07348414 
0C641103065465W0037            201501000000260000026000MA02110365  02907970   K483663C9616CA0025212 
1C641103065465W0037            201501010100030000000000JAMAL BIN SALLEH                   CA0025212 
1C641103065465W0037            201501060200005000000000JAMAL BIN SALLEH                   CA0025212 
1C641103065465W0037            201501410100150000007500JAMAL BIN SALLEH                   CA0025212 
0C650402065400W0037            201501000000035000003500MA02110056  12922134   K483663C9616CA0027093 
1C650402065400W0037            201501010100030000000000ROLEHA BTE AWANG KECHIL            CA0027093 
1C650402065400W0037            201501060200005000000000ROLEHA BTE AWANG KECHIL            CA0027093 
0C650622045380W0037            201501000000222500022250MA02110147  02414340   K483663C9616CA0134048 
1C650622045380W0037            201501010100030000000000SUVITA BTE SAMAD                   CA0134048 
1C650622045380W0037            201501060200005000000000SUVITA BTE SAMAD                   CA0134048 
1C650622045380W0037            201501410100125000006250SUVITA BTE SAMAD                   CA0134048 
0C660727055357W0037            201501000000035000003500MA02110028  08227324   K483663C9616CA0517470 
1C660727055357W0037            201501010100030000000000ROSLAN BIN OTHMAN                  CA0517470 
1C660727055357W0037            201501060200005000000000ROSLAN BIN OTHMAN                  CA0517470 
0C670119045103W0037            201501000000035000003500MA02110296  06569446   K483663C9616CA0682685 
1C670119045103W0037            201501010100030000000000SELVARAJ A/L BATUMALAI             CA0682685 
1C670119045103W0037            201501060200005000000000SELVARAJ A/L BATUMALAI             CA0682685 
0C670307055640W0037            201501000000035000003500MA02110403  06051536   K483663C9616CA0596456 
1C670307055640W0037            201501010100030000000000RAFIDAH BTE KEMAT                  CA0596456 
1C670307055640W0037            201501060200005000000000RAFIDAH BTE KEMAT                  CA0596456 
0C670407015080W0037            201501000000035000003500MA02110179  06125595   K483663C9616CA0638651 
1C670407015080W0037            201501010100030000000000ZAITON BINTI ABDULLAH              CA0638651 
1C670407015080W0037            201501060200005000000000ZAITON BINTI ABDULLAH              CA0638651 
0C690101036530W0037            201501000000660000066000MA02110026  05679717   K483663C9616CA1319692 
1C690101036530W0037            201501010100030000000000SULAIZA SULAIMAN @ HANAFI          CA1319692 
1C690101036530W0037            201501060200005000000000SULAIZA SULAIMAN @ HANAFI          CA1319692 
1C690101036530W0037            201501460100416660020834SULAIZA SULAIMAN @ HANAFI          CA1319692 
0C690822045170W0037            201501000000005000000500MA02110157  06580096   K483663C9616CA1295869 
1C690822045170W0037            201501060200005000000000NOR'AIN BT ATAN                    CA1295869 
0C691004055048W0037            201501000000635000063500MA02110365  09536129   K483663C9616CA1296691 
1C691004055048W0037            201501010100030000000000ROSNANI BT AHMAD ZAKARIA           CA1296691 
1C691004055048W0037            201501060200005000000000ROSNANI BT AHMAD ZAKARIA           CA1296691 
1C691004055048W0037            201501460100400000020000ROSNANI BT AHMAD ZAKARIA           CA1296691 
0C691119045085W0037            201501000000035000003500MA02110403  09608878   K483663C9616CA1408155 
1C691119045085W0037            201501010100030000000000RAMLI BIN ABDULLAH                 CA1408155 
1C691119045085W0037            201501060200005000000000RAMLI BIN ABDULLAH                 CA1408155 
0C700119086540W0037            201501000000035000003500MA02110390  09578790   K483663C9616CA1596299 
1C700119086540W0037            201501010100030000000000ZUBAIDAH BINTI ISHAK               CA1596299 
1C700119086540W0037            201501060200005000000000ZUBAIDAH BINTI ISHAK               CA1596299 
0C700201045115W0037            201501000000222500022250MA02110365  06581599   K483663C9616CA1410293 
1C700201045115W0037            201501010100030000000000NASARUDDIN BIN IBRAHIM             CA1410293 
1C700201045115W0037            201501060200005000000000NASARUDDIN BIN IBRAHIM             CA1410293 
1C700201045115W0037            201501410100125000006250NASARUDDIN BIN IBRAHIM             CA1410293 
0C700428045128W0037            201501000000035000003500MA02110403  09435769   K483663C9616CA1545531 
1C700428045128W0037            201501010100030000000000ARNIZAM BINTI ARIFFIN              CA1545531 
1C700428045128W0037            201501060200005000000000ARNIZAM BINTI ARIFFIN              CA1545531 
0C700723045331W0037            201501000000381020038102MA02110393  11055035   K483663C9616CA1548527 
1C700723045331W0037            201501010100030000000000RASHIDI BIN YA'AMAT                CA1548527 
1C700723045331W0037            201501060200005000000000RASHIDI BIN YA'AMAT                CA1548527 
1C700723045331W0037            201501410100216670012935RASHIDI BIN YA'AMAT                CA1548527 
0C701208035096W0037            201501000000260000026000MA02110365  09870890   K483663C9616CA1704259 
1C701208035096W0037            201501010100030000000000SALMAH BINTI YIJID                 CA1704259 
1C701208035096W0037            201501060200005000000000SALMAH BINTI YIJID                 CA1704259 
1C701208035096W0037            201501410100150000007500SALMAH BINTI YIJID                 CA1704259 
0C711218045457W0037            201501000000035000003500MA02110158  11201415   K483663C9616CA2014364 
1C711218045457W0037            201501010100030000000000SUHER BIN SULAIMAN                 CA2014364 
1C711218045457W0037            201501060200005000000000SUHER BIN SULAIMAN                 CA2014364 
0C720425135812W0037            201501000000291260029126MA02110365  05083233   K483663C9616CK0320935 
1C720425135812W0037            201501010100030000000000WAN ZAITUN BINTI WAN SAIEE         CK0320935 
1C720425135812W0037            201501060200005000000000WAN ZAITUN BINTI WAN SAIEE         CK0320935 
1C720425135812W0037            201501410100170840008542WAN ZAITUN BINTI WAN SAIEE         CK0320935 
0C720710065630W0037            201501000000510000051000MA02110365  11026200   K483663C9616CA2305347 
1C720710065630W0037            201501010100030000000000JAMALIAH BINTI HASSAN              CA2305347 
1C720710065630W0037            201501060200005000000000JAMALIAH BINTI HASSAN              CA2305347 
1C720710065630W0037            201501460100316670015833JAMALIAH BINTI HASSAN              CA2305347 
0C720924035242W0037            201501000000035000003500MA02110403  60012969   K483663C9616CA2274328 
1C720924035242W0037            201501010100030000000000NOORAZILAWANI BINTI DERIS @ ABDULLACA2274328 
1C720924035242W0037            201501060200005000000000NOORAZILAWANI BINTI DERIS @ ABDULLACA2274328 
0C730529045095W0037            201501000000235000023500MA02110028  20032889   K483663C9616CA2491570 
1C730529045095W0037            201501010100030000000000AHMAD BAZLI BIN KHAMID             CA2491570 
1C730529045095W0037            201501060200005000000000AHMAD BAZLI BIN KHAMID             CA2491570 
1C730529045095W0037            201501410100133330006667AHMAD BAZLI BIN KHAMID             CA2491570 
0C740911045044W0037            201501000000235000023500MA02110365  06595540   K483663C9616CA2864553 
1C740911045044W0037            201501010100030000000000SITI ZALILAH BTE A RAHMAN          CA2864553 
1C740911045044W0037            201501060200005000000000SITI ZALILAH BTE A RAHMAN          CA2864553 
1C740911045044W0037            201501410100133330006667SITI ZALILAH BTE A RAHMAN          CA2864553 
0C750101045244W0037            201501000000410000041000MA02110390  11555141   K483663C9616CA2967591 
1C750101045244W0037            201501010100030000000000NORA BINTI HARON                   CA2967591 
1C750101045244W0037            201501060200005000000000NORA BINTI HARON                   CA2967591 
1C750101045244W0037            201501410100250000012500NORA BINTI HARON                   CA2967591 
0C750501045163W0037            201501000000035000003500MA02110403  06283378   K483663C9616CA3045054 
1C750501045163W0037            201501010100030000000000MOHD AZRIN BIN RAHIM               CA3045054 
1C750501045163W0037            201501060200005000000000MOHD AZRIN BIN RAHIM               CA3045054 
0C751208045054W0037            201501000000222500022250MA02110365  08631459   K483663C9616CA3155979 
1C751208045054W0037            201501010100030000000000NADIAH BT HJ HASHIM                CA3155979 
1C751208045054W0037            201501060200005000000000NADIAH BT HJ HASHIM                CA3155979 
1C751208045054W0037            201501410100125000006250NADIAH BT HJ HASHIM                CA3155979 
0C760728035591W0037            201501000000035000003500MA02110056  11050721   K483663C9616CA3455204 
1C760728035591W0037            201501010100030000000000JUSLAN BIN JUSOH                   CA3455204 
1C760728035591W0037            201501060200005000000000JUSLAN BIN JUSOH                   CA3455204 
0C771022045628W0037            201501000000035000003500MA02110317  11033040   K483663C9616CA3779774 
1C771022045628W0037            201501010100030000000000VANITHA A/P SUBRAMANIAM            CA3779774 
1C771022045628W0037            201501060200005000000000VANITHA A/P SUBRAMANIAM            CA3779774 
0C781115045001W0037            201501000000035000003500MA02110175  14832547   K483663C9616          
1C781115045001W0037            201501010100030000000000ROZAIDI BIN MOHD                             
1C781115045001W0037            201501060200005000000000ROZAIDI BIN MOHD                             
0C790108025453W0037            201501000000301170030117MA02110167  20195600   K483663C9616          
1C790108025453W0037            201501010100030000000000MOHD HISHAM BIN SALLEH                       
1C790108025453W0037            201501060200005000000000MOHD HISHAM BIN SALLEH                       
1C790108025453W0037            201501410100166670009950MOHD HISHAM BIN SALLEH                       
0C790130025302W0037            201501000000660000066000MA02110365  20279736   K483663C9616          
1C790130025302W0037            201501010100030000000000SITI HAJAR BINTI SOBRI                       
1C790130025302W0037            201501060200005000000000SITI HAJAR BINTI SOBRI                       
1C790130025302W0037            201501460100416670020833SITI HAJAR BINTI SOBRI                       
0C790528035279W0037            201501000000222500022250MA02110365  15060593   K483663C9616          
1C790528035279W0037            201501010100030000000000MOHD ZUKRI BIN NAWI                          
1C790528035279W0037            201501060200005000000000MOHD ZUKRI BIN NAWI                          
1C790528035279W0037            201501410100125000006250MOHD ZUKRI BIN NAWI                          
0C790701025622W0037            201501000000422500042250MA02110028  20156789   K483663C9616          
1C790701025622W0037            201501010100030000000000ATIQAH BINTI ABD RAHMAN                      
1C790701025622W0037            201501060200005000000000ATIQAH BINTI ABD RAHMAN                      
1C790701025622W0037            201501460100258330012917ATIQAH BINTI ABD RAHMAN                      
0C791014086006W0037            201501000000035000003500MA02110365  20079264   K483663C9616          
1C791014086006W0037            201501010100030000000000NABILAH BINTI MAT ZIN                        
1C791014086006W0037            201501060200005000000000NABILAH BINTI MAT ZIN                        
0C800809065040W0037            201501000000367720036772MA02110167  08882730   K483663C9616          
1C800809065040W0037            201501010100030000000000HARTINI BINTI MOHAMAD                        
1C800809065040W0037            201501060200005000000000HARTINI BINTI MOHAMAD                        
1C800809065040W0037            201501410100208340012438HARTINI BINTI MOHAMAD                        
0C810912125282W0037            201501000000272500027250MA02110365  15529621   K483663C9616          
1C810912125282W0037            201501010100030000000000JENNIFER TAN MEI YEN                         
1C810912125282W0037            201501060200005000000000JENNIFER TAN MEI YEN                         
1C810912125282W0037            201501410100158340007916JENNIFER TAN MEI YEN                         
0C820215035002W0037            201501000000035000003500MA02110390  20054108   K483663C9616          
1C820215035002W0037            201501010100030000000000NORHAZWANI BINTI MAT                         
1C820215035002W0037            201501060200005000000000NORHAZWANI BINTI MAT                         
0C821201035700W0037            201501000000035000003500MA02110403  20061458   K483663C9616          
1C821201035700W0037            201501010100030000000000ROZIYANA BINTI JAAFAR                        
1C821201035700W0037            201501060200005000000000ROZIYANA BINTI JAAFAR                        
0C870220145949W0037            201501000000035000003500MA02110317  20345836   K483663C9616          
1C870220145949W0037            201501010100030000000000MUHAMMAD ADAM BIN ROSALI                     
1C870220145949W0037            201501060200005000000000MUHAMMAD ADAM BIN ROSALI                     
0C900314045150W0037            201501000000035000003500MA02110365  20445486   K483663C9616          
1C900314045150W0037            201501010100030000000000SITI MAHIRAH BINTI AB WAHAB                  
1C900314045150W0037            201501060200005000000000SITI MAHIRAH BINTI AB WAHAB                  
0C620101065098W003700566       201501000000035000003500MA02110161  03082534   K483663C9616C06408630 
1C620101065098W003700566       201501010100030000000000NORIHA BINTI ABD MANAF             C06408630 
1C620101065098W003700566       201501060200005000000000NORIHA BINTI ABD MANAF             C06408630 
0C551111045115W003700755       201501000000035000003500MA02110112  05758768   K483663C9616C04866409 
1C551111045115W003700755       201501010100030000000000MANSOR BIN BABA                    C04866409 
1C551111045115W003700755       201501060200005000000000MANSOR BIN BABA                    C04866409 
0C591002045729W003701560       201501000000410000041000MA02110136  06550180   K483663C9616C05717025 
1C591002045729W003701560       201501010100030000000000ADAM BIN MD DALI                   C05717025 
1C591002045729W003701560       201501060200005000000000ADAM BIN MD DALI                   C05717025 
1C591002045729W003701560       201501410100312500006250ADAM BIN MD DALI                   C05717025 
0C680308025178W003701561       201501000000322500032250MA02110390  11129913   K483663C9616CA0973161 
1C680308025178W003701561       201501010100030000000000NOORRASHIMA BINTI ISMAIL           CA0973161 
1C680308025178W003701561       201501060200005000000000NOORRASHIMA BINTI ISMAIL           CA0973161 
1C680308025178W003701561       201501410100191660009584NOORRASHIMA BINTI ISMAIL           CA0973161 
