0C560204016190W0037            201501000000035000003500JA02116537  02636165   K486193C9626C04952435 
1C560204016190W0037            201501010100030000000000TUMINAH BTE SARTRI                 C04952435 
1C560204016190W0037            201501060200005000000000TUMINAH BTE SARTRI                 C04952435 
0C560423016035W0037            201501000000273890027389JA02110557  02708162   K486193C9626C04972083 
1C560423016035W0037            201501010100030000000000ISHAK BIN AZIS                     C04972083 
1C560423016035W0037            201501060200005000000000ISHAK BIN AZIS                     C04972083 
1C560423016035W0037            201501410100222220001667ISHAK BIN AZIS                     C04972083 
0C560705065361W0037            201501000000194720019472JA02111659  05791215   K486193C9626C08224146 
1C560705065361W0037            201501010100030000000000KRISHNAN A/L RAJU                  C08224146 
1C560705065361W0037            201501060200005000000000KRISHNAN A/L RAJU                  C08224146 
1C560705065361W0037            201501410100138890002083KRISHNAN A/L RAJU                  C08224146 
0C560829015622W0037            201501000000035000003500JA02116008  02700284   K486193C9626C05037241 
1C560829015622W0037            201501010100030000000000WAN INTAN BINTI WAN CHIK           C05037241 
1C560829015622W0037            201501060200005000000000WAN INTAN BINTI WAN CHIK           C05037241 
0C600711016332W0037            201501000000035000003500JA02111619  05990254   K486193C9626C05973233 
1C600711016332W0037            201501010100030000000000HASMAH BT IBRAHIM                  C05973233 
1C600711016332W0037            201501060200005000000000HASMAH BT IBRAHIM                  C05973233 
0C600905015629W0037            201501000000035000003500JA02118014  06168439   K486193C9626C06012545 
1C600905015629W0037            201501010100030000000000TOKIAP BIN TOKIMIN                 C06012545 
1C600905015629W0037            201501060200005000000000TOKIAP BIN TOKIMIN                 C06012545 
0C610928015153W0037            201501000000035000003500JA02111609  05795281   K486193C9626C06264012 
1C610928015153W0037            201501010100030000000000JOHARI BIN SULAIMAN                C06264012 
1C610928015153W0037            201501060200005000000000JOHARI BIN SULAIMAN                C06264012 
0C630116015965W0037            201501000000342830034283JA02110008  05991724   K486193C9626C06928692 
1C630116015965W0037            201501010100030000000000KAMARUL ZAMAN BIN AHMAD            C06928692 
1C630116015965W0037            201501060200005000000000KAMARUL ZAMAN BIN AHMAD            C06928692 
1C630116015965W0037            201501410100208330009950KAMARUL ZAMAN BIN AHMAD            C06928692 
0C630401015980W0037            201501000000195720019572JA02110525  05918487   K486193C9626C06997247 
1C630401015980W0037            201501010100030000000000MARLIAH BINTI MD SAAT              C06997247 
1C630401015980W0037            201501060200005000000000MARLIAH BINTI MD SAAT              C06997247 
1C630401015980W0037            201501410100119050004167MARLIAH BINTI MD SAAT              C06997247 
0C630629015397W0037            201501000000035000003500JA02115018  05994744   K486193C9626C07044179 
1C630629015397W0037            201501010100030000000000ROSLAN BIN AHMAD                   C07044179 
1C630629015397W0037            201501060200005000000000ROSLAN BIN AHMAD                   C07044179 
0C630704715028W0037            201501000000362470036247JA02110008  05973722   K486193C9626C08288486 
1C630704715028W0037            201501010100030000000000KAMSIAH BINTI HJ SAAD              C08288486 
1C630704715028W0037            201501040100100000000000KAMSIAH BINTI HJ SAAD              C08288486 
1C630704715028W0037            201501050100192830000464KAMSIAH BINTI HJ SAAD              C08288486 
1C630704715028W0037            201501060200005000000000KAMSIAH BINTI HJ SAAD              C08288486 
1C630704715028W0037            201501080100030000000000KAMSIAH BINTI HJ SAAD              C08288486 
0C640628015466W0037            201501000000035000003500JA02114570  05909452   K486193C9626C07380077 
1C640628015466W0037            201501010100030000000000FAZIDAH BINTI A SANI               C07380077 
1C640628015466W0037            201501060200005000000000FAZIDAH BINTI A SANI               C07380077 
0C640801016252W0037            201501000000035000003500JA02111592  06752059   K486193C9626C07316958 
1C640801016252W0037            201501010100030000000000KHIROSNI BT MISBAH                 C07316958 
1C640801016252W0037            201501060200005000000000KHIROSNI BT MISBAH                 C07316958 
0C640916015348W0037            201501000000706300070630JA02115023  11470598   K486193C9626C07459051 
1C640916015348W0037            201501010100030000000000PN NORAISHAH BT HJ MOHD TAP        C07459051 
1C640916015348W0037            201501060200005000000000PN NORAISHAH BT HJ MOHD TAP        C07459051 
1C640916015348W0037            201501460100462960020834PN NORAISHAH BT HJ MOHD TAP        C07459051 
0C650506015766W0037            201501000000035000003500JA02115007  05399639   K486193C9626CA0114213 
1C650506015766W0037            201501010100030000000000SALWANA BINTI IBRAHIM              CA0114213 
1C650506015766W0037            201501060200005000000000SALWANA BINTI IBRAHIM              CA0114213 
0C650515016111W0037            201501000000005000000500JA02115025  05723416   K486193C9626CA0117301 
1C650515016111W0037            201501060200005000000000MOHD SALIHUDIN BIN RASUL           CA0117301 
0C650527015343W0037            201501000000035000003500JA02116204  05997820   K486193C9626CA0113724 
1C650527015343W0037            201501010100030000000000SAMAT BIN TASRIB                   CA0113724 
1C650527015343W0037            201501060200005000000000SAMAT BIN TASRIB                   CA0113724 
0C650601106906W0037            201501000000035000003500JA02112502  06049159   K486193C9626CA0207853 
1C650601106906W0037            201501010100030000000000ZALILA BT HUJAN @ TIK              CA0207853 
1C650601106906W0037            201501060200005000000000ZALILA BT HUJAN @ TIK              CA0207853 
0C650728015518W0037            201501000000035000003500JA02116550  06121131   K486193C9626CA0171975 
1C650728015518W0037            201501010100030000000000MISRIDAH BINTI MASKAN              CA0171975 
1C650728015518W0037            201501060200005000000000MISRIDAH BINTI MASKAN              CA0171975 
0C651126055349W0037            201501000000035000003500JA02114303  05973532   K486193C9626CA0238367 
1C651126055349W0037            201501010100030000000000KOO CHEE KEONG                     CA0238367 
1C651126055349W0037            201501060200005000000000KOO CHEE KEONG                     CA0238367 
0C660510016197W0037            201501000000035000003500JA02116538  05940382   K486193C9626CA0438384 
1C660510016197W0037            201501010100030000000000SARIMAN BIN ALI                    CA0438384 
1C660510016197W0037            201501060200005000000000SARIMAN BIN ALI                    CA0438384 
0C660602016477W0037            201501000000035000003500JA02118032  06048664   K486193C9626CA0451027 
1C660602016477W0037            201501010100030000000000HAMDAN BIN MIS                     CA0451027 
1C660602016477W0037            201501060200005000000000HAMDAN BIN MIS                     CA0451027 
0C661208055501W0037            201501000000035000003500JA02116201  05070578   K486193C9626CA0566593 
1C661208055501W0037            201501010100030000000000ABDUL HALIM BIN YUNUS              CA0566593 
1C661208055501W0037            201501060200005000000000ABDUL HALIM BIN YUNUS              CA0566593 
0C670617105180W0037            201501000000347500034750JA02110557  06033922   K486193C9626CA0735293 
1C670617105180W0037            201501010100030000000000TUNADIAH BINTI ALI JAAFAR          CA0735293 
1C670617105180W0037            201501060200005000000000TUNADIAH BINTI ALI JAAFAR          CA0735293 
1C670617105180W0037            201501410100208340010416TUNADIAH BINTI ALI JAAFAR          CA0735293 
0C680103016120W0037            201501000000035000003500JA02117010  14588362   K486193C9626CA0947892 
1C680103016120W0037            201501010100030000000000ROSNANI BINTI RUSNAN               CA0947892 
1C680103016120W0037            201501060200005000000000ROSNANI BINTI RUSNAN               CA0947892 
0C700511715014W0037            201501000000035000003500JA02116012  09474925   K486193C9626CA3465188 
1C700511715014W0037            201501010100030000000000ZANARIAH BT SIDIK                  CA3465188 
1C700511715014W0037            201501060200005000000000ZANARIAH BT SIDIK                  CA3465188 
0C700619016151W0037            201501000000035000003500JA02116528  06127427   K486193C9626CA1579641 
1C700619016151W0037            201501010100030000000000RUHAIJAN BIN TUMINAN               CA1579641 
1C700619016151W0037            201501060200005000000000RUHAIJAN BIN TUMINAN               CA1579641 
0C700827055235W0037            201501000000035000003500JA02115006  09301003   K486193C9626CA1626818 
1C700827055235W0037            201501010100030000000000MOHAMAD RANI BIN ASIM              CA1626818 
1C700827055235W0037            201501060200005000000000MOHAMAD RANI BIN ASIM              CA1626818 
0C720107115234W0037            201501000000035000003500JA02110136  10832681   K486193C9626CA2036927 
1C720107115234W0037            201501010100030000000000ROSMANI BINTI WAHAB @ ABDULLAH     CA2036927 
1C720107115234W0037            201501060200005000000000ROSMANI BINTI WAHAB @ ABDULLAH     CA2036927 
0C720303015556W0037            201501000000035000003500JA02115584  11077641   K486193C9626CA2106351 
1C720303015556W0037            201501010100030000000000SAMINAH BT WARMEN                  CA2106351 
1C720303015556W0037            201501060200005000000000SAMINAH BT WARMEN                  CA2106351 
0C720601016282W0037            201501000000314480031448JA02110004  11421609   K486193C9626CA2180534 
1C720601016282W0037            201501010100030000000000NORAZLILA BINTI SAMION             CA2180534 
1C720601016282W0037            201501060200005000000000NORAZLILA BINTI SAMION             CA2180534 
1C720601016282W0037            201501410100175000010448NORAZLILA BINTI SAMION             CA2180534 
0C720605016239W0037            201501000000035000003500JA02119003  11453701   K486193C9626CA2299060 
1C720605016239W0037            201501010100030000000000MOHD BAKRI BIN MAT DIAH            CA2299060 
1C720605016239W0037            201501060200005000000000MOHD BAKRI BIN MAT DIAH            CA2299060 
0C720730016123W0037            201501000000165000016500JA02112020  10860252   K486193C9626CA2205497 
1C720730016123W0037            201501010100030000000000HAIRIL ANUAR BIN SUNGEP            CA2205497 
1C720730016123W0037            201501040100100000000000HAIRIL ANUAR BIN SUNGEP            CA2205497 
1C720730016123W0037            201501060200005000000000HAIRIL ANUAR BIN SUNGEP            CA2205497 
1C720730016123W0037            201501080100030000000000HAIRIL ANUAR BIN SUNGEP            CA2205497 
0C740527015852W0037            201501000000141470014147JA02110557  11431251   K486193C9626CA2687384 
1C740527015852W0037            201501010100030000000000ZURINA BINTI SALAM                 CA2687384 
1C740527015852W0037            201501060200005000000000ZURINA BINTI SALAM                 CA2687384 
1C740527015852W0037            201501410100066670003980ZURINA BINTI SALAM                 CA2687384 
0C740701016501W0037            201501000000035000003500JA02116546  06164750   K486193C9626CA2691732 
1C740701016501W0037            201501010100030000000000ZULKIFLI BIN MOHD YASIN @ BACHOK   CA2691732 
1C740701016501W0037            201501060200005000000000ZULKIFLI BIN MOHD YASIN @ BACHOK   CA2691732 
0C741010017120W0037            201501000000035000003500JA02116204  11435146   K486193C9626CA2793302 
1C741010017120W0037            201501010100030000000000ROHANIMAH BINTI SNIN @ WAGIRAN     CA2793302 
1C741010017120W0037            201501060200005000000000ROHANIMAH BINTI SNIN @ WAGIRAN     CA2793302 
0C741125016216W0037            201501000000035000003500JA02110008  11564044   K486193C9626CA2796649 
1C741125016216W0037            201501010100030000000000MAZNI BINTI KASMAN                 CA2796649 
1C741125016216W0037            201501060200005000000000MAZNI BINTI KASMAN                 CA2796649 
0C750407017588W0037            201501000000035000003500JA02116551  20043262   K486193C9626CA2982063 
1C750407017588W0037            201501010100030000000000HANIFAH BINTI SURIFF               CA2982063 
1C750407017588W0037            201501060200005000000000HANIFAH BINTI SURIFF               CA2982063 
0C790507015914W0037            201501000000035000003500JA02115033  06279434   K486193C9626          
1C790507015914W0037            201501010100030000000000SAMIJAH BT RUWIYAH                           
1C790507015914W0037            201501060200005000000000SAMIJAH BT RUWIYAH                           
0C790508015158W0037            201501000000035000003500JA02110008  20186814   K486193C9626          
1C790508015158W0037            201501010100030000000000NOR ZEHAN BT ALI                             
1C790508015158W0037            201501060200005000000000NOR ZEHAN BT ALI                             
0C790524015430W0037            201501000000035000003500JA02115022  11541190   K486193C9626          
1C790524015430W0037            201501010100030000000000NOR ZANARIAH BINTI ELHAM                     
1C790524015430W0037            201501060200005000000000NOR ZANARIAH BINTI ELHAM                     
0C810207055020W0037            201501000000035000003500JA02118032  20344723   K486193C9626          
1C810207055020W0037            201501010100030000000000ARMIE SHARINA BINTI MOHAMAD ASHI             
1C810207055020W0037            201501060200005000000000ARMIE SHARINA BINTI MOHAMAD ASHI             
0C830213015197W0037            201501000000035000003500JA02111503  20342243   K486193C9626          
1C830213015197W0037            201501010100030000000000MOHD HELMIE BIN ZAINUDDIN                    
1C830213015197W0037            201501060200005000000000MOHD HELMIE BIN ZAINUDDIN                    
0C830508016074W0037            201501000000035000003500JA02110532  20331068   K486193C9626          
1C830508016074W0037            201501010100030000000000SUZILA BINTI KHAMIS                          
1C830508016074W0037            201501060200005000000000SUZILA BINTI KHAMIS                          
0C830920016623W0037            201501000000035000003500JA02119002  20050113   K486193C9626          
1C830920016623W0037            201501010100030000000000AFIAN AKHBAR BIN MUSTAM                      
1C830920016623W0037            201501060200005000000000AFIAN AKHBAR BIN MUSTAM                      
0C840323015672W0037            201501000000035000003500JA02116537  20219050   K486193C9626          
1C840323015672W0037            201501010100030000000000SITI FATIMAH BINTI MOHD.SAHAR                
1C840323015672W0037            201501060200005000000000SITI FATIMAH BINTI MOHD.SAHAR                
0C850524086484W0037            201501000000035000003500JA02116201  20133875   K486193C9626          
1C850524086484W0037            201501010100030000000000NURUL IZMA BINTI MOKHTAR BAHARUDIN           
1C850524086484W0037            201501060200005000000000NURUL IZMA BINTI MOKHTAR BAHARUDIN           
0C860811435885W0037            201501000000165000016500JA02112020  20301875   K486193C9626          
1C860811435885W0037            201501010100030000000000HASBUL AZ BIN MUHAMAD                        
1C860811435885W0037            201501040100100000000000HASBUL AZ BIN MUHAMAD                        
1C860811435885W0037            201501060200005000000000HASBUL AZ BIN MUHAMAD                        
1C860811435885W0037            201501080100030000000000HASBUL AZ BIN MUHAMAD                        
0C820320105623W0037-           201501000000035000003500JA02111596  20286288   K486193C9626          
1C820320105623W0037-           201501010100030000000000MOHAMAD SALIM BIN RAFIEE                     
1C820320105623W0037-           201501060200005000000000MOHAMAD SALIM BIN RAFIEE                     
0C841018145846W0037-           201501000000035000003500JA02111503  20115182   K486193C9626          
1C841018145846W0037-           201501010100030000000000KHAIRIYAH BINTI KAMARUDIN                    
1C841018145846W0037-           201501060200005000000000KHAIRIYAH BINTI KAMARUDIN                    
0C741016085175W003701386       201501000000035000003500JA02116538  11439163   K486193C9626CA2897817 
1C741016085175W003701386       201501010100030000000000AHMAD FAIZAL BIN MOHAMED ARIF      CA2897817 
1C741016085175W003701386       201501060200005000000000AHMAD FAIZAL BIN MOHAMED ARIF      CA2897817 
0C820108016025W003701563       201501000000660000066000JA02110557  20107846   K486193C9626          
1C820108016025W003701563       201501010100030000000000AZMAL BIN AZWAR                              
1C820108016025W003701563       201501060200005000000000AZMAL BIN AZWAR                              
1C820108016025W003701563       201501460100416660020834AZMAL BIN AZWAR                              
