0C710315715278W0037            201501000000700420070042RA02112163  11468105   K488286C9630CA1814115 
1C710315715278W0037            201501010100030000000000ZAHARAH BINTI TALIB                CA1814115 
1C710315715278W0037            201501060200005000000000ZAHARAH BINTI TALIB                CA1814115 
1C710315715278W0037            201501460100416670024875ZAHARAH BINTI TALIB                CA1814115 
0C731111095022W0037            201501000000141550014155RA02112163  08843575   K488286C9630CA2470533 
1C731111095022W0037            201501010100030000000000ROSMIZA BINTI SABU                 CA2470533 
1C731111095022W0037            201501060200005000000000ROSMIZA BINTI SABU                 CA2470533 
1C731111095022W0037            201501410100083340002321ROSMIZA BINTI SABU                 CA2470533 
