0C550320085661W0037            201501000001410000141000NA02110704  02238681   K492887C9648C04764135 
1C550320085661W0037            201501010100030000000000A RADZI BIN WAHAB                  C04764135 
1C550320085661W0037            201501060200005000000000A RADZI BIN WAHAB                  C04764135 
1C550320085661W0037            201501410101250000012500A RADZI BIN WAHAB                  C04764135 
0C550808015456W0037            201501000001180830118083NA02110491  01410885   K492887C9648C04830721 
1C550808015456W0037            201501010100030000000000NORMAH BTE MD TAHIR                C04830721 
1C550808015456W0037            201501060200005000000000NORMAH BTE MD TAHIR                C04830721 
1C550808015456W0037            201501410101041670010416NORMAH BTE MD TAHIR                C04830721 
0C560502055171W0037            201501000001597220159722NA02110371  05607346   K492887C9648C08218015 
1C560502055171W0037            201501460101388890020833EN KRISHNAMOORTHY A/L MARIMUTHU    C08218015 
0C570110105896W0037            201501000000035000003500NA02110216  02248326   K492887C9648C05094356 
1C570110105896W0037            201501010100030000000000ASIAH BT HASSAN KPL C05094356      C05094356 
1C570110105896W0037            201501060200005000000000ASIAH BT HASSAN KPL C05094356      C05094356 
0C570905085542W0037            201501000001410000141000NA02110434  03198793   K492887C9648C05212472 
1C570905085542W0037            201501010100030000000000NOOR AISHAH BINTI ABD LATIF        C05212472 
1C570905085542W0037            201501060200005000000000NOOR AISHAH BINTI ABD LATIF        C05212472 
1C570905085542W0037            201501410101250000012500NOOR AISHAH BINTI ABD LATIF        C05212472 
0C590210055361W0037            201501000000035000003500NA02110423  12624847   K492887C9648C05548410 
1C590210055361W0037            201501010100030000000000S SEKAR A/L SELLTUGHAM             C05548410 
1C590210055361W0037            201501060200005000000000S SEKAR A/L SELLTUGHAM             C05548410 
0C590808106151W0037            201501000001076660107666NA02110147  02261287   K492887C9648C05691695 
1C590808106151W0037            201501010100030000000000JALAL BIN TAIB                     C05691695 
1C590808106151W0037            201501060200005000000000JALAL BIN TAIB                     C05691695 
1C590808106151W0037            201501460100833330020833JALAL BIN TAIB                     C05691695 
0C591031055272W0037            201501000000191670019167NA02110137  09217456   K492887C9648C05767564 
1C591031055272W0037            201501410100166670002500LAM SIEW YING                      C05767564 
0C600903065315W0037            201501000000035000003500NA02110442  05635453   K492887C9648C06854236 
1C600903065315W0037            201501010100030000000000SHAHARUDIN B ABIDIN                C06854236 
1C600903065315W0037            201501060200005000000000SHAHARUDIN B ABIDIN                C06854236 
0C601231055484W0037            201501000000035000003500NA02110351  05627682   K492887C9648C06085442 
1C601231055484W0037            201501010100030000000000JAYA CHANTRA A/L MUTHIAH           C06085442 
1C601231055484W0037            201501060200005000000000JAYA CHANTRA A/L MUTHIAH           C06085442 
0C610521016007W0037            201501000000035000003500NA02110101  09225830   K492887C9648C06160530 
1C610521016007W0037            201501010100030000000000M SASASEY A/L MANIGAM              C06160530 
1C610521016007W0037            201501060200005000000000M SASASEY A/L MANIGAM              C06160530 
0C620615035566W0037            201501000000372600037260NA02110061  03590023   K492887C9648C06806329 
1C620615035566W0037            201501010100030000000000LATIPAH BINTI HASHIM               C06806329 
1C620615035566W0037            201501060200005000000000LATIPAH BINTI HASHIM               C06806329 
1C620615035566W0037            201501410100238100009950LATIPAH BINTI HASHIM               C06806329 
0C631220055144W0037            201501000000035000003500NA02110135  05610795   K492887C9648C07207026 
1C631220055144W0037            201501010100030000000000MYSIAH BT IDRIS                    C07207026 
1C631220055144W0037            201501060200005000000000MYSIAH BT IDRIS                    C07207026 
0C640422085717W0037            201501000000165000016500NA02110451  05673975   K492887C9648CA0037865 
1C640422085717W0037            201501010100030000000000SAIFUL BAHRIN B ABU                CA0037865 
1C640422085717W0037            201501040100100000000000SAIFUL BAHRIN B ABU                CA0037865 
1C640422085717W0037            201501060200005000000000SAIFUL BAHRIN B ABU                CA0037865 
1C640422085717W0037            201501080100030000000000SAIFUL BAHRIN B ABU                CA0037865 
0C650319045150W0037            201501000000035000003500NA02110164  07154040   K492887C9648CA0129270 
1C650319045150W0037            201501010100030000000000MASSITAH BINTI MD DAUD             CA0129270 
1C650319045150W0037            201501060200005000000000MASSITAH BINTI MD DAUD             CA0129270 
0C651003055672W0037            201501000000035000003500NA02110277  09245770   K492887C9648CA0209997 
1C651003055672W0037            201501010100030000000000RADIAH BT JALI                     CA0209997 
1C651003055672W0037            201501060200005000000000RADIAH BT JALI                     CA0209997 
0C660328055173W0037            201501000000035000003500NA02110079  05692215   K492887C9648CA0366512 
1C660328055173W0037            201501010100030000000000ROSLAN BIN MOHAMMAD                CA0366512 
1C660328055173W0037            201501060200005000000000ROSLAN BIN MOHAMMAD                CA0366512 
0C660710015244W0037            201501000000035000003500NA02110351  08732646   K492887C9648CA0407777 
1C660710015244W0037            201501010100030000000000PATHAMAVATHY A/P RAMASAMY          CA0407777 
1C660710015244W0037            201501060200005000000000PATHAMAVATHY A/P RAMASAMY          CA0407777 
0C681228085597W0037            201501000000035000003500NA02110467  07152226   K492887C9648CA1183589 
1C681228085597W0037            201501010100030000000000G RAVI A/L GOVINDASAMY             CA1183589 
1C681228085597W0037            201501060200005000000000G RAVI A/L GOVINDASAMY             CA1183589 
0C690127045531W0037            201501000000035000003500NA02110106  09242967   K492887C9648CA1173327 
1C690127045531W0037            201501010100030000000000MAZLAN B ABU HASSAN                CA1173327 
1C690127045531W0037            201501060200005000000000MAZLAN B ABU HASSAN                CA1173327 
0C690510055505W0037            201501000000088230008823NA02110147  09207499   K492887C9648CA1247707 
1C690510055505W0037            201501010100030000000000MD AHRIS BIN BAKAR                 CA1247707 
1C690510055505W0037            201501060200005000000000MD AHRIS BIN BAKAR                 CA1247707 
1C690510055505W0037            201501410100033330001990MD AHRIS BIN BAKAR                 CA1247707 
0C710616055170W0037            201501000000035000003500NA02110351  09802620   K492887C9648CA1936516 
1C710616055170W0037            201501010100030000000000MALLIKA A/P APPOOKUTTY             CA1936516 
1C710616055170W0037            201501060200005000000000MALLIKA A/P APPOOKUTTY             CA1936516 
0C720729065438W0037            201501000000035000003500NA02110072  09736398   K492887C9648CA2275170 
1C720729065438W0037            201501010100030000000000EZAWATI BT ABDUL WASIF             CA2275170 
1C720729065438W0037            201501060200005000000000EZAWATI BT ABDUL WASIF             CA2275170 
0C730307055140W0037            201501000000097500009750NA02110457  09290966   K492887C9648CA2344817 
1C730307055140W0037            201501010100030000000000NUR FAIRUDZAINI BINTI ZAINAL ABIDINCA2344817 
1C730307055140W0037            201501060200005000000000NUR FAIRUDZAINI BINTI ZAINAL ABIDINCA2344817 
1C730307055140W0037            201501410100041670002083NUR FAIRUDZAINI BINTI ZAINAL ABIDINCA2344817 
0C780924026180W0037            201501000000035000003500NA02110136  20012845   K492887C9648          
1C780924026180W0037            201501010100030000000000ABIDAH BINTI ABDUL RAHMAN                    
1C780924026180W0037            201501060200005000000000ABIDAH BINTI ABDUL RAHMAN                    
0C850329035737W0037            201501000000035000003500NA02110098  20334632   K492887C9648          
1C850329035737W0037            201501010100030000000000MUHAMAD SYARIF BIN SAKANI                    
1C850329035737W0037            201501060200005000000000MUHAMAD SYARIF BIN SAKANI                    
0C860303235588W0037            201501000000035000003500NA02110079  20308614   K492887C9648          
1C860303235588W0037            201501010100030000000000NURULUDA BINTI LEYWAT                        
1C860303235588W0037            201501060200005000000000NURULUDA BINTI LEYWAT                        
0C880620055116W0037            201501000000035000003500NA02110362  20229916   K492887C9648          
1C880620055116W0037            201501010100030000000000TAMIL SELVI A/P GANASAN                      
1C880620055116W0037            201501060200005000000000TAMIL SELVI A/P GANASAN                      
0C850131146167W0037-           201501000000035000003500NA02110192  20267087   K492887C9648          
1C850131146167W0037-           201501010100030000000000ABDUL AZIZ BIN ISMAIL                        
1C850131146167W0037-           201501060200005000000000ABDUL AZIZ BIN ISMAIL                        
0C590328115024W003700468       201501000000035000003500NA02110499  05655634   K492887C9648C05641569 
1C590328115024W003700468       201501010100030000000000HENG JEE SOON                      C05641569 
1C590328115024W003700468       201501060200005000000000HENG JEE SOON                      C05641569 
0C690211015474W003700538       201501000000035000003500NA02110342  06092050   K492887C9648CA1185706 
1C690211015474W003700538       201501010100030000000000NALINI A/P KUPPUSAMY               CA1185706 
1C690211015474W003700538       201501060200005000000000NALINI A/P KUPPUSAMY               CA1185706 
0C580115055567W003700561       201501000000035000003500NA02110069  05610779   K492887C9648C05338961 
1C580115055567W003700561       201501010100030000000000NORHAMDI BIN KAMARUDIN             C05338961 
1C580115055567W003700561       201501060200005000000000NORHAMDI BIN KAMARUDIN             C05338961 
0C560918035342W003700595       201501000000035000003500NA02110256  08120313   K492887C9648C05045661 
1C560918035342W003700595       201501010100030000000000ROSLINA BINTI ABDUL RAHIM          C05045661 
1C560918035342W003700595       201501060200005000000000ROSLINA BINTI ABDUL RAHIM          C05045661 
0C590815055153W003700643       201501000000035000003500NA02110076  04266904   K492887C9648C05677773 
1C590815055153W003700643       201501010100030000000000TAN CHEE KEONG                     C05677773 
1C590815055153W003700643       201501060200005000000000TAN CHEE KEONG                     C05677773 
0C590912055286W003700648       201501000000035000003500NA02110489  02242816   K492887C9648C05936123 
1C590912055286W003700648       201501010100030000000000THANALETCHMEE A/P NEELAKANDAN      C05936123 
1C590912055286W003700648       201501060200005000000000THANALETCHMEE A/P NEELAKANDAN      C05936123 
0C661007055716W003701222       201501000000243330024333NA02110457  08487175   K492887C9648CA0538630 
1C661007055716W003701222       201501010100030000000000NOOR HAZIMAH BT HAMZAH             CA0538630 
1C661007055716W003701222       201501060200005000000000NOOR HAZIMAH BT HAMZAH             CA0538630 
1C661007055716W003701222       201501410100166670004166NOOR HAZIMAH BT HAMZAH             CA0538630 
0C611102026002W003701447       201501000000118340011834NA02110200  05497581   K492887C9648C06351882 
1C611102026002W003701447       201501010100030000000000ZAILAN BINTI ABDUL RASHID          C06351882 
1C611102026002W003701447       201501060200005000000000ZAILAN BINTI ABDUL RASHID          C06351882 
1C611102026002W003701447       201501410100066670001667ZAILAN BINTI ABDUL RASHID          C06351882 
0C641009016165W003701562       201501000000447560044756NA02110311  05457882   K492887C9648C07493544 
1C641009016165W003701562       201501010100030000000000ROSLI BIN TALIB                    C07493544 
1C641009016165W003701562       201501060200005000000000ROSLI BIN TALIB                    C07493544 
1C641009016165W003701562       201501460100258330015423ROSLI BIN TALIB                    C07493544 
0C900305145678W003701723       201501000000035000003500NA02110455  20480277   K492887C9648          
1C900305145678W003701723       201501010100030000000000FATIN NASUHA  BINTI MOHD NOR                 
1C900305145678W003701723       201501060200005000000000FATIN NASUHA  BINTI MOHD NOR                 
0C640207055638W003785513       201501000000035000003500NA02110052  02915304   K492887C9648C07293342 
1C640207055638W003785513       201501010100030000000000ZARINA BTE BIDIN                   C07293342 
1C640207055638W003785513       201501060200005000000000ZARINA BTE BIDIN                   C07293342 
