0C861229496046W0037            2015010000001650000165000832113039  20339475   K492312C9647          
1C861229496046W0037            201501010100030000000000VERALYN GODON                                
1C861229496046W0037            201501040100100000000000VERALYN GODON                                
1C861229496046W0037            201501060200005000000000VERALYN GODON                                
1C861229496046W0037            201501080100030000000000VERALYN GODON                                
0C880614295260W0037            2015010000000350000035000832113013  20445180   K492312C9647          
1C880614295260W0037            201501010100030000000000YUSNI ANIS BINTI YUSUF                       
1C880614295260W0037            201501060200005000000000YUSNI ANIS BINTI YUSUF                       
